S019000061743930626F6F746C6F616465726869642E737265636D
S21401E0004BC0000085C0000083C0000081C0000036
S21401E0107FC000007DC000007BC0000079C000000A
S21401E02077C0000075C0000042C2000071C0000049
S21401E0306FC000006DC000006BC0000069C000002A
S21401E04067C0000065C0000063C0000061C000003A
S21401E0505FC000005DC000005BC0000059C000004A
S21401E06057C0000055C0000053C0000051C000005A
S21401E0704FC000004DC000004BC0000049C000006A
S21401E08047C0000045C0000043C0000041C000007A
S21401E0903FC000003DC0000011241FBECFEFD0E2FC
S21401E0A0DEBFCDBF04B603FE1CC080915401909123
S21401E0B0550182349C4DA9F484B7877F84BF0FB67F
S21401E0C0F894A89580916000886180936000109212
S21401E0D060000FBE1092550110925401E0E0F0E08E
S21401E0E0099511E0A0E0B1E0E6E7F8EE01E00BBF2C
S21401E0F002C007900D92AA34B107D9F721E0AAE42D
S21401E100B1E001C01D92A435B207E1F702D0B1C358
S21401E11077CF84B7877F84BF0FB6F894A895809190
S21401E1206000886180936000109260000FBE90E0EE
S21401E13080E80FB6F89480936100909361000FBE5B
S21401E14081E085BF82E085BF97D1789480910001F8
S21401E150882311F075D3FACF8091E0008160809317
S21401E160E00082E49CED90935501809354019CE07D
S21401E17088E10FB6F894A895809360000FBE90933F
S21401E1806000FFCF42E361EC81E005C1CF92DF92F0
S21401E190EF92FF9280914C018F77813209F078C01F
S21401E1A080914D01893009F073C08091E800877F26
S21401E1B08093E8008091E80082FFFCCF3091F10067
S21401E1C02091F100832F922FA0E0B0E04427582F32
S21401E1D0692F7A2F019619F4109200014FC041154C
S21401E1E080EE580781E06807710508F047C083E0B4
S21401E1F0FA0160935B0080935700E89507B600FC30
S21401E200FDCF80E090E0A1E02091F2003091F30094
S21401E210232B19F1F091F100E091F1002F2F3E2F01
S21401E220FC01EE0FFF1F6A017B01CE0EDF1EE11C13
S21401E230F11C0901F601E0925B00A0935700E895F6
S21401E2401124019680389105F9F685E0FA0160936C
S21401E2505B0080935700E8950AC02091E8002B7771
S21401E2602093E8002091E80022FFFCCFD3CF07B629
S21401E27000FCFDCF81E180935700E8958091E8008E
S21401E2808B778093E800FF90EF90DF90CF9097C058
S21401E290FF90EF90DF90CF900895913059F0923033
S21401E2A071F0913289F09232A1F485E190E025E394
S21401E2B031E013C082E190E023E231E00EC082E259
S21401E2C090E021E031E009C089E090E023E131E00F
S21401E2D004C080E090E020E030E0FA013183208342
S21401E2E0089520915201309153012617370748F0BF
S21401E2F06115710539F42091E8002E772093E80026
S21401E30001C0B901FC0120E06115710561F18EB310
S21401E3108823D9F18530D9F18091E80083FD39C091
S21401E3208091E80082FD2BC08091E80080FFECCF51
S21401E3308091F2009091F3006115710551F08830DB
S21401E340910538F421912093F100615071090196ED
S21401E350F3CF21E0089709F020E08091E8008E775E
S21401E3608093E800D1CF2111D2CF09C08EB3882384
S21401E37061F0853061F08091E80083FD0AC08091EC
S21401E380E80082FFF3CF80E0089582E0089583E0FD
S21401E390089581E008958F708093E900EBEEF0E038
S21401E3A0808181608083EDEEF0E010826093EC0066
S21401E3B040838091EE00881F8827881F08958091EA
S21401E3C04C0187FF0FC08091E80082FD04C08EB328
S21401E3D08111F9CF10C08091E8008B770AC08EB307
S21401E3E0882349F08091E80080FFF9CF8091E8000A
S21401E3F08E778093E80008950F931F93CF93DF9352
S21401E40049D050D0C8EDD0E088818F778883888145
S21401E4108068888388818F7D8883E7EDF0E080813E
S21401E4208068808319BC1EBA10924A0100EE10E083
S21401E430F80180818B7F808388818160888342E0B8
S21401E44060E080E0A8DFE1EEF0E080818E7F8083EF
S21401E450E2EEF0E080818160808380818860808345
S21401E460F80180818E7F8083888180618883DF9137
S21401E470CF911F910F910895E8EDF0E080818F7E96
S21401E4808083E7EDF0E080818160808381E0809386
S21401E4904B01B2CFE8EDF0E080818C7F8083109253
S21401E4A0E20008951092DA001092E10008951F929A
S21401E4B00F920FB60F9211240BB60F922F933F9324
S21401E4C04F935F936F937F938F939F93AF93BF9376
S21401E4D0EF93FF938091DA0080FF1BC08091D800F4
S21401E4E080FF17C08091DA008E7F8093DA008091DA
S21401E4F0D90080FF0BC084E189BD86E189BD09B4DE
S21401E50000FEFDCF81E08EBB9AD103C019BC1EBAB6
S21401E51096D18091E10080FF17C08091E20080FFD4
S21401E52013C08091E2008E7F8093E2008091E2002A
S21401E53080618093E2008091D80080628093D80049
S21401E54019BC85E08EBB7BD18091E10084FF2EC093
S21401E5508091E20084FF2AC084E189BD86E189BDFD
S21401E56009B400FEFDCF8091D8008F7D8093D8003E
S21401E5708091E1008F7E8093E1008091E2008F7EA2
S21401E5808093E2008091E20081608093E2008091B6
S21401E5904A01882311F084E007C08091E30087FDDB
S21401E5A002C081E001C083E08EBB49D18091E100C9
S21401E5B083FF21C08091E20083FF1DC08091E100AE
S21401E5C0877F8093E10082E08EBB10924A018091A2
S21401E5D0E1008E7F8093E1008091E2008E7F809340
S21401E5E0E2008091E20080618093E20042E060E018
S21401E5F080E0D1DE24D1FF91EF91BF91AF919F9141
S21401E6008F917F916F915F914F913F912F910F90D5
S21401E6100BBE0F900FBE0F901F9018951F93CF93B0
S21401E620DF9300D0CDB7DEB7ECE4F1E084E591E00E
S21401E6302091F10021938E179F07D1F7A7DD8091D6
S21401E640E80083FFE8C080914C0190914D01953020
S21401E65009F46FC030F4913071F168F0933059F1DC
S21401E660DAC0983009F4A8C0993009F4B4C09630DD
S21401E67009F0D1C07FC0803899F0823809F0CBC04C
S21401E680809150018F70873008F0C5C08093E900F3
S21401E6908091EB0085FB882780F91092E90001C084
S21401E6A080E09091E800977F9093E8008093F100D6
S21401E6B01092F1008CC0282F2D7F09F0ACC082305B
S21401E6C009F0A9C080914E0181112AC080915001A4
S21401E6D08F702FEF280F263008F09DC08093E90039
S21401E6E02091EB0020FF1CC0933021F48091EB00B9
S21401E6F0806214C09091EB0090619093EB0021E052
S21401E70030E0A90102C0440F551F8A95E2F74093F5
S21401E710EA001092EA008091EB0088608093EB009B
S21401E7201092E9008091E800877F8093E80047DE39
S21401E73072C0811170C010914E011F778091E30065
S21401E7408078812B8093E3008091E800877F809317
S21401E750E80035DE8091E80080FFFCCF8091E30081
S21401E76080688093E300111102C082E001C083E05B
S21401E7708EBB51C08058823008F04DC06091500168
S21401E78070915101AE014F5F5F4F80914E019091A4
S21401E7904F0183DDBC01892B09F43DC09091E8004F
S21401E7A0977F9093E80089819A819BDD8091E800AC
S21401E7B08B778093E8002FC0803869F58091E80058
S21401E7C0877F8093E80080914A018093F1008091D1
S21401E7D0E8008E77AACF81111EC080914E019091DC
S21401E7E04F0199270297BCF48091E800877F8093B8
S21401E7F0E80080914E0180934A01E1DD80914A0153
S21401E800811106C08091E30087FD02C081E001C04E
S21401E81084E08EBBB7DC8091E80083FF0AC080915C
S21401E820E800877F8093E8008091EB008062809308
S21401E830EB000F900F90DF91CF911F9108950895EF
S21401E840CF938EB3882399F0C091E900CF70909151
S21401E850EC00892F817090FD80E8C82B1092E900AA
S21401E8608091E80083FDDADECF70C093E900CF9196
S20A01E8700895F894FFCFA5
S21401E8760109022200010100803209040000010399
S21401E8860000000921110100012215000705810378
S21401E89640000512011001000000086969939601FF
S21401E8A6000000000106DCFF09FBA10109021500B4
S20E01E8B625FF75089602019102C0C5
S80401E0001A
