S01400006174393065746865726E65742E7372656373
S113000010C200002DC200002BC2000029C2000053
S113001027C2000025C2000023C2000021C2000044
S11300201FC200001DC200000C94D31419C20000AA
S113003017C2000015C2000013C2000011C2000064
S11300400FC200000DC200000BC2000009C2000074
S113005007C2000005C2000003C2000001C2000084
S1130060FFC10000FDC10000FBC10000F9C1000098
S1130070F7C10000F5C10000F3C10000F1C10000A8
S1130080EFC10000EDC10000EBC10000E9C10000B8
S1130090E7C10000E5C1000028034C0055004600FC
S11300A04100200052004E0044004900530020004B
S11300B04300440043002000440065006D006F00CD
S11300C0000018034400650061006E002000430036
S11300D061006D0065007200610000000403090402
S11300E009023E00020100C03209040000010202BC
S11300F0FF00052400100104240200052406000169
S1130100070583030800FF09040100020A00000038
S1130110070502024000050705810240000512019F
S11301201001020000086969505501000102000134
S11301303C68746D6C3E093C686561643E09093C29
S11301407469746C653E0909094C5546412057652C
S1130150627365727665722044656D6F09093C2F80
S11301607469746C653E093C2F686561643E093CA2
S1130170626F64793E09093C68313E48656C6C6F76
S11301802066726F6D20796F75722055534220413D
S11301905652213C2F68313E09093C703E09090939
S11301A048656C6C6F212057656C636F6D652074B6
S11301B06F20746865204C55464120524E44495383
S11301C02044656D6F205765627365727665722091
S11301D07465737420706167652C2072756E6E6926
S11301E06E67206F6E20796F7572205553422041DF
S11301F056522076696120746865204C554641202A
S11302006C6962726172792E205468697320646526
S11302106D6F6E73747261746573207468652048C1
S1130220545450207765627365727665722C20543D
S113023043502F495020737461636B20616E6420B6
S1130240524E4449532064656D6F20616C6C20727A
S1130250756E6E696E672061746F702074686520B6
S11302604C5546412055534220737461636B2E09EB
S113027009093C6272202F3E3C6272202F3E09091C
S1130280093C736D616C6C3E50726F6A65637420D7
S1130290496E666F726D6174696F6E3A203C6120BD
S11302A0687265663D22687474703A2F2F77777789
S11302B02E6C7566612D6C69622E6F7267223E68C2
S11302C07474703A2F2F7777772E6C7566612D6C66
S11302D069622E6F72673C2F613E2E3C2F736D61F5
S11302E06C6C3E0909093C6872202F3E0909093CDF
S11302F0693E4C5546412056657273696F6E3A20CB
S11303003C2F693E31373034313809093C2F703E77
S1130310093C2F626F64793E3C2F68746D6C3E001B
S1130320485454502F312E3120343034204E6F74C1
S113033020466F756E640D0A5365727665723A20B5
S11303404C55464120524E4449530D0A436F6E6E3C
S1130350656374696F6E3A20636C6F73650D0A0D83
S11303600A00485454502F312E3120323030204F5F
S11303704B0D0A5365727665723A204C55464120FE
S1130380524E4449530D0A436F6E74656E742D7456
S11303907970653A20746578742F68746D6C0D0AF1
S11303A0436F6E6E656374696F6E3A20636C6F732E
S11303B0650D0A0D0A00010101000202010002019B
S11303C00100030101000401010006010100110103
S11303D00100070101000A0101000B0101000C01E9
S11303E001000D0101000E010100110101001401C1
S11303F001000101020002010200030102000401E4
S113040002000501020001010101020101010301D1
S113041001010401010101010201020102010301C0
S1130420020111241FBECFEFD0E2DEBFCDBF11E029
S1130430A0E0B1E0E2E7FFE200E00BBF02C00790FA
S11304400D92AE37B107D9F724E1AEE7B1E001C0B0
S11304501D92A336B207E1F70E94BD0C0C94B717A6
S1130460CFCD292F33272230310559F023303105E0
S113047069F02130310521F180E090E020E030E0A6
S113048028C08EE390E020EE30E023C0992781302D
S1130490910551F018F0029769F017C0ECEDF0E007
S11304A0849190E09F0115C0E2ECF0E0849190E02B
S11304B09F010FC0E8E9F0E0849190E09F0109C03A
S11304C082E190E02EE131E004C080E090E020E0A1
S11304D030E0FA013183208308950F931F93CF9363
S11304E0DF93EC018B01C0D22A813B81832F922FB1
S11304F08115984009F058C02E813F81832F922F97
S1130500019709F054C044E050E06EE371E0CE017D
S113051048960E948217892B59F046E050E062E425
S113052071E0CE0142960E948217892B09F042C0E5
S113053088819981F801918380838A819B81938347
S113054082838C8184838D81858380E092E097838C
S1130550868386E0FE013896D801529601900D926A
S11305608A95E1F78E859F85A889B989F801808FDE
S1130570918FA28FB38F86E0E2E4F1E0D801189660
S113058001900D928A95E1F780913E0190913F018F
S1130590A0914001B0914101F80186879787A08B13
S11305A0B18B8CE190E008C080E090E005C080E071
S11305B090E002C080E090E0DF91CF911F910F9115
S11305C008958F929F92AF92BF92CF92DF92EF9253
S11305D0FF920F931F93CF93DF936C017B018A01EA
S11305E0EB01C051DF4FCB0144D280EFF8011192EF
S11305F08A95E9F7F7018181F801818382E080839C
S1130600F7018281F80182831382F7018481958145
S1130610A681B781F80184839583A683B783118665
S11306201086F70182859385F801938782878090ED
S1130630300190903101A0903201B0903301808A52
S1130640918AA28AB38AB701645E7F4F46E050E084
S1130650C8014C960E949817F801E451FF4F83E6B5
S113066092E8A3E5B3E680839183A283B383F60182
S113067084869586A686B78680913E0190913F0137
S1130680A0914001B0914101808B918BA28BB38BDF
S11306905AC0853309F04DC09A81913019F09330D6
S11306A009F047C085E3F801E051FF4F808381E002
S11306B0319680838A81813011F482E001C085E023
S11306C0F801EE50FF4F8083319621E0208331966C
S11306D094E0908331968FEF8083319680833196B6
S11306E0808331961082319633E330833196908340
S11306F03196108231962083319621E520833196FC
S113070020E82083319626E3208331969083319626
S113071040913E0150913F0160914001709141012F
S113072040835183628373833496808386E091E0AF
S113073010C0882321F0898190E0029602C081E0F4
S113074090E0C80FD91F88818F3F09F0A2CF80E0C5
S113075090E0DF91CF911F910F91FF90EF90DF9088
S1130760CF90BF90AF909F908F9008950F931F9359
S1130770CF93DF93EC018B0176D146E050E062E445
S113078071E0CE010E948217892B51F046E050E0BF
S113079068E371E0CE010E948217892B09F049C0F9
S11307A0FE01E452FA4F20813181832F922F813050
S11307B0964008F441C02C853D85832F922F8115E6
S11307C0E8E09E0751F08630984081F4B801625FFA
S11307D07F4FCE010E9681DE0BC0A801425F5F4FB2
S11307E0BE01625F7F4FCE01A9D002C080E090E0DD
S11307F0181619061CF526E0E2E4F1E0D801169675
S113080001900D922A95E1F726E0FE013696D80173
S113081001900D922A95E1F72C853D85F8013587E5
S11308202487E452FA4F9C01225F3F4F3183208397
S113083005C080E090E002C080E090E0019621F0E5
S1130840C452DA4F19821882DF91CF911F910F9110
S11308500895CF93DF93EC0120E030E080E090E056
S1130860DC010DC0F901EE0FFF1FEC0FFD1F4081ED
S11308705181840F951FA11DB11D2F5F3F4FAB0107
S1130880569547952417350768F30BC0AC01BD0195
S113089066277727CD01AA27BB27840F951FA61F9C
S11308A0B71FAC01BD0144275527452B462B472BC9
S11308B069F780959095DF91CF910895EF92FF921B
S11308C00F931F93CF93DF938C01EB017A01CB013C
S11308D0CDD08881883049F5F701108211821382C6
S11308E012828C819D81958384838E819F819783DD
S11308F08683F801E452FA4F808191810C1B1D0B11
S1130900080F191FA80148505109BE01685F7F4FA5
S1130910C70108960E949817B801C7019ADFF7012A
S113092093838283802F912F02C080E090E0DF9137
S1130930CF911F910F91FF90EF900895AF92BF92C6
S1130940CF92DF92EF92FF920F931F93CF93DF9397
S11309506C017B01EA01CB0188D0F70160816F70E3
S113096070E08B01000F111F000F111F5701F0E100
S1130970AF0EB11C44E050E06EE371E0C5010E948B
S11309808217892B51F044E050E064E371E0C50123
S11309900E948217892B09F056C0F70181858630A1
S11309A071F08131B1F08130F1F4B701600F711F42
S11309B0AE014C5E5F4FC60181DF8C0116C0B701EA
S11309C0600F711FAE014C5E5F4FC701E4D38C0111
S11309D00CC0B701600F711FAE014C5E5F4FC701C1
S11309E044D68C0102C000E010E01016110674F524
S11309F00C5E1F4F1A830B83198285E488831E8241
S1130A001F821D821C821B861A86F70181858987B5
S1130A1080E8888780899189A289B3898C879D879A
S1130A20AE87BF8784859585A685B785888B998B86
S1130A30AA8BBB8B64E170E0CE010BDF9B878A87B6
S1130A40802F912F05C080E090E002C0802F912F6D
S1130A50DF91CF911F910F91FF90EF90DF90CF9096
S1130A60BF90AF9008950895089508950895089546
S1130A7008950895CF93DF93EC01DB01ED91FC9190
S1130A80119712968D919C911397A0E0B0E08E0F70
S1130A909F1FA11DB11DFA0160817181860F971FEF
S1130AA0A11DB11D42815381840F951FA11DB11D4C
S1130AB09A5FAF4FBF4F432F522F840F951FA11D35
S1130AC0B11D40E050E00DC0FA01EE0FFF1FEC0F26
S1130AD0FD1F60817181860F971FA11DB11D4F5F9E
S1130AE05F4FB901769567954617570768F320FF5E
S1130AF018C0660F771FFE01E60FF71F20813181B2
S1130B003327820F931FA11DB11D0BC0AC01BD0182
S1130B1066277727CD01AA27BB27840F951FA61F19
S1130B20B71FAC01BD0144275527452B462B472B46
S1130B3069F780959095DF91CF9108958F929F9258
S1130B40AF92BF92CF92DF92EF92FF920F931F93D7
S1130B50CF93DF938B01D0E04EC08C2F90E0FC014B
S1130B60EE0FFF1FEE0FFF1FE80FF91FE35CFB4EB4
S1130B70608171812D2F30E046E152E0249FF00125
S1130B80259FF00D349FF00D1124E550F24F408164
S1130B9051816417750741F5FC01EE0FFF1FEE0F3D
S1130BA0FF1FE80FF91FE35CFB4E42814130E1F483
S1130BB0FC01EE0FFF1FEE0FFF1F8E0F9F1FFC01A6
S1130BC0E35CFB4E0380F481E02D46E152E0249F78
S1130BD0C001259F900D349F900D1124BC01655FC9
S1130BE0714F8550924F0995CF5F01C0C0E0CC236F
S1130BF009F4B3CFDF5FD330C8F3F801E452FA4FFE
S1130C0080819181892B09F0CEC080E0C9C0282F52
S1130C1030E046E152E0249FF001259FF00D349F1F
S1130C20F00D1124E35FFF4E9081992309F4B7C0BE
S1130C30249FF001259FF00D349FF00D1124E25FF5
S1130C40FF4E9081992309F4AAC058018EE0A80EA2
S1130C50B11C4801E2E28E0E911C86E192E0289FCD
S1130C607001299FF00C389FF00C1124E701C55046
S1130C70D24FC888D98888819981F80193A382A327
S1130C808A819B8195A384A38C859D852E853F8530
S1130C9036A327A390A781A7888599852A853B85B4
S1130CA032A723A794A785A782E090E091AB80ABFD
S1130CB080E187A715AA14AA13AA12AA80E586A719
S1130CC0B701635F714FA601C801C6960E948F17D2
S1130CD08C859D85AE85BF858C0D9D1DA11DB11D87
S1130CE08C879D87AE87BF87A7014150524F9601DD
S1130CF02C5E3F4F6EE371E0C401BCDEF80193ABA0
S1130D0082ABC6018896908B818B178685E4868793
S1130D10148A158A138A128A118E108E86E0878BA4
S1130D2080E8868B80913E0190913F01A091400123
S1130D30B0914101828F938FA48FB58F8C819D8157
S1130D40AE81BF81868F978FA0A3B1A364E170E0C9
S1130D50C5017FDDF801918F808F86E0E2E4F1E048
S1130D60D801169601900D928A95E1F786E0E2E2A9
S1130D70F1E0D80101900D928A95E1F788E090E0C6
S1130D80F80195878487F6E3CF0ED11CF801E4526D
S1130D90FA4FD182C082CD5EDD4F188204C08F5FCE
S1130DA0833008F434CFDF91CF911F910F91FF90DE
S1130DB0EF90DF90CF90BF90AF909F908F90089569
S1130DC020E00EC0822F90E0FC01EE0FFF1FEE0F1B
S1130DD0FF1F8E0F9F1FFC01E35CFB4E12822F5FEF
S1130DE0222381F380E00CC026E132E0829FF001EF
S1130DF0839FF00D1124E05FFF4E9AE090838F5F94
S1130E00833090F30895CF93DF93DC01EA0180E00F
S1130E1020C0282F30E0F901EE0FFF1FEE0FFF1F57
S1130E20E20FF31FE35CFB4E408151814A175B07DD
S1130E3079F4F901EE0FFF1FEE0FFF1F2E0F3F1F76
S1130E40F901E35CFB4E6283D483C38381E02CC04D
S1130E508F5F8823F1F2613019F181E025C0292FD9
S1130E6030E0F901EE0FFF1FEE0FFF1FE20FF31F3B
S1130E70E35CFB4E5281511111C0F901EE0FFF1FCB
S1130E80EE0FFF1F2E0F3F1FF901E35CFB4EB183F2
S1130E90A0836283D483C38381E006C09F5F01C0C3
S1130EA090E09923E1F280E0DF91CF910895AC01C5
S1130EB090E01DC0292F30E0F901EE0FFF1FEE0F67
S1130EC0FF1FE20FF31FE35CFB4E60817181641727
S1130ED0750761F4F901EE0FFF1FEE0FFF1F2E0FD0
S1130EE03F1FF901E35CFB4E828108959F5F9923C4
S1130EF009F380E00895AF92BF92CF92DF92EF9210
S1130F00FF920F931F93CF93DF935C017B016A01E0
S1130F10D22FC0E043C00C2F10E086E192E0089F7E
S1130F20F001099FF00D189FF00D1124E550F24FC8
S1130F30808191818A159B0581F526E132E0029F2B
S1130F40C001039F900D129F900D112444E050E0C6
S1130F50B7018150924F0E948217892BF1F486E1E8
S1130F6092E0089FF001099FF00D189FF00D1124E5
S1130F70E550F24F828193818C159D0571F486E1D1
S1130F8092E0089FF001099FF00D189FF00D1124C5
S1130F90E05FFF4ED08381E037C0CF5FC33008F4F9
S1130FA0BACF80E02EC0282F30E046E152E0249FE3
S1130FB0F001259FF00D349FF00D1124E05FFF4EEA
S1130FC090819A30E9F486E192E0289FF001299F0C
S1130FD0F00D389FF00D1124E550F24FB182A0823C
S1130FE0D7014D915D916D917C91448355836683C6
S1130FF07783D382C282EB5EFD4FD08381E004C04D
S11310008F5F833080F280E0DF91CF911F910F9149
S1131010FF90EF90DF90CF90BF90AF900895AF9284
S1131020BF92CF92DF92EF92FF920F931F93CF93D1
S11310307C016B015A01C0E042C00C2F10E086E134
S113104092E0089FF001099FF00D189FF00D112404
S1131050E550F24F808191818E159F0579F526E147
S113106032E0029FC001039F900D129F900D112446
S113107044E050E0B6018150924F0E948217892BC0
S1131080E9F486E192E0089FF001099FF00D189FB2
S1131090F00D1124E550F24F828193818A159B054E
S11310A069F486E192E0089FF001099FF00D189F12
S11310B0F00D1124E05FFF4E808105C0CF5FC33087
S11310C008F4BBCF8AE0CF911F910F91FF90EF906E
S11310D0DF90CF90BF90AF900895AF92BF92CF9220
S11310E0DF92EF92FF920F931F93CF937C016B01DA
S11310F05A01C0E041C00C2F10E086E192E0089F45
S1131100F001099FF00D189FF00D1124E550F24FE6
S1131110808191818E159F0571F526E132E0029F51
S1131120C001039F900D129F900D112444E050E0E4
S1131130B6018150924F0E948217892BE1F486E117
S113114092E0089FF001099FF00D189FF00D112403
S1131150E550F24F828193818A159B0561F426E163
S113116032E0029FC001039F900D129F900D112445
S11311708D5F914F06C0CF5FC33008F4BCCF80E0D1
S113118090E0CF911F910F91FF90EF90DF90CF905F
S1131190BF90AF9008957F928F929F92AF92BF922B
S11311A0CF92DF92EF92FF920F931F93CF93DF932F
S11311B07C018B01EA01CB015ADCD8011296CD9057
S11311C0DC901397C60173DE813009F0CEC1F801BB
S11311D0858581FF08C04081518120E0B701645FAB
S11311E07F4FC60188DED8011D967C901D9772FE44
S11311F013C04D915C9111972AE0B701645F7F4F52
S113120012968D919C91139776DE882309F4B1C1CF
S113121084E18D8781E0BEC1F801808091806701FF
S1131220FCE0CF0ED11CD8011296AD90BC90139760
S1131230A401B601C501F3DE843009F42BC140F4E6
S1131240823009F447C008F066C0882351F093C186
S1131250863009F480C108F451C1873009F403C110
S11312608AC1B2E07B1289C122E0A401B601C501A2
S113127042DE882359F182E18D87F8014081518152
S1131280B6018281938129DFD80114962C91149799
S113129015963C9115971696EC9116971796FC9116
S11312A04F2F5E2F632F722F4F5F5F4F6F4F7F4F14
S11312B0FC014083518362837383148215821682F6
S11312C01782E45FFD4F108281E064C184E08D8762
S11312D081E060C1B0E17B1252C123E0A401B601F8
S11312E0C50109DEF80140815181B60182819381F3
S11312F0F4DEDC0114964D915D916D917C9117970C
S11313004F5F5F4F6F4F7F4FFC014483558366836C
S1131310778380E03FC1F1E17F122DC081E18D87A9
S1131320D8014D915C91119726E0B60112968D91EA
S11313309C911397E0DDF80140815181B6018281CF
S11313409381CBDEFC0180819181A281B3810196DE
S1131350A11DB11D80839183A283B3838481958170
S1131360A681B7810196A11DB11D84839583A683AF
S1131370B78381E00FC1F0E17F1619F028E1721202
S113138000C1A401B601C501A8DE6C01FC01E45F43
S1131390FD4F808181110EC03197808181110AC077
S11313A03197108281E032968083D60119961C927F
S11313B01E921897F601E65FFD4F808181113FC1AF
S11313C0F601808591858115F2E09F0709F43AC101
S11313D0D7012C912F7030E0220F331F220F331FBF
S11313E0F801648562956F7070E0660F771F660F71
S11313F0771F12964C91129713965C91A52EB42EDA
S1131400A21AB30AA61AB70A0A96600F711FA50199
S11314108C0D9D1D0E948F17F60180819181A28100
S1131420B3818A0D9B1DA11DB11D80839183A2836D
S1131430B38380859185A80EB91EB186A086A114B8
S1131440F2E0BF0629F0D8011D968C9183FF9BC062
S1131450F601E45FFD4F1082319781E0808380E1E3
S11314608D8781E097C0A401B601C50136DE21E174
S11314702D87845F9D4FFC011082D8014D915C91B2
S1131480119724E0B60112968D919C91139733DD48
S113149081E080C0B1E17B1227C0A401B601C5017F
S11314A01CDEFC0180E18D8780819181A281B38162
S11314B00196A11DB11D80839183A283B38384818E
S11314C09581A681B7810196A11DB11D8483958361
S11314D0A683B783F801408151812AE0B601828155
S11314E0938109DD81E056C0F0E17F124EC025E012
S11314F0A401B601C501FFDC80E04CC021E17212F9
S113150046C0A401B601C501E8DDFC0180E18D8778
S113151080819181A281B3810196A11DB11D808337
S11315209183A283B38384819581A681B781019637
S1131530A11DB11D84839583A683B783D8014D91E2
S11315405C9111972AE0B60112968D919C911397A4
S1131550D2DC81E01FC0B0E17B121BC02AE0A401F1
S1131560B601C501C8DC80E015C084E18D8781E047
S113157011C080E00FC080E00DC080E00BC080E0AF
S113158009C080E007C080E005C080E003C080E0BF
S113159001C080E0882309F458C0F80140815181DA
S11315A05701FCE0AF0EB11CD8011296CD90DC902F
S11315B01397B501C60191DDFC01D982C882D80117
S11315C08D919C919B838A83848195812681378127
S11315D03C832D839E838F838081918122813381FB
S11315E0388729879A878B878C858F7080658C874D
S11315F0DF01A45FBD4F8C91811105C082E090E0B2
S11316009F878E8708C02085318580E092E0821B09
S1131610930B9E878F871B8A1A8A198A188A8C854E
S1131620807F8C87B701605F7F4F24E130E0A501A4
S1131630CE0120DA998B888B84E190E008C08FEF8B
S11316409FEF05C08FEF9FEF02C080E090E0DF9135
S1131650CF911F910F91FF90EF90DF90CF90BF90AB
S1131660AF909F908F907F900895EF92FF920F9389
S11316701F93CF93DF937C01EB018A01CB01F8D94F
S11316802A813B81832F922F8334910559F4A80139
S1131690485F5F4FBE01685F7F4FC7010E94E10250
S11316A09C0102C020E030E01216130694F48A81F3
S11316B09B81F801918380838881998193838283BC
S11316C017821682285F3F4F34832583822F932FFE
S11316D002C080E090E0DF91CF911F910F91FF90C5
S11316E0EF900895FB0101900020E9F73197AF01D5
S11316F0461B570B0E94A91721E0892B09F020E013
S1131700822F0895AF92BF92CF92DF92EF92FF9211
S11317100F931F93CF93DF937C01EB018B010E5F3B
S11317201F4FFB01ED5FFD4F8081882309F4A4C0A6
S1131730319790819111A0C068E471E0C801D2DFB3
S1131740882309F43FC06CE471E0C801CBDF88232F
S1131750E9F010927E0162E673E0C8010E9463170B
S1131760FE01EE5FFD4F81E08083F80101900020CF
S1131770E9F73197E01BF10BF983E883FE01ED5F94
S1131780FD4F8083CC5FDD4F8883B5C060E273E09A
S1131790C8010E946317FE01EE5FFD4F81E0808364
S11317A0F80101900020E9F73197E01BF10BF98370
S11317B0E883CD5FDD4F8883F701EB5EFD4F87E063
S11317C0808399C063E571E0C8018CDF8823C9F187
S11317D068E571E0C80186DF8823B9F062E673E04A
S11317E0C8010E946317FE01EE5FFD4F81E0808314
S11317F0F80101900020E9F73197E01BF10BF98320
S1131800E883CD5FDD4F888316C060E273E0C801D2
S11318100E946317FE01EE5FFD4F81E08083F801B3
S113182001900020E9F73197E01BF10BF983E8837D
S1131830CD5FDD4F8883F701EB5EFD4F87E080834A
S11318405AC060E671E0C8014DDF882371F0FE01E3
S1131850EE5FFD4F81E08083CD5FDD4F8883F7012C
S1131860EB5EFD4F87E0808346C0FE01ED5FFD4FD8
S11318701082198218823FC081113DC0FE01EC5FC5
S1131880FD4F80818823B9F132978081882399F1B3
S1131890C0907E0120E8C29EC00111249C01205DFD
S11318A03E4F6901C9010E946A175C0181389105A4
S11318B020F06894AA24A7F8B12CA501B601C801A8
S11318C00E94731781E0FE01EE5FFD4F8083B982B1
S11318D0A8823196808380917E0191E0980F909345
S11318E07E01833041F4CC5FDD4F1882F701EB5E5B
S11318F0FD4F87E08083DF91CF911F910F91FF907F
S1131900EF90DF90CF90BF90AF90089542E85BE0F6
S113191061E080E090E577CA089584B7877F84BF4B
S11319200FB6F894A8958091600088618093600058
S1131930109260000FBE90E080E80FB6F894809398
S11319406100909361000FBE87E690E09093CD0014
S11319508093CC0086E08093CA001092C80088E18E
S11319608093C9008AB188608AB98BB184608BB9CD
S1131970FED780E090E057C00895CFDF21DAC6DFBC
S1131980789480E091E051D48823E9F049E35DE064
S11319906DE577E080E091E05ED46FE771E08DE57E
S11319A097E00E94B60340915B0750915C07411594
S11319B0510549F06FE771E080E091E0A7D41092FF
S11319C05C0710925B076FE771E080E091E0B6D8A6
S11319D080E091E0EBD30E945817D3CF0895089587
S11319E080E091E0B3C3089580E091E043C308959B
S11319F09091C80095FFFCCF8093CE0080E090E0EA
S1131A0008958091C80088235CF48091C8008823DD
S1131A1024F48091CE0090E008958FEF9FEF089515
S1131A208EEF9FEF0895FC01892B49F4EDE5F4E175
S1131A3082E494E19183808393838283FC018EE02A
S1131A40DF011D928A95E9F783E0838388EF9CE0A8
S1131A509187808781E09DE09387828708954E3047
S1131A60E1E05E076E07710539F043305140614093
S1131A707140B9F481E00895F90140815181628196
S1131A807381FC01468F578F60A371A3452B462BAE
S1131A90472B11F022E001C021E0FC01258F81E0F9
S1131AA0089580E00895CF92DF92EF92FF92CF9352
S1131AB0DF934E3021E052076207710509F429C112
S1131AC008F047C04630F1E05F076F07710509F47D
S1131AD0C0C0E601D701473021E052076207710513
S1131AE0B0F4423081E058076807710509F48CC0EE
S1131AF038F4413051406140710509F46CC039C17A
S1131B00453051406140710508F489C032C14C3000
S1131B10E1E05E076E07710570F44A30F1E05F079B
S1131B206F07710508F095C0473051406140710559
S1131B3009F4C2C01EC14C30E1E05E076E077105B6
S1131B4009F478C04D3051406140710509F491C0E9
S1131B5010C1463021E0520722E062077105E8F423
S1131B604130E1E05E07E2E06E07710508F0E2C093
S1131B704431F1E05F076F07710509F491C0423009
S1131B8022E0520721E06207710591F14131514091
S1131B906140710509F0EDC0D9C04430F1E05F0740
S1131BA06F077F0709F4A6C058F4415051406140C3
S1131BB07140423051056105710508F48CC0D9C0EB
S1131BC041505140624071404330510561057105F7
S1131BD008F4B0C0CEC08CE690E0998388834CE6CC
S1131BE050E066EB73E0C7010E945A1781E0C2C05F
S1131BF084E090E0F60191838083F70110821182E2
S1131C001282138281E0B6C084E090E099838883D5
S1131C101D921D921D921C92139781E0ABC084E02B
S1131C2090E0998388831D921D921D921C921397B4
S1131C3081E0A0C084E090E0998388834FEF5FEF58
S1131C406FEF70E04D935D936D937C93139781E0F8
S1131C5091C084E090E0F601918380838CED95E05F
S1131C60A0E0B0E0F70180839183A283B38381E095
S1131C7081C0FC0120893189F90101900020E9F734
S1131C803197AF01421B530B4F5F5F4F598348831A
S1131C90FC0160897189C7010E948F1781E06AC0C5
S1131CA084E090E0F60191838083F7011082118231
S1131CB01282138281E05EC084E090E0998388837D
S1131CC040EA56E861E070E04D935D936D937C9338
S1131CD0139781E04FC026E030E0F6013183208382
S1131CE0FC01729696E0D70101900D929A95E1F766
S1131CF081E040C084E090E0F6019183808381E03C
S1131D0090E0A0E0B0E0F70180839183A283B383E5
S1131D1031C024E030E0F60131832083FC01868D5C
S1131D20978DA0A1B1A1F70180839183A283B3838E
S1131D3081E020C084E090E0F60191838083F70184
S1131D40108211821282138281E014C024E030E0F8
S1131D50F60131832083FC01828D938D84529A4F46
S1131D60A0E0B0E0F70180839183A283B38381E094
S1131D7001C080E0DF91CF91FF90EF90DF90CF9092
S1131D800895AF92BF92CF92DF92EF92FF920F939A
S1131D901F93CF93DF9300D0CDB7DEB7DC01589605
S1131DA0AD90BC905997F501408151816281738156
S1131DB0443051056105710509F470C060F4423086
S1131DC0510561057105B1F0433051056105710597
S1131DD009F458C042C1463051056105710509F442
S1131DE005C108F4C2C0483051056105710509F404
S1131DF01BC133C121E0DC015C962C9342E050E02E
S1131E0060E070E8F501408351836283738344E3A7
S1131E1050E060E070E044835583668377831486E2
S1131E2015861686178641E050E060E070E0408B2E
S1131E30518B628B738B148A158A168A178A408F8A
S1131E40518F628F738F148E158E168E178E40A34A
S1131E5051A362A373A348E056E060E070E044A39A
S1131E6055A366A377A310A611A612A613A614A6BB
S1131E7015A616A617A610AA11AA12AA13AAFC013F
S1131E80258FEBC0DC015C961C925C97F5011482F3
S1131E901582168217825D961C92DFC021E0DC0158
S1131EA05C962C93F5014485558566857785048970
S1131EB0158926893789085F1F4FE00FF11FC12C50
S1131EC0D12C76016894C2F8F7F8D501CD92DD9251
S1131ED0ED92FC92139750960D911D912D913C918A
S1131EE05397DE0111966D017501B8E1EB0EF11CFB
S1131EF09F01D9DD8823F9F0F5011486158616862D
S1131F00178689819A81AC01485E5F4F60E070E07A
S1131F104483558366837783A0E0B0E0808B918B04
S1131F20A28BB38B80E190E0A0E0B0E0848B958B32
S1131F30A68BB78B92C08BEB90E0A0E0B0ECF501E0
S1131F4084879587A687B78788E190E0A0E0B0E012
S1131F5084839583A683B783108A118A128A138A8D
S1131F60148A158A168A178A78C021E0DC015C96E7
S1131F702C93F501448555856685778505E010E049
S1131F8020E030E8008311832283338300E110E0F2
S1131F9020E030E00483158326833783DC015896E0
S1131FA0ED91FC915997D50154960D911D912D9168
S1131FB03C915797085F1F4FE00FF11F50960D910A
S1131FC01D912D913C9153979F0149DD882321F068
S1131FD080E090E0DC0104C08BEB90E0A0E0B0EC8A
S1131FE0F50184879587A687B78737C021E0DC0190
S1131FF05C962C9386E090E0A0E0B0E8F501808345
S11320009183A283B38380E190E0A0E0B0E0848375
S11320109583A683B7831086118612861386148649
S113202015861686178619C021E0DC015C962C9370
S113203088E090E0A0E0B0E8F50180839183A2837A
S1132040B38380E190E0A0E0B0E084839583A6832D
S1132050B78314861586168617860F900F90DF9126
S1132060CF911F910F91FF90EF90DF90CF90BF9091
S1132070AF900895EF92FF920F931F93CF93DF9346
S1132080FC019091E80093FF5AC0809159149091FB
S11320905A14208130E08217930709F050C0EF01F1
S11320A080915614882319F08130D1F048C0809172
S11320B05514813209F043C008EE10E0F801808124
S11320C0877F808360915B1470915C14888D998DF7
S11320D082D2F80180818E778083CE0152DE2FC0B8
S11320E080915514813A59F5E08CF18CF701848183
S11320F09581A681B781892B8A2B8B2B49F4108279
S113210081E090E0A0E0B0E084839583A683B78368
S113211008EE10E0F8018081877F8083F7016481F5
S1132120758186819781888D998DEDD1F8018081A3
S11321308B778083F7011482158216821782DF91D0
S1132140CF911F910F91FF90EF900895CF93DF935C
S1132150FC01DC015C9686E0ED0119928A95E9F7B1
S113216082E08483818783E08687808D918D892BAB
S1132170B9F0828D938D84389105A0F0EF0161E070
S1132180CF0101960CD3882371F061E0CE0106964D
S113219006D3882341F061E0CE010B9600D303C03F
S11321A080E001C080E0DF91CF9108950F931F93E9
S11321B0CF93DF93CDB7DEB728970FB6F894DEBF81
S11321C00FBECDBFFC0190915414943019F5838552
S11321D08F708093E9008091E80080FF1BC0848D9C
S11321E08823C1F08F0188E0E8E2F1E0DE01119676
S11321F001900D928A95E1F740E050E068E070E0CC
S1132200CE010196ECD0E8EEF0E080818E778083F9
S1132210F801148E28960FB6F894DEBF0FBECDBF1A
S1132220DF91CF911F910F910895FC019091541467
S1132230943069F4858D823061F486818F70809347
S1132240E9008091E80082FB882780F9089580E006
S1132250089580E00895EF92FF920F931F93CF9318
S1132260DF93CDB7DEB7AC970FB6F894DEBF0FBEE1
S1132270CDBFFC01909154149430C1F5858D82300A
S1132280B9F586818F708093E900FA01118210827A
S11322909091E800892F847092FF2BC08A017B0102
S11322A040E050E06CE270E0CE010196E2D06D8532
S11322B07E858F8598896D3DF5E07F0781059105C1
S11322C038F0EBEEF0E080818062808380E811C01A
S11322D0F8017183608340E050E0C701CAD0E8EEA2
S11322E0F0E080818B77808380E003C082E001C0CE
S11322F082E0AC960FB6F894DEBF0FBECDBFDF917F
S1132300CF911F910F91FF90EF900895EF92FF925C
S11323100F931F93CF93DF93CDB7DEB7AC970FB670
S1132320F894DEBF0FBECDBFFC01909154149430DD
S113233009F045C0858D823009F043C08A017B01D4
S113234081818F708093E90091D281113BC0CE01CD
S113235001962CE2FC0111922A95E9F741E050E044
S113236060E070E049835A836B837C83A801445DF9
S11323705F4F60E070E04D835E836F83788744E253
S113238050E060E070E049875A876B877C87A8013A
S113239060E070E04D875E876F87788B40E050E0A7
S11323A06CE270E01CD040E050E0B801C70117D0E7
S11323B0E8EEF0E080818E77808380E003C082E0E5
S11323C001C082E0AC960FB6F894DEBF0FBECDBF5D
S11323D0DF91CF911F910F91FF90EF900895CF92CD
S11323E0DF92EF92FF920F931F93CF93DF938C01B1
S11323F0EB016A013BD2811133C0C114D10439F01D
S1132400F60180819181C81BD90B080F191FE12C9B
S1132410F12C23C09091E80095FD16C0E8EEF0E0A1
S113242080818E77808344D5C114D10449F0F601AC
S113243080819181E80EF91EF182E08285E010C06E
S113244015D2882351F00CC0F80181918F0180933B
S1132450F1002197FFEFEF1AFF0A2097D9F680E0E9
S1132460DF91CF911F910F91FF90EF90DF90CF906C
S11324700895CF92DF92EF92FF920F931F93CF9321
S1132480DF938C01EB016A01F1D1811133C0C114D6
S1132490D10439F0F60180819181C81BD90B080F52
S11324A0191FE12CF12C23C09091E80095FD16C072
S11324B0E8EEF0E080818B778083FAD4C114D104F4
S11324C049F0F60180819181E80EF91EF182E082E3
S11324D085E010C0CBD1882351F00CC08091F1006D
S11324E0F80181938F012197FFEFEF1AFF0A2097DC
S11324F0D9F680E0DF91CF911F910F91FF90EF907B
S1132500DF90CF90089520915B1430915C142617CE
S1132510370758F06115710539F4E8EEF0E02081D1
S11325202E7720839B0101C09B01E82FF92F90E0B7
S113253030C080915414882309F441C0853009F4D3
S113254040C08091E80083FD3EC08091E80082FD98
S113255030C08091E80080FF1CC04091F20050918F
S1132560F30007C081918093F100215031094F5F3E
S11325705F4F2115310519F04830510598F391E06A
S11325804830510509F090E0A8EEB0E08C918E77C8
S11325908C932115310569F69111CBCF0AC0809136
S11325A05414882391F0853091F08091E80083FDE4
S11325B010C08091E80082FFF2CF80E0089582E0AD
S11325C0089583E0089581E0089582E0089583E00A
S11325D0089581E008956115710529F4E8EEF0E0AD
S11325E020812B772083E82FF92F22C08091541467
S11325F0882371F1853071F18091E80083FD2CC04E
S11326008091E80082FF14C005C08091F10081939D
S1132610615071096115710531F08091F20090915A
S1132620F300892B91F7A8EEB0E08C918B778C9313
S113263061157105D9F606C080915414882371F090
S1132640853071F08091E80080FFF6CF80E0089536
S113265082E0089583E0089581E0089582E008957A
S113266083E0089520915B1430915C14261737079A
S113267058F06115710539F4E8EEF0E020812E7709
S113268020839B0101C09B01E82FF92F90E031C00A
S113269080915414882309F442C0853009F441C060
S11326A08091E80083FD3FC08091E80082FD31C045
S11326B08091E80080FF1DC04091F2005091F3002A
S11326C008C084918093F1003196215031094F5F05
S11326D05F4F2115310519F04830510590F391E011
S11326E04830510509F090E0A8EEB0E08C918E7767
S11326F08C932115310561F69111CACF0AC08091DE
S11327005414882391F0853091F08091E80083FD82
S113271010C08091E80082FFF2CF80E0089582E04B
S1132720089583E0089581E0089582E0089583E0A8
S1132730089581E00895982F29C0292F2F702093A0
S1132740E900981739F07091EC002091ED00509158
S1132750F00003C0242F762F50E021FF16C0EBEECB
S1132760F0E030813E7F3083ADEEB0E03C913D7FC0
S11327703C933081316030837093EC002C93509300
S1132780F0002091EE00222344F49F5F9730A8F2DA
S11327908F708093E90081E0089580E008950F939D
S11327A01F93CF93DF93EC01062F10E036C0E12F87
S11327B0F0E0CF01880F991F880F991FE80FF91FC8
S11327C0EC0FFD1F5081552339F19481A181B28111
S11327D06381852F8F708730E0F4923010F046E0EB
S11327E001C042E028E030E090E003C09F5F220F88
S11327F0331F2A173B07D0F39295907F20E4629F02
S1132800B0011124551F5527551F492B652B93DF04
S113281001C080E0882321F01F5F101740F281E09F
S1132820DF91CF911F910F910895809155148823C2
S11328309CF404C0809154148823B9F08091E8007A
S113284082FFF8CFE8EEF0E080818B7780830895F3
S113285080915414882349F08091E80080FFF8CFD8
S1132860E8EEF0E080818E77808308952091E40083
S11328703091E50044E602C09C01452F8091EC00B4
S1132880982F917080FD90E8903829F48091E800A9
S113289080FF05C01BC08091E80082FD19C08091B3
S11328A054148823B9F08530B9F08091EB0085FD8C
S11328B015C08091E4009091E50028173907F1F2E2
S11328C05FEF540F4111D8CF84E0089580E008955C
S11328D080E0089582E0089583E0089581E00895FA
S11328E0CF93DF93109254141092501410925214F8
S11328F010925114C0EED0E088818B7F8883E8ED7C
S1132900F0E080818160808342E060E080E013DF5A
S1132910E1EEF0E080818E7F8083E2EEF0E0808162
S11329208160808380818860808388818E7F8883B2
S1132930DF91CF910895CF93DF9328D02FD0C8EDA6
S1132940D0E088818F7788838881806888838881B4
S11329508F7D8883E7EDF0E080818068808319BCF7
S1132960BFDF888180618883DF91CF910895E8ED8E
S1132970F0E080818F7E8083E7EDF0E080818160EC
S1132980808381E080935314D6CF0895E8EDF0E07E
S113299080818C7F80831092E20008951092DA0087
S11329A01092E10008951F920F920FB60F92112416
S11329B00BB60F922F933F934F935F936F937F9335
S11329C08F939F93AF93BF93EF93FF938091E10015
S11329D082FF0AC08091E20082FF06C0E1EEF0E0CF
S11329E080818B7F808349D28091DA0080FF1FC071
S11329F08091D80080FF1BC0EAEDF0E080818E7FDB
S1132A0080838091D90080FF0DC084E189BD86E177
S1132A1089BD09B400FEFDCF81E0809354140E9467
S1132A20EE0C05C019BC109254140E94EF0C809156
S1132A30E10080FF16C08091E20080FF12C0E2EE48
S1132A40F0E080818E7F8083808180618083E8EDE7
S1132A50F0E080818062808319BC85E08093541407
S1132A600CD28091E10084FF2FC08091E20084FFAA
S1132A702BC084E189BD86E189BD09B400FEFDCF88
S1132A80E8EDF0E080818F7D8083E1EEF0E08081ED
S1132A908F7E8083E2EEF0E080818F7E8083808170
S1132AA08160808380915014882321F084E0809396
S1132AB0541409C08091E300882314F483E001C016
S1132AC081E080935414D9D18091E10083FF1EC02A
S1132AD08091E20083FF1AC0E1EEF0E08081877FFD
S1132AE0808382E0809354141092501480818E7FEE
S1132AF08083E2EEF0E080818E7F8083808180613C
S1132B00808342E060E080E016DEB7D1FF91EF9170
S1132B10BF91AF919F918F917F916F915F914F91F1
S1132B203F912F910F900BBE0F900FBE0F901F90EF
S1132B30189580915514803819F0823871F00895F1
S1132B4080915114811102C090E001C091E0809104
S1132B505214882381F092600EC0809159148F70B2
S1132B608730B0F4E9EEF0E080839091EB0095FBC0
S1132B70992790F91082E8EEF0E08081877F8083C6
S1132B80A1EFB0E09C931C9280818E7780834DCE20
S1132B900895809155148F7119F0823071F0089561
S1132BA080915714813009F03FC0909156149330AE
S1132BB009F080E0809352142FC080915714811142
S1132BC02BC0809159148F709FEF980F963060F549
S1132BD08093E9009091EB0090FF1EC090915614F1
S1132BE0933031F4EBEEF0E080818062808314C096
S1132BF0EBEEF0E090819061908321E030E0A90158
S1132C0002C0440F551F8A95E2F7AAEEB0E04C9338
S1132C101C928081886080831092E900E8EEF0E0E5
S1132C208081877F808301CE0895CF93C09157140C
S1132C30CF77E3EEF0E0808180788C2B8083E8EE20
S1132C40F0E08081877F8083F0DD8091E80080FF61
S1132C50FCCFE3EEF0E0808180688083CC2311F028
S1132C6083E001C082E080935414CF910895E8EE8C
S1132C70F0E08081877F8083809150148093F100FD
S1132C8080818E778083D1CD08950F931F93CF9346
S1132C90DF93CDB7DEB7AA970FB6F894DEBF0FBEA9
S1132CA0CDBF83E08A838AE289833FB7F89490E0BA
S1132CB02EE020C0E22FF0E081E280935700E491FF
S1132CC090FF03C0E295EF702F5FEF70A92FB0E083
S1132CD0AA0FBB1F43E050E04C0F5D1FA40FB51FAC
S1132CE0EA3018F0F0E0F79602C0F0E0F096ED93C9
S1132CF0FC939F5F9431F0F23FBF08EE10E0F801BF
S1132D008081877F80836AE270E0CE010196FBDBDD
S1132D10F80180818B778083AA960FB6F894DEBF82
S1132D200FBECDBFDF91CF911F910F9108950F93E7
S1132D301F93CF93DF9300D0CDB7DEB780915714A4
S1132D40909158148C3D23E0920711F49EDF19C032
S1132D506091591470915A14AE014F5F5F4F0E94F5
S1132D603102009771F008EE10E0F8012081277F0E
S1132D702083BC0189819A8175DCF80180818B777D
S1132D8080830F900F90DF91CF911F910F91089541
S1132D90809157149091581499270297ECF4E8EE17
S1132DA0F0E08081877F8083809157148093501452
S1132DB03CDD80915014882321F084E080935414E6
S1132DC009C08091E300882314F484E001C081E009
S1132DD0809354140C94F00C089580E0E5E5F4E13C
S1132DE005C09091F10090838F5F31968830C8F3CD
S1132DF00E94F40C8091E80083FF30C0E5E5F4E123
S1132E00908181818530D1F030F4813089F050F0A7
S1132E10833071F023C08830D1F08930E1F08630FE
S1132E20E9F410C0903811F09238C1F482DE16C073
S1132E30992311F0923091F4ACDE10C091110EC0C0
S1132E40F4DE0CC09058923048F471DF07C090381B
S1132E5029F40DDF03C0911101C09ADF8091E800CD
S1132E6083FF0AC0E8EEF0E08081877F8083EBEE89
S1132E70F0E080818062808308950895CF938091EB
S1132E805414882399F0C091E900CF708091EC002C
S1132E90982F917080FD90E8C92B1092E9008091E1
S1132EA0E80083FD9ADFCF70C093E900CF910895C5
S1132EB0E5CF0895FB01DC0102C005900D9241505D
S1132EC05040D8F70895FB01DC0105900D920020D5
S1132ED0E1F70895FC0105900020E9F780959095AD
S1132EE08E0F9F1F0895FB01DC014150504048F0B4
S1132EF005900D920020C9F701C01D924150504029
S1132F00E0F70895FB01DC0104C08D910190801964
S1132F1021F441505040C8F7881B990B0895FB01D8
S1132F20DC0102C001900D9241505040D8F7089541
S1132F306817790768F4FB01DC01E40FF51FA40F9F
S1132F40B51F02C002900E9241505040D8F7089528
S1132F50E6CFFB01DC014150504030F08D910190EF
S1132F60801919F40020B9F7881B990B0895F89477
S1052F70FFCF8D
S1132F7200814000000102400000018308000001BA
S1132F8266010200020002003B0DC00000000000C6
S1132F920000020002000200A10100000000000083
S1132FA20A000001FFFFFFFFFFFFFFFFFFFF0A0010
S1132FB20002000100010001474554004745542026
S1132FC22F2000484541440048454144202F200019
S1132FD25452414345004C55464120524E444953B4
S1112FE22044656D6F20416461707465720057
S9030000FC
