S02A0000617439306D6173736B6579626F6172647669727475616C73657269616C66617466732E737265631C
S1130000E0C00000FDC00000FBC00000F9C000001B
S1130010F7C00000F5C00000F3C00000F1C000000C
S1130020EFC00000EDC000000C9423300C94EF30BE
S1130030E7C00000E5C00000E3C00000E1C000002C
S1130040DFC000000C94B018DBC00000D9C0000071
S1130050D7C00000D5C00000D3C00000D1C000004C
S1130060CFC00000CDC00000CBC00000C9C000005C
S1130070C7C00000C5C00000C3C00000C1C000006C
S1130080BFC00000BDC00000BBC00000B9C000007C
S1130090B7C00000B5C0000052656164790D0A0064
S11300A0446973636F6E6E6563740D0A00436F6E0B
S11300B06E6563740D0A0068747470733A2F2F7739
S11300C077772E6672333370726F6A6563742E6F3E
S11300D072670D0A706F7765726564206279204CCF
S11300E055464120687474703A2F2F656C6D2D63EA
S11300F068616E2E6F72672F6673772F66662F3076
S113010030696E6465785F652E68746D6C20616E0D
S11301106420466174467320687474703A2F2F65A6
S11301206C6D2D6368616E2E6F72672F6673772F07
S113013066662F3030696E6465785F652E68746D0D
S11301406C0D0A0D0A005220256C692025690D0AE0
S1130150005720256C692025690D0A00534420624C
S11301606C6F636B733A20256C690D0A000D0A0DE0
S11301700A00666972737420534420736563746F54
S1130180723A0D0A006469736B5F696E6974696120
S11301906C697A6520737563636573730D0A007403
S11301A07279696E67202E2E2E206469736B5F69E5
S11301B06E697469616C697A650D0A000D0A0D0A2D
S11301C0000011241FBECFEFD0E2DEBFCDBF16E08A
S11301D0A0E0B1E0ECECFDE600E00BBF02C007904C
S11301E00D92A439B107D9F72DE0A4E9B6E001C016
S11301F01D92AE34B207E1F70E943A190C94E4362A
S1130200FFCE84B1806484B985B18F7B85B90895AC
S11302109091C80095FFFCCF8093CE000895CF93B2
S1130220DF93EC010FC08A3049F4909194069D301D
S113023029F08DE0EDDF8AE0EBDF01C0E9DF899191
S11302408093940688818111EECFDF91CF91089538
S1130250E6DF8FE894E0E3CF08951F93CF93DF9315
S1130260CDB7DEB761970FB6F894DEBF0FBECDBF32
S1130270182F81E1E7EAF1E0DE01119601900D9279
S11302808A95E1F7812F82958F70E1E0F0E0EC0F21
S1130290FD1FE80FF11D8081BBDF1F70E1E0F0E07E
S11302A0EC0FFD1FE10FF11D8081B2DF61960FB6E7
S11302B0F894DEBF0FBECDBFDF91CF911F9108959B
S11302C09F92AF92BF92CF92DF92EF92FF920F93E1
S11302D01F93CF93DF93EC015B01672B09F43CC0C0
S11302E0E12CF12C32C06E018FEFC81AD80A888134
S11302F0B4DF80E28DDFEFEFEE1AFE0AC7018F70E4
S11303009927892B29F0C501019708171907E1F4EA
S11303108E010F501109C0E0D0E010C0F8019080A8
S1130320892D90E00E944933892B19F0892D70DFC3
S113033002C08EE26DDF0F5F1F4F2196C031D105E1
S11303406CF38FE894E06BDFE6018701EA14FB04A9
S113035050F28FE894E063DFDF91CF911F910F910A
S1130360FF90EF90DF90CF90BF90AF909F90089553
S11303708EBD0DB407FEFDCF8EB508958FEFF8DF67
S11303808FEFF6DF8FEFF4DF8FEFF2DF8FEFF0DF29
S11303908FEFEEDF8FEFECDF8FEFEADF8FEFE8DF39
S11303A08FEFE6CF08958F929F92AF92BF92CF9234
S11303B0DF92EF92FF92CF93C82F4A015B01C12CC9
S11303C0D12C760118C08FEFD3DF8C17F1F08FEFAB
S11303D0C81AD80AE80AF80AC701B60128EE33E0B9
S11303E040E050E00E940C33672B682B692B19F412
S11303F088EB91E02DDFC814D904EA04FB0418F358
S113040081ED91E025DF80E001C081E0CF91FF9094
S1130410EF90DF90CF90BF90AF909F908F90089512
S11304208F929F92AF92BF92EF92FF920F931F937E
S1130430CF93DF934B015C017A0185B18E7F85B93F
S11304409DDF81E595DFD501C401072E7FE0B695D8
S1130450A795979587957A95D1F7702D89DFD50162
S1130460C401689416F8B695A79597958795169440
S1130470D1F77EDF882D880F7BDF80E079DF8FEF77
S113048077DF40EA56E861E070E080E08CDF8823A3
S1130490F1F040EA56E861E070E08EEF84DF81110C
S11304A00AC016C087010C0F1D1F8FEF61DFF80112
S11304B08083219602C0C0E0D0E0C115F2E0DF07DE
S11304C088F38FEF55DF8FEF53DF81E001C080E0C9
S11304D095B1916095B9DF91CF911F910F91FF90E4
S11304E0EF90BF90AF909F908F900895292F33275E
S11304F023303105C9F040F42130310509F447C0F7
S11305002230310561F006C021323105B1F12232C9
S11305103105C1F180E090E020E030E041C086E7A1
S113052090E029EC32E03CC02091460D3091470D1B
S11305302F3F310539F42091D40A2360206220939F
S1130540D40A05C02091D40A28602093D40A99279C
S11305508130910541F000F1029751F080E090E084
S113056020E030E01DC08AE090E029EB32E018C0C2
S11305708EE390E029E732E013C089E090E022EFB7
S113058032E00EC080E490E021E533E009C082E16E
S113059090E02FE333E004C084E090E025EC32E007
S11305A0FA013183208308958091D40A982F9A7296
S11305B09A3241F0982F9970913031F085FD06C040
S11305C082E0089580E0089581E0089580E0089530
S11305D0EBDF813041F0823019F08EE592E008952E
S11305E082E792E0089589E692E00895811103C0BC
S11305F00C94F91C089581E00895811103C00C94B2
S1130600301C089581E008950F931F93FB0181111D
S113061007C0BA01A901CF0198010E94FC1C01C0C6
S113062084E01F910F9108950F931F93FB01811193
S113063007C0BA01A901CF0198010E94461D01C05B
S113064084E01F910F910895811105C0862FBA018E
S11306500C94AE1D089584E008950C94AB20089585
S1130660FC01218130E0322F22278081A901482B0F
S1130670CA010895FC016381862F90E0A0E0B0E0F8
S1130680BA2FA92F982F88272281822BBA2FA92F1E
S1130690982F88272181822BBA2FA92F982F88275A
S11306A02081BC01CD01622B0895FC01608371831C
S11306B00895FC01408351836283738308958138D4
S11306C048F0803A50F0803E58F08D3F60F080E072
S11306D090E0089580E090E0089581E090E008952E
S11306E080E090E0089581E090E00895803458F02F
S11306F08F3760F0803810F08D3F58F0882361F018
S113070080E090E0089580E090E0089581E090E03A
S1130710089581E090E0089581E090E00895CF92FB
S1130720DF92EF92FF92FC019A01AB012250310952
S113073041095109C788D08CE18CF28C82E0C81A37
S1130740D108E108F1082C153D054E055F0568F454
S1130750C3A4D4A4E5A4F6A4A185B2850E943D3324
S11307606C0D7D1D8E1D9F1D03C060E070E0CB01EC
S1130770FF90EF90DF90CF900895CF92DF92EF92A9
S1130780FF920F931F93CF93DF938C01EB01CB0167
S11307904A9666DF6C01E12CF12CF80180818330EC
S11307A061F4CE0144965CDFA0E0B0E0DC0199275F
S11307B08827C82AD92AEA2AFB2AC701B601DF9169
S11307C0CF911F910F91FF90EF90DF90CF900895FC
S11307D0CF92DF92EF92FF920F931F93CF93DF9309
S11307E08C01EB0169017A01B901CE014A965DDF02
S11307F0F8018081833031F4B70188279927CE012D
S1130800449653DFDF91CF911F910F91FF90EF90AA
S1130810DF90CF900895CF93DF93EC01A881B98145
S1130820109749F1FD019F012F5F3F4F9081913255
S113083018F0F9019A33B9F79A33C9F44C9180ED61
S1130840840F8A3040F412962A173B0739F450E09B
S11308504053510905C042E050E002C042E050E07C
S1130860423051055CF439832883CA0109C0809160
S1130870950690E005C08FEF9FEF02C08FEF9FEFCA
S1130880DF91CF9108950F931F93CF93DF93EC01E2
S11308908B01892BA1F0E881F981309791F0808157
S11308A0882389F02A813B8185819681281739071D
S11308B061F481819BDE80FF0AC089E009C089E080
S11308C007C089E005C089E003C089E001C080E079
S11308D0811103C02881398102C020E030E0F80191
S11308E031832083DF91CF911F910F9108958F92CF
S11308F09F92AF92BF92EF92FF920F931F93CF9369
S1130900DF93FC0123812223C1F1EC017C01F3E399
S1130910EF0EF11C2FA538A949A95AA901E010E04E
S1130920B701898181DE81112AC01B820FA518A914
S113093029A93AA98BA19CA1ADA1BEA14801590145
S1130940881A990AAA0ABB0A8B8D9C8DAD8DBE8D1F
S113095088169906AA06BB06A0F46A81623099F447
S1130960A9019801280F391F4A1F5B1F01E010E0FD
S1130970B701898159DE80E007C080E005C081E0CD
S113098003C080E001C080E0DF91CF911F910F91FF
S1130990FF90EF90BF90AF909F908F9008958F92AB
S11309A09F92AF92BF92FF920F931F93CF93DF93C7
S11309B0EC014A015B018FA598A9A9A9BAA98417DA
S11309C09507A607B707D9F0CE0191DFF82E81115C
S11309D017C001E010E0A5019401BE016D5C7F4FDA
S11309E0898112DE882331F0FF24F39488248A94C9
S11309F0982C54018FA698AAA9AABAAA01C0F12CCE
S1130A008F2DDF91CF911F910F91FF90BF90AF90E9
S1130A109F908F900895EF92FF920F931F93CF931F
S1130A20DF93EC011B828FEF9FEFDC018FA798AB64
S1130A30A9ABBAABCE01B3DF811172C0CE018F5C1A
S1130A409D4F0EDE7C018BA98B3E29F0893E19F067
S1130A50883E09F05DC025E5E2162AEAF20661F453
S1130A6048E050E067EB73E0CE018B579F4F0E9444
S1130A704F33892B09F457C0CE01CE96F1DDFE0128
S1130A80E05CFF4F20818C010150110908231923D8
S1130A900115110509F03CC0811532E09307C0F13E
S1130AA081309240A8F5222399F1822F90E09C0195
S1130AB02150310982239323892B51F5CE018F5B79
S1130AC09F4FCEDD892B21F1FE01ED5BFF4F80812D
S1130AD090E001970297E0F4CE018C5B9F4FC0DD5C
S1130AE0892BB1F0CE018A5B9F4FBADD8038910526
S1130AF048F4CE018D5A9F4FBDDD611571058140CB
S1130B00910530F0CE01875B9F4FAADD892B81F4DC
S1130B1035E5E3163AEAF30649F402E010E008C0CA
S1130B2004E010E005C000E010E002C003E010E0C3
S1130B30C801DF91CF911F910F91FF90EF9008951D
S1130B40CF92DF92EF92FF920F931F93CF93DF9395
S1130B50CDB7DEB760970FB6F894DEBF0FBECDBF3A
S1130B606C017B0140E050E0BA0155DF8230910511
S1130B7051F108F05AC0E114F10409F456C000E040
S1130B8010E023C0C80182959295907F9827807FBA
S1130B9098278A539E4F96012D5C3F4F820F931FD7
S1130BA069DDF801EE0FFF1FEE0FFF1F21E030E0BB
S1130BB02C0F3D1FE20FF31F6083718382839383A5
S1130BC00F5F1F4F02C000E010E004301105D0F2A7
S1130BD0E114F10421F087010150110902C000E081
S1130BE010E0F801EE0FFF1FEE0FFF1F81E090E011
S1130BF08C0F9D1FE80FF91F408151816281738121
S1130C00411551056105710519F0C60104DF02C0E3
S1130C1083E090E0E114F10441F48230910528F07E
S1130C200F5F1F4F04301105E0F260960FB6F89481
S1130C30DEBF0FBECDBFDF91CF911F910F91FF900B
S1130C40EF90DF90CF9008952F923F924F925F9252
S1130C506F927F928F929F92AF92BF92CF92DF92C8
S1130C60EF92FF920F931F93CF93DF93CDB7DEB72D
S1130C702E970FB6F894DEBF0FBECDBF7B01D42EE6
S1130C80DB011D921C92C7DD8C0199230CF417C261
S1130C90FC01EE0FFF1FE856F94F208131813E879A
S1130CA02D872115310509F40CC2D7012D933C93EE
S1130CB0BD2DBE7FDB2EF9018081882359F081810F
S1130CC095DC80FD07C0DD2009F4FDC182FDFDC176
S1130CD080E01EC2AD85BE851C9211960C93802FB8
S1130CE08CDC80FDF4C1DD2011F082FDF2C160E0F6
S1130CF070E08D859E8524DF8430910509F4EBC175
S1130D00029708F0EAC1ED85FE8547A450A861A8C2
S1130D1072A8CF01CE96A4DC8115924009F0DFC100
S1130D208D859E85875B9F4F9BDC4C01A12CB12C4C
S1130D3081149104A104B10439F48D859E85895AE6
S1130D409F4F98DC4B015C01AD85BE855B968D920F
S1130D509D92AD92BC925E97FD01ED5BFF4FA08129
S1130D60ED85FE85A2838FEF8A0F823008F0B9C12A
S1130D70B0E0A50194010E943D336D837E838F838F
S1130D809887E05CFF4F008110E0AD85BE851A9620
S1130D901C930E9319970115110509F4A4C1C801F8
S1130DA0019780239123892B09F09FC1CD018C5B8E
S1130DB09F4F56DC1C01ED85FE85908787838F70DD
S1130DC09927892B09F093C1CF018A5B9F4F48DC97
S1130DD06C01E12CF12CC114D104E104F10439F4C7
S1130DE08D859E858D5A9F4F45DC6B017C018D85D9
S1130DF09E858F5B9F4F34DC009709F47AC19C0178
S1130E0040E050E029873A874B875C878D819E813B
S1130E10AF81B885820F931FA41FB51F910132952E
S1130E2022952F7023273F702327AC01BD01420F69
S1130E30531F611D711D49835A836B837C83C416C0
S1130E40D506E606F70608F456C1C701B60129819E
S1130E503A814B815C81621B730B840B950B980167
S1130E6040E050E00E940C33DA01C901211531053C
S1130E704105510509F441C1263F6FEF3607460786
S1130E806FE0560718F000E010E002C003E010E045
S1130E90863F7FEF9707A105B10510F402E010E04B
S1130EA0863F9F40A105B10510F401E010E0011553
S1130EB0110509F424C169017A01F2E0CF0ED11CB5
S1130EC0E11CF11CAD85BE855796CD92DD92ED9265
S1130ED0FC925A97FD01478E50A261A272A28985A5
S1130EE09A85AB85BC85840D951DA61DB71D83A36E
S1130EF094A3A5A3B6A349815A816B817C81440D37
S1130F00551D661D771D43A754A765A776A7033013
S1130F10110501F5CF01835A9F4FA2DB892B09F0FC
S1130F20F0C0232809F0EFC08D859E85815A9F4F1C
S1130F30A1DBAD85BE8597966D937D938D939C9330
S1130F409A97CC0CDD1CEE1CFF1CCC0CDD1CEE1C9B
S1130F50FF1C2EC0232809F4D8C02D813E814F8167
S1130F605885820F931FA41FB51FED85FE8587A3A7
S1130F7090A7A1A7B2A70230110529F4CC0CDD1C5F
S1130F80EE1CFF1C15C0A3E0B0E0A70196010E946F
S1130F903D33DC01CB01B695A79597958795F1E094
S1130FA0CF22DD24EE24FF24C80ED91EEA1EFB1E28
S1130FB02FEFC20E21E0D21EE11CF11C0B2EB9E072
S1130FC0F694E794D794C794BA95D1F7B02D8C14BE
S1130FD09D04AE04BF0408F49AC08FEF9FEFDC01B8
S1130FE0ED85FE858787908BA18BB28B8387948751
S1130FF0A587B68780E884830330110509F048C0CB
S1131000CF018D599F4F2CDB019709F041C0B301EB
S1131010A2014F5F5F4F6F4F7F4F8D859E85BFDC71
S1131020811136C0AD85BE8514961C921497CD01EE
S11310308F5C9D4F15DB85359A4A51F58D859E85CC
S1131040C39618DB623572458146914409F58D8556
S11310509E85895E9D4F0EDB6237724781449146BF
S1131060B9F48D859E85855E9D4F04DBAD85BE8577
S11310701F966D937D938D939C935297CD01815EC2
S11310809D4FF8DAED85FE8563877487858796879B
S1131090AD85BE850C938091960690919706019636
S11310A0909397068093960616969C938E93159725
S11310B0FD01138A148A158A168A80E029C08BE000
S11310C027C08CE025C080E023C08AE021C083E0F3
S11310D01FC08AE01DC081E01BC08DE019C08DE0F7
S11310E017C08DE015C08DE013C08DE011C08DE0F8
S11310F00FC08DE00DC08DE00BC08DE009C08DE008
S113110007C08DE005C08DE003C08DE001C08DE017
S11311102E960FB6F894DEBF0FBECDBFDF91CF91F0
S11311201F910F91FF90EF90DF90CF90BF90AF9001
S11311309F908F907F906F905F904F903F902F90F3
S113114008952F923F924F925F926F927F928F9267
S11311509F92AF92BF92CF92DF92EF92FF920F9342
S11311601F93CF93DF9300D000D0CDB7DEB74230CA
S113117051056105710508F4EAC0FC01C788D08CEB
S1131180E18CF28C4C155D056E057F0508F0E1C01D
S1131190280139016A017B019C838B838081823021
S11311A009F473C0833009F495C0813009F0D3C0C9
S11311B05A01B694A794A40EB51E43A154A165A1E7
S11311C076A1C501892F99278695480F591F611D5E
S11311D0711DCF01E4DB182F8111BEC02B813C812E
S11311E02D5C3F4F3A83298315013FEF231A330ABD
S11311F081E0B822E981FA81EA0DFB1D460157011D
S113120091E089229924AA24BB24C0FE08C020812D
S113121030E1439EC00111242F70822B01C0842D24
S1131220808381E0EB81FC81838343A154A165A188
S113123076A1C101892F99278695480F591F611DF1
S1131240711DCF01ACDB182F811186C0F1E03F2264
S1131250E981FA81E20DF31D89288A288B2849F057
S1131260689413F876946794579447941694D1F736
S113127006C09081907F852D8F70492E482A408228
S113128081E0EB81FC81838367C0EB81FC8143A116
S113129054A165A176A1BB27AF2D9E2D8D2D480F9E
S11312A0591F6A1F7B1FCF017ADB182F811154C08D
S11312B02B813C812D5C3F4FCC0CDD1CC6018E7F05
S11312C09170B201820F931FF0D981E0EB81FC8110
S11312D0838342C0EB81FC8143A154A165A176A123
S11312E0D701C601689416F8B695A7959795879582
S11312F01694D1F7480F591F6A1F7B1FCF014FDB8C
S1131300182F811129C0FFE07F228B819C81C39615
S1131310CC0CDD1CCC0CDD1C2CEFC22221E0D22233
S1131320C80ED91EC601A6D9DC01CB01882799278E
S1131330AA27B07FB301A201482B592B6A2B7B2B20
S1131340C601B7D981E0EB81FC81838305C012E03B
S113135003C012E001C012E0812F0F900F900F9094
S11313600F90DF91CF911F910F91FF90EF90DF903D
S1131370CF90BF90AF909F908F907F906F905F9031
S11313804F903F902F900895AF92BF92CF92DF92EB
S1131390EF92FF920F931F93CF93DF93FC01C081D1
S11313A0D181423051056105710508F4A0C08F89CF
S11313B0988DA98DBA8D481759076A077B0708F0DD
S11313C09BC06A017B018881823009F44EC083305E
S11313D009F469C0813009F094C08A011695079513
S11313E0040F151F4BA15CA16DA17EA1C801892F1B
S11313F099278695480F591F611D711DCE01CFDABB
S1131400811184C05801FFEFAF1ABF0A1170FE01A9
S1131410E00FF11F03A910E04BA15CA16DA17EA117
S1131420C501892F99278695480F591F611D711D84
S1131430CE01B5DA81116EC081E0B822CA0DDB1D80
S11314406BA970E0762F6627602B712BC0FE09C054
S1131450729562956F7067277F70672780E090E0D0
S113146064C07F7080E090E060C04BA15CA16DA17E
S11314707EA1BB27AF2D9E2D8D2D480F591F6A1FAE
S11314807B1FCE018CDA811149C0CE01C396A6011F
S1131490440F551F4E7F5170840F951FE1D8BC0136
S11314A080E090E042C04BA15CA16DA17EA1D70178
S11314B0C601689416F8B695A795979587951694DE
S11314C0D1F7480F591F6A1F7B1FCE0168DA8111BB
S11314D029C0E396A601440F551F440F551FCA01A6
S11314E08C7F91708C0F9D1FC5D89F701EC061E0CA
S11314F070E080E090E019C061E070E080E090E08E
S113150014C061E070E080E090E00FC06FEF7FEF07
S1131510CB010BC06FEF7FEFCB0107C06FEF7FEF05
S1131520CB0103C06FEF7FEFCB01DF91CF911F9110
S11315300F91FF90EF90DF90CF90BF90AF90089500
S11315404F925F926F927F928F929F92AF92BF92CF
S1131550CF92DF92EF92FF920F931F93CF93DF937B
S1131560EC016A017B01088119814115510580E272
S11315706807710508F0AAC0DB01CA018F719927B9
S1131580AA27BB27892B8A2B8B2B09F0A1C04E8756
S11315905F87688B798B8E809F80A884B98481143F
S11315A09104A104B10441F4F8018081833020F056
S11315B087A090A4A1A4B2A481149104A104B104AD
S11315C0F1F4F80187819085A0E0B0E0B701A601AD
S11315D0689414F876956795579547951694D1F7BE
S11315E0481759076A077B0708F074C087A190A5BC
S11315F0A1A5B2A58E8B9F8BA88FB98F3EC0F80191
S113160041845284612C712C032E39E0440C551C06
S1131610661C771C3A95D1F7302D22C0B501A40180
S1131620CE01B2DE4B015C016F3F7F4F8F4F9F4F66
S113163009F452C082E088169104A104B10408F4AC
S11316404DC0F8018789908DA18DB28D88169906B9
S1131650AA06BB0608F044C0C418D508E608F70873
S1131660C414D504E604F704C8F6B501A401C801FE
S113167056D86E8B7F8B888F998F8A8A9B8AAC8A87
S1131680BD8A8E899F89A88DB98D0097A105B10562
S113169049F1B701A601032E39E076956795579570
S11316A047953A95D1F7302D840F951FA61FB71F84
S11316B08E8B9F8BA88FB98F0D5C1F4FF1E0DF22BB
S11316C0C00ED11EDB8ECA8E80E00DC082E00BC03E
S11316D082E009C082E007C081E005C082E003C067
S11316E082E001C082E0DF91CF911F910F91FF90C2
S11316F0EF90DF90CF90BF90AF909F908F907F90AE
S11317006F905F904F9008954F925F926F927F9287
S11317108F929F92AF92BF92CF92DF92EF92FF92FD
S11317200F931F93CF93DF938C012A013B01FC019C
S1131730C081D181411551056105710599F48B84EE
S11317409C84AD84BE8481149104A104B10429F164
S11317508F89988DA98DBA8D88169906AA06BB061D
S113176008F524C011DE623071058105910508F485
S1131770F5C06F3FFFEF7F078F079F0709F4FFC096
S1131780CF88D88CE98CFA8C6C157D058E059F0565
S113179008F4F5C05301420109C0812C912C540175
S11317A0839404C0812C912C540183946F8578898F
S11317B089899A89611571058105910509F4DFC04C
S11317C084149504A604B70409F040C075016401AB
S11317D02FEFC21AD20AE20AF20A8F89988DA98DD4
S11317E0BA8DC816D906EA06FB0628F0C12CD12CFE
S11317F076016894C1F8B701A601C801C5DD61305E
S113180071058105910509F4BAC06F3FEFEF7E07BA
S11318108E079E0709F4B3C0672B682B692B19F157
S11318208B859C85AD85BE8582309105A105B1056A
S113183088F04F89588D698D7A8D84179507A6078E
S1131840B70760F0C12CD12C76010DC0C12CD12C6E
S1131850760109C0C12CD12C760105C04C015D0173
S1131860C12CD12C7601C114D104E104F104C1F5D9
S113187075016401FFEFCF1ADF0AEF0AFF0A8F89AF
S1131880988DA98DBA8DC816D906EA06FB0660F0B4
S113189022E082169104A104B10408F464C0C12CAE
S11318A0D12C76016894C1F8B701A601C8016CDD9A
S11318B0611571058105910599F061307105810506
S11318C0910509F45CC06F3FEFEF7E078E079E071A
S11318D009F455C0C814D904EA04FB0459F647C0F6
S11318E00FEF1FEF9801B701A601CE012ADC811189
S11318F00BC0411451046104710431F09701860155
S1131900B301A201CE011DDC811122C0CB86DC868D
S1131910ED86FE864F85588969897A898F89988DE5
S1131920A98DBA8D0297A109B10984179507A60755
S1131930B70740F041505109610971094F87588B2D
S1131940698B7A8B8C8181608C83C701B60117C047
S1131950813089F46FEF7FEFCB0111C061E070E05B
S113196080E090E00CC060E070E0CB0108C060E073
S113197070E0CB0104C061E070E080E090E0DF91B2
S1131980CF911F910F91FF90EF90DF90CF90BF9078
S1131990AF909F908F907F906F905F904F9008953D
S11319A04F925F926F927F92AF92BF92CF92DF92EB
S11319B0EF92FF920F931F93CF93DF935C016A0121
S11319C07B01B901A801FC01C081D181F2E0CF16ED
S11319D0D104E104F10408F45DC08F89988DA98DC8
S11319E0BA8DC816D906EA06FB0608F055C0012BC5
S11319F0022B032B39F00FEF1FEF9801CE01A1DB6F
S1131A00811151C0B701A601C501BEDC2B013C0107
S1131A10611571058105910509F440C061307105B6
S1131A2081059105E9F18FEF481658066806780696
S1131A30C9F100E010E09801B701A601CE0181DBF5
S1131A40811131C08F859889A989BA894F89588DA8
S1131A50698D7A8D6A017B01E2E0CE1AD108E10832
S1131A60F1088C159D05AE05BF0550F40196A11D26
S1131A70B11D8F87988BA98BBA8B8C8181608C83E5
S1131A8073016201441655066606770608F4BACF58
S1131A9080E009C082E007C082E005C080E003C0A6
S1131AA082E001C081E0DF91CF911F910F91FF90FF
S1131AB0EF90DF90CF90BF90AF907F906F905F904A
S1131AC04F9008950F931F93CF93DF93EC010881F8
S1131AD019814E895F89688D798DC8010E94CF0470
S1131AE0811107C0EA8DFB8D95EE908391E0F8019A
S1131AF09383DF91CF911F910F9108958F929F92BD
S1131B00AF92BF92CF92DF92EF92FF920F931F9307
S1131B10CF93DF937C014A015B010E94770481111A
S1131B2039C0B501A401C7010E948F034B015C01B8
S1131B30F70167A770AB81AB92AB6701F3E3CF0EFC
S1131B40D11C80E092E0F6019C01119221503040BA
S1131B50E1F7C0E0D0E001C02196F70181859285CC
S1131B60C817D90770F401E010E0A50194012C0F07
S1131B703D1F411D511DB60181810E94140388231C
S1131B8059F3F7012185328581E0C217D30719F48F
S1131B9080E001C081E0DF91CF911F910F91FF9010
S1131BA0EF90DF90CF90BF90AF909F908F9008956B
S1131BB04F925F926F927F92AF92BF92CF92DF92D9
S1131BC0EF92FF920F931F93CF93DF93FC01C08199
S1131BD0D181C684D784E088F18880E2C80ED11C04
S1131BE0E11CF11CC114D10480E2E806F10420F0E8
S1131BF0168A178A108E118E86899789A08DB18DC9
S1131C000097A105B10509F4B0C08B015F01B701CC
S1131C10A601517066277727452B462B472B09F0E1
S1131C2095C00196A11DB11D868B978BA08FB18F96
S1131C304289538964897589411551056105710586
S1131C40D1F48F819885A0E0B0E0B701A601689433
S1131C5014F876956795579547951694D1F74817D4
S1131C6059076A077B0708F471C0168A178A108E11
S1131C70118E84E087C089859A8501972C01612C97
S1131C80712CD701C601072E79E0B695A7959795D3
S1131C9087957A95D1F7702D84219521A621B721B6
S1131CA0892B8A2B8B2B09F051C0CF016DDB2B01C3
S1131CB03C01623071058105910508F458C08FEF2D
S1131CC0481658066806780609F453C08F89988D1B
S1131CD0A98DBA8D481659066A067B0640F1012B78
S1131CE039F4F501168A178A108E118E84E04AC0E1
S1131CF0F5014289538964897589C50105DD2B0184
S1131D003C016115710581059105A9F161307105E9
S1131D108105910591F18FEF4816580668067806FB
S1131D2071F1B301A201CE01E9DE81112AC0F501EE
S1131D30428A538A648A758AB301A201CE010E9441
S1131D408F03F501668B778B808F918FF501C686A3
S1131D50D786E08AF18AE396F1E0DF22CC0EDD1E1D
S1131D60F501D38EC28E80E00DC084E00BC082E00A
S1131D7009C081E007C087E005C082E003C081E0BC
S1131D8001C081E0DF91CF911F910F91FF90EF90FF
S1131D90DF90CF90BF90AF907F906F905F904F9007
S1131DA00895EF92FF921F93CF93DF93EC01E880A5
S1131DB0F98040E050E0BA01C3DB81112AC04E89AA
S1131DC05F89688D798DC7010E94CF04182F811116
S1131DD01CC0EA8DFB8D80818823C1F083858F73BD
S1131DE08C83838583FD0AC04BE050E0BE01645EB2
S1131DF07F4FCF010E944F33892B51F060E070E098
S1131E00CE01D6DE8823D9F204C003C084E001C029
S1131E10812FDF91CF911F91FF90EF900895CF9282
S1131E20DF92EF92FF920F931F93CF93DF93EC0116
S1131E306B01E880F98040E050E0BA0181DB811158
S1131E4020C000E010E04E895F89688D798DC7015C
S1131E500E94CF04811115C0EA8DFB8D9081953EBF
S1131E6011F0911106C00F5F1F4F0C151D0519F4D9
S1131E7008C000E010E061E070E0CE0199DE882344
S1131E8011F3843009F487E0DF91CF911F910F9112
S1131E90FF90EF90DF90CF900895EF92FF920F9311
S1131EA01F93CF93DF93EC017B010881198184E0B8
S1131EB025C0C8010E94CF0481112BC0EA8DFB8D7F
S1131EC09081992329F123852F732C83953E81F0EA
S1131ED09E3271F02F3061F030E02F7D41E050E010
S1131EE02830310511F040E050E04E155F0589F0CF
S1131EF060E070E0CE015CDE81110BC04E895F8929
S1131F00688D798D411551056105710591F601C002
S1131F1084E0882321F01E8A1F8A188E198EDF918F
S1131F20CF911F910F91FF90EF9008953F924F92A0
S1131F305F926F927F928F929F92AF92BF92CF9255
S1131F40DF92EF92FF920F931F93CF93DF933C01A5
S1131F502B01FB01C081D1815C01FCE1AF0EB11CFE
S1131F604BE050E060E270E0C5010E946533888177
S1131F708E3269F540E050E080E090E09C012F5FF4
S1131F803F4FFE01E80FF91F80818E3259F4233050
S1131F90310540F4F501E40FF51F8083C9014F5F5B
S1131FA05F4FECCF8F3229F08C3519F0813208F075
S1131FB0A4C0C20FD31FF201D183C083813210F4B5
S1131FC084E201C080E2F30187A380E0A3C0C12CB6
S1131FD0D12CE12CF12C6894882483F8912C87016E
S1131FE00F5F1F4FFE01EE0DFF1D3080F0E2F31571
S1131FF008F067C08FE2381631F09CE539120CC046
S113200002C00F5F1F4FFE01E00FF11F80818F326E
S1132010C1F38C35B1F355C0EEE23E1619F0C81485
S1132020D90498F0FBE08F16910409F468C08EE29D
S1132030381267C078016894CC24C3F8D12C0F2ED1
S1132040FBE08F2E912CF02DCACF832D0E945F03CD
S1132050892B01F192E0E90EF11CFE01E00FF11F62
S11320601081812F0E947603892B09F44CC0C4018E
S11320700197C816D90608F048C0F501EC0DFD1DFE
S11320803082F6013196EA0DFB1D82E0C80ED11CA8
S11320901083A5CF632D70E081E993E00E946C3337
S11320A0892BA9F58FE9830D8A3110F490EE390E4E
S11320B0F501EC0DFD1D3082F60131966F017801BA
S11320C08ECFC00FD11FF201D183C083CD2809F177
S11320D0F301848D853E11F485E0848FF0E2F315DD
S11320E028F48881813220F484E003C084E001C0B4
S11320F080E0F30187A380E00DC086E00BC086E09A
S113210009C086E007C086E005C086E003C086E01B
S113211001C086E0DF91CF911F910F91FF90EF9066
S1132120DF90CF90BF90AF909F908F907F906F90F3
S11321305F904F903F900895DF92EF92FF920F933C
S11321401F93CF93DF9300D0CDB7DEB78C01FB0193
S11321507A836983DC01ED90FC9080818F3281F079
S11321608C3571F0F70183899489A589B689F801C2
S113217086839783A087B18711C03196FA83E98358
S1132180E981FA8180818F32C1F38C35B1F3D801B2
S113219016961D921D921D921C921997E981FA813F
S11321A08081803250F480E8F80187A340E050E059
S11321B0BA01C801C5D9D82E46C0BE016F5F7F4F92
S11321C0C801B4DED82E81113EC0C801EADDD801B1
S11321D097969C919797882371F0843039F595FFF1
S11321E006C092FFEACF80E897968C932CC092FFAA
S11321F01FC0D82E28C092FD20C0F801848184FF1E
S11322001EC086859785A089B1899170B7016D5CE0
S11322107F4F680F791FC7010E94BD03D80116962E
S11322206D937D938D939C931997C7CFD82E0BC034
S11322300F2EF5E0DF2EF02D06C0D82E04C00F2E91
S1132240F5E0DF2EF02D8D2D0F900F90DF91CF91C3
S11322501F910F91FF90EF90DF9008950F931F93BC
S1132260CF93DF93EC010881198161E070E0D7DD41
S113227081111CC04E895F89688D798DC8010E94C7
S1132280CF04811113C0EA8DFB8D90E2DF011D9212
S11322909A95E9F7FE017C96AA8DBB8D9BE001908F
S11322A00D929A95E1F791E0F8019383DF91CF9134
S11322B01F910F910895CF92DF92FF920F931F9376
S11322C0CF93DF93EC010E947704F82E81115CC058
S11322D08881833009F04EC08C81813009F04AC076
S11322E080E092E06E0123E3C20ED11CF6019C0152
S11322F0119221503040E1F765E57AEACE018F5C16
S11323009D4F0E94550342E552E561E671E4C60122
S11323100E94590342E752E761E471E6CE01895E07
S11323209D4F0E9459034F85588969897A89CE0146
S1132330855E9D4F0E9459034B855C856D857E8526
S1132340CE01815E9D4F0E9459038F8D98A1A9A152
S1132350BAA19C01AD012F5F3F4F4F4F5F4F2FA795
S113236038AB49AB5AAB01E010E0B60189810E9459
S113237014031C8240E050E060E089810E94240341
S1132380882311F0FF24F3948F2DDF91CF911F91B7
S11323900F91FF90DF90CF9008951F93CF93DF9319
S11323A000D000D000D0CDB7DEB79C838B837E8372
S11323B06D83142F7A836983CE0101960E940B04E6
S11323C0992324F1FC01EE0FFF1FE856F94F019009
S11323D0F081E02D309709F01082EB81FC81309779
S11323E009F01082880F991FFC01E856F94F8B8180
S11323F09C8191838083112359F040E0BE016D5F7D
S11324007F4FCE0105960E94240603C08BE001C0D5
S113241080E026960FB6F894DEBF0FBECDBFDF91E5
S1132420CF911F9108952F923F924F925F926F9296
S11324307F928F929F92AF92BF92CF92DF92EF9250
S1132440FF920F931F93CF93DF93CDB7DEB7AE9771
S11324500FB6F894DEBF0FBECDBF7CA76BA7009765
S113246009F463C1042F9EA78DA7842F8F73582E60
S1132470482FBE01675D7F4FCE018B960E942406D4
S1132480182F81114AC189A59AA59A8389836BA5BE
S11324907CA5CE01019650DE182F811104C088A5B9
S11324A088230CF416E0802F8C7109F473C0112377
S11324B051F0143021F4CE010196D0DE182FE52D11
S11324C0E8605E2E09C08D81817119F402FD03C09C
S11324D003C017E001C018E0111169C053FE67C0C2
S11324E00E94DE234B015C018B8D9C8DB501A40100
S11324F00E960E9459038B8D9C8DB501A4014696BE
S11325000E945903AB8CBC8CC9A4DAA4B501C601E2
S11325100E94BD033B014C0180E2F50183876B8D72
S11325207C8D20E030E0A901C6010E94E8038B8D78
S11325309C8D40E050E0BA014C960E945903E9A5F5
S1132540FAA581E08383611471048104910479F113
S1132550C7A4D0A8E1A8F2A800E010E09801B40153
S1132560A301CE0101961CDA182F811120C0B701F6
S1132570A60189A59AA50E94CF04182FE9A5FAA55A
S1132580D401C3010197A109B10983879487A58761
S1132590B6870DC011110BC08D8184FD05C001FFEC
S11325A006C080FD03C003C014E001C017E0111190
S11325B015C053FE03C0F52DF0645F2EE9A5FAA5FE
S11325C087A590A9A1A9B2A9EDA5FEA5848F958F91
S11325D0A68FB78F8B8D9C8D91A380A311119DC065
S11325E06B8C7C8C29A43AA4B301C1010E94BD0365
S11325F04B015C01EDA5FEA56683778380879187F7
S1132600C3014C960E943A036B017C01EDA5FEA523
S1132610628773878487958731822082F10185815F
S11326209681EDA5FEA59383828356861786108E28
S1132630118E128E138E108A118A128A138A55FEF5
S11326406CC0C114D104E104F10409F466C0C08A69
S1132650D18AE28AF38AF10141845284612C712C7B
S1132660032E39E0440C551C661C771C3A95D1F7AF
S1132670302D19C0B501A4018DA59EA50E94C409E1
S11326804B015C01623071058105910508F412E08B
S11326908FEF88169806A806B80609F411E0C41846
S11326A0D508E608F708111105C04C145D046E0442
S11326B07F0400F3EDA5FEA5848A958AA68AB78ACD
S11326C011112BC0D701C6019170AA27BB27892BF2
S11326D08A2B8B2B11F1B501A40189A59AA50E941F
S11326E08F036115710581059105B1F00B2EB9E0D9
S11326F0F694E794D794C794BA95D1F7B02DDC013A
S1132700CB018C0D9D1DAE1DBF1DEDA5FEA5808FBB
S1132710918FA28FB38F01C012E0112341F0EDA578
S1132720FEA511821082812F03C089E001C0812F90
S1132730AE960FB6F894DEBF0FBECDBFDF91CF913A
S11327401F910F91FF90EF90DF90CF90BF90AF90CB
S11327509F908F907F906F905F904F903F902F90BD
S113276008952F923F924F925F926F927F928F9231
S11327709F92AF92BF92CF92DF92EF92FF920F930C
S11327801F93CF93DF93CDB7DEB728970FB6F89496
S1132790DEBF0FBECDBF7C013B015A014901F901E7
S11327A0118210828D83FE82BE016F5F7F4F0E9473
S11327B04304811128C1F7018785811124C18685CD
S11327C080FF20C182859385A485B5854089518980
S11327D062897389841B950BA60BB70BA50160E076
S11327E070E084179507A607B70708F005C15C01D8
S11327F003C1F70180899189A289B389AC01BD0124
S1132800517066277727452B462B472B09F0ACC020
S1132810E981FA810185128501501109AC01BD01DC
S1132820032E39E076956795579547953A95D1F7F4
S1132830302D042315230115110559F5892B8A2BF5
S11328408B2B31F4F701668177818085918509C0EE
S1132850F70144895589668977898D819E810E9413
S1132860C409623071058105910520F482E0F70105
S11328708787C9C06F3FFFEF7F078F079F0721F44A
S113288081E0F7018787BFC0F701648B758B868B66
S1132890978BF701448955896689778989819A815B
S11328A09C838B830E948F036115710581059105BB
S11328B021F482E0F7018787A6C01B012C01200EBA
S11328C0311E411C511C6501CD2CDD24C694C1145C
S11328D0D10409F444C0EB81FC8121853285C8010F
S11328E08C0D9D1D2817390718F46901C01AD10AE7
S11328F08601A2019101B301EB81FC8181810E94D7
S11329000403882321F081E0F70187877CC0E981F3
S1132910FA8183818823F9F087A590A9A1A9B2A996
S113292082199309A409B509A60160E070E084172F
S11329309507A607B70778F4F396282F220F288760
S11329401F82AF81B885A60DB71D80E092E001908B
S11329500D920197E1F7DC2CCC24DD0C35C0F70196
S1132960208E318E428E538EF70180899189A289FF
S1132970B389917020E032E06901C81AD90AAC1415
S1132980BD0408F46501F701408D518D628D738D8E
S113299089819A810E94CF04882321F081E0F70184
S11329A0878731C089819A819C012D5C3F4FF70153
S11329B080899189A289B3899170B901680F791FBF
S11329C0A601C3010E945C33AC18BD08F4018081E8
S11329D091818C0D9D1D918380836C0C7D1CF7016E
S11329E080899189A289B3898C0D9D1DA11DB11D7A
S11329F0808B918BA28BB38BA114B10409F0F9CE17
S1132A0080E001C087E028960FB6F894DEBF0FBEC1
S1132A10CDBFDF91CF911F910F91FF90EF90DF9089
S1132A20CF90BF90AF909F908F907F906F905F906A
S1132A304F903F902F9008952F923F924F925F9224
S1132A406F927F928F929F92AF92BF92CF92DF92BA
S1132A50EF92FF920F931F93CF93DF93CDB7DEB71F
S1132A6028970FB6F894DEBF0FBECDBF7C013B01A3
S1132A705A014901F901118210828D83FE82BE013F
S1132A806F5F7F4F0E944304811194C1F7018785D2
S1132A90811190C1868581FF8CC180899189A28929
S1132AA0B389AC01BD014A0D5B1D611D711D481741
S1132AB059076A077B0708F072C15C01A094B094BF
S1132AC06EC1F70180899189A289B389AC01BD01E6
S1132AD0517066277727452B462B472B09F004C1F5
S1132AE0E981FA810185128501501109AC01BD010A
S1132AF0032E39E076956795579547953A95D1F722
S1132B00302D042315230115110509F049C0892B23
S1132B108A2B8B2B91F4F7016681778180859185CF
S1132B20611571058105910589F440E050E0BA0111
S1132B308D819E810E94840B09C0F70144895589C7
S1132B40668977898D819E810E94840B6115710548
S1132B508105910509F427C161307105810591054D
S1132B6021F482E0F701878725C16F3FFFEF7F07DC
S1132B708F079F0721F481E0F70187871BC1F701C5
S1132B80648B758B868B978B268137814085518525
S1132B90232B242B252B21F466837783808791872D
S1132BA029813A81F90147A550A961A972A9F701C0
S1132BB0808D918DA28DB38D481759076A077B07C5
S1132BC049F4C9010E947704882321F081E0F701C8
S1132BD08787F0C0F7014489558966897789898197
S1132BE09A819C838B830E948F03611571058105F3
S1132BF0910521F482E0F7018787DCC01B012C01D9
S1132C00200E311E411C511C6501CD2CDD24C694BF
S1132C10C114D10409F445C0EB81FC8121853285BE
S1132C20C8018C0D9D1D2817390718F46901C01AB5
S1132C30D10A8601A2019101B301EB81FC8181815A
S1132C400E941403882321F081E0F7018787B2C032
S1132C5029813A81F90187A590A9A1A9B2A982196C
S1132C609309A409B509A60160E070E084179507EB
S1132C70A607B70790F4F82FFF0FF8871F82D90132
S1132C80D396EF81F885E60DF71D80E092E0019080
S1132C900D920197E1F7F9011382DC2CCC24DD0CB1
S1132CA056C0F70140895189628973898285938569
S1132CB0A485B585481759076A077B0780F08B817F
S1132CC09C810E947704882321F081E0F7018787A3
S1132CD071C0E981FA8127A630AA41AA52AAF70154
S1132CE0208E318E428E538EF70180899189A2897C
S1132CF0B389917020E032E06901C81AD90AAC1492
S1132D00BD0408F46501F701408D518D628D738D0A
S1132D1089819A810E94CF04882321F081E0F70100
S1132D20878748C029813A812D5C3F4FF70140894C
S1132D30518962897389CA019170A601B301820F16
S1132D40931F0E945C33E981FA8181E08383AC188C
S1132D50BD08F401808191818C0D9D1D9183808338
S1132D606C0C7D1CF70180899189A289B3898C0D33
S1132D709D1DA11DB11D808B918BA28BB38B4285B0
S1132D8053856485758584179507A607B70710F4DE
S1132D90DB01CA01F70182879387A487B587A11451
S1132DA0B10409F08ECEF70186858064868780E0C1
S1132DB001C087E028960FB6F894DEBF0FBECDBFE2
S1132DC0DF91CF911F910F91FF90EF90DF90CF9003
S1132DD0BF90AF909F908F907F906F905F904F9037
S1132DE03F902F9008958F929F92AF92BF92EF924F
S1132DF0FF920F931F93CF93DF9300D0CDB7DEB72D
S1132E008C01BE016F5F7F4F0E944304811143C058
S1132E10F801968596FF3FC00E94DE234B015C01BA
S1132E20F801448D558D668D778D89819A810E9434
S1132E30CF04811130C0F801E0A0F1A0F70183852F
S1132E4080628387F8012681378140855185B701E7
S1132E50808191810E94E803F8014285538564854D
S1132E607585C7014C960E945903B501A401C70199
S1132E7046960E94590360E070E0C70142960E94A2
S1132E80550389819A8121E0FC01238314DAF80136
S1132E9096859F7B96870F900F90DF91CF911F911E
S1132EA00F91FF90EF90BF90AF909F908F900895F7
S1132EB00F931F93CF93DF9300D0CDB7DEB78C0170
S1132EC092DF81110BC0BE016F5F7F4FC8010E946A
S1132ED04304811103C0F801118210820F900F90F6
S1132EE0DF91CF911F910F910895AF92BF92CF922E
S1132EF0DF92EF92FF920F931F93CF93DF93CDB79F
S1132F00DEB7C455D1090FB6F894DEBF0FBECDBFEE
S1132F1065969FAF8EAF659742E0BE016F5A7F4FB3
S1132F20CE018D5A9F4F0E942406182F81117BC019
S1132F3063968EAD9FAD63979A83898365966EADD4
S1132F407FAD6597CE010196F7D8182F811103C084
S1132F5088A585FD16E0111166C088A5882324F094
S1132F608D8180FD03C003C016E001C017E011117C
S1132F7035C06B8D7C8D6396AEACBFAC6397C501D9
S1132F800E94BD036B017C018D8184FF2CC0F5017F
S1132F9083899489A589B689C816D906EA06FB06E9
S1132FA009F1BAA6A9A6CFA6D8AAE9AAFAAA40E026
S1132FB050E0BA01CE0189960E94A00A182F81110F
S1132FC012C060E070E0CE0189960E944D0F81111D
S1132FD001C087E0843039F0182F05C0C12CD12CF2
S1132FE0760101C017E011111EC0CE0101960E94A6
S1132FF0620D182F81110FC0C114D104E104F10432
S113300051F000E010E09801B701A601CE0101964D
S11330100E94D00C182F111106C063968EAD9FAD7F
S1133020639749D9182F812FCC5ADF4F0FB6F894E4
S1133030DEBF0FBECDBFDF91CF911F910F91FF90E7
S1133040EF90DF90CF90BF90AF9008958FEF82B94B
S113305085B988B98BB981BB10928000E1E8F0E0B2
S11330601082808188608083AFE6B0E08C918260BA
S11330708C9380E29EE49093890080938800808101
S1133080826080837894089580914E0D90914F0DC5
S1133090A091500DB091510D880F991FAA1FBB1F0D
S11330A0181619061A061B0644F025EB822725E993
S11330B092272AEAA22720E2B22780934E0D90930A
S11330C04F0DA093500DB093510D2091B40631E0F3
S11330D0320F3093B406820F0895EF92FF920F934C
S11330E01F93CF93DF937C018B018091B3068111F1
S11330F01BC081E08093B306C0E0D0E012C0C4DFFF
S1133100FE01ED55F94F99E3899F912D1124969570
S1133110292F220F220F220F920F891B8F5C80838D
S11331202196C031D10558F380E090E00FC0FC0136
S1133130EE0FFF1FEE0DFF1DDC01AF70BB27AD5579
S1133140B94F2C9130E03183208301968017910789
S113315070F3DF91CF911F910F91FF90EF9008953D
S11331601F920F920FB60F9211240BB60F922F934A
S11331703F934F935F936F937F938F939F93AF93FB
S1133180BF93EF93FF938091D50A9091D60A01964D
S11331909093D60A8093D50A0E942D03FF91EF9154
S11331A0BF91AF919F918F917F916F915F914F915B
S11331B03F912F910F900BBE0F900FBE0F901F9059
S11331C0189584B7877F84BF0FB6F894A89580912B
S11331D06000886180936000109260000FBE90E0F0
S11331E080E80FB6F89480936100909361000FBE5D
S11331F02DDF87E690E09093CD008093CC0086E0AD
S11332008093CA001092C80088E18093C9008AB1F3
S113321088608AB98BB184608BB984ED93E00E9495
S11332207F2780E090E00E948C2782E694E00E9451
S1133230C03387EB90E09F938F930E9499330E9451
S113324001010E94CD258AB1806C8AB98BB18F733C
S11332508BB98AB18F7D8AB98BB180628BB98DB1FC
S11332608B7F8DB98EB184608EB90E9407300F9028
S11332700F900895CF93DF93CDB7DEB7C456D1092D
S11332800FB6F894DEBF0FBECDBF9BDF65EB76E0D3
S113329080E391E00E94B4288BB18F7380648BB972
S11332A07894D12C01E010E08BE591E00E94A02CF1
S11332B08BE491E00E94D62A80E391E00E9470287A
S11332C07C0199235CF080912D01803239F4C7018F
S11332D00E944933892B11F0E0922D0178012FEFE0
S11332E0E21AF20A81E090E00F3FAFE91A0710F406
S11332F080E090E04FEF5FE9849F9001859F300D5F
S1133300949F300D11240217130709F04AC0FE01DF
S1133310319684E6DF011D928A95E9F78091A20631
S11333208233C9F40E94E8029F938F938AE794E062
S11333309F938F9385EB96E09F938F930E947733AF
S11333408091A2068F5F8093A2060F900F900F903A
S11333500F900F900F908091A206823318F48F5F24
S11333608093A206CC24C394CD0C1F92DF9280914B
S11333702D011F928F9382E994E09F938F938E0186
S11333800F5F1F4F1F930F930E94F033B80180E328
S113339091E00E94CA270FB6F894DEBF0FBECDBFDE
S11333A0DC2C80E391E00E9458280E940A338701B4
S11333B07BCF8DEA90E09F938F930E9499338BB1DA
S11333C08F7380688BB90F900F90089580EA90E016
S11333D09F938F930E9499338BB18F7380648BB9C1
S11333E00F900F900895CF9388E990E09F938F9367
S11333F00E9499338BE491E00E94C22AC82F8BE586
S113340091E00E94862CC82380E391E00E94A827C3
S1133410E2EEF0E09081946090830F900F90CC23C3
S113342021F0882311F090EC01C090E48BB18F73EC
S1133430892B8BB9CF9108958BE591E00E94482C9C
S11334408BE491E00E946B2980E391E00C94C828FE
S11334500895CF93DF93EC018091A106811111C0EF
S113346081E08093A1060E94E8029F938F938AEDE6
S113347094E09F938F930E9486330F900F900F9048
S11334800F908091CB06811104C08BB18F7380683B
S11334908BB9CE010E9487239091CB06911103C072
S11334A09BB1906C9BB9DF91CF91089580915901A4
S11334B090915A01009729F0019790935A018093B3
S11334C0590108950F931F93CF93DF93E90149B1F5
S11334D08CB14095407280958470482BE0919F0692
S11334E0F091A0063196F093A006E0939F069F0109
S11334F0A3E9B2E70E942E330024880F991F001C11
S1133500880F991F001C892F902D5FE8589F900108
S1133510599F300D1124E217F30721F41092A006ED
S113352010929F0680919E06882319F018821092AB
S11335309E06842F807291F142FF30C082E088831E
S113354087E08A8391E090939E068BB1806C8BB95F
S11335509093CB060E94D402813059F018F0823047
S113356079F015C08CE191E090939D0680939C06C0
S11335704EC08DE091E090939D0680939C0647C0D9
S113358080E091E090939D0680939C0640C08CE17E
S113359091E090939D0680939C0639C042FF0AC037
S11335A085E18A838BB18F7380648BB981E08093CA
S11335B0CB062DC0882351F08AE08A838BB18F73A8
S11335C080688BB981E08093CB0621C08091CB06C3
S11335D0882329F01092CB068BB18F738BB9E091BD
S11335E09C06F0919D068081811105C010929D0674
S11335F010929C060CC020919F063091A006232BAC
S113360031F48A833196F0939D06E0939C0688E01A
S113361090E0F8019183808380E0DF91CF911F9146
S11336200F9108958091CB0681110CC0F90190810E
S113363090FD80E491FD806892FD806C9BB19F7346
S1133640892B8BB9089508951CBC84B18B7F84B9F0
S113365085B18B7F85B908958EBD0DB407FEFDCF6E
S11336608EB50895FC0101C0F9018FEF8EBD0DB434
S113367007FEFDCF8EB580838FEF8EBD0DB407FEA0
S1133680FDCF9F012E5F3F4F8EB58183625071093C
S113369059F70895FC0101C0F90180818EBD0DB474
S11336A007FEFDCF9F012E5F3F4F81818EBD0DB47C
S11336B007FEFDCF6250710979F708959C01ADECC6
S11336C0BCEC0E942E339695879596958795969592
S11336D08795F8949093CE068093CD0678948FEFD7
S11336E0BBDFF8942091CD063091CE0678948F3FBD
S11336F011F0232BA1F791E08F3F09F090E0892F7F
S113370090E0089585B1816085B98FEFA5CF0895C4
S1133710CF93DF9385B18E7F85B98FEF9DDF84EFE3
S113372091E0CCDFEC01892B11F4ECDF02C0C1E0A5
S1133730D0E0CE01DF91CF9108950F931F93CF93E3
S1133740DF93EC018B0184E18093CF068FEF84DF5C
S11337508F3F21F49091CF069111F8CF8E3F51F411
S1133760B801CE017FDF8FEF77DF8FEF75DF81E068
S113377090E002C080E090E0DF91CF911F910F9123
S113378008950F931F93CF938C01C62F84EF91E07C
S113379095DF0097C1F08C2F5FDFCD3F91F060E0A3
S11337A072E0C80177DF8FEF57DF8FEF55DF8FEFC0
S11337B053DF8F7191E0853009F090E0892F90E01C
S11337C002C081E090E0CF911F910F910895FF9284
S11337D00F931F93CF93DF93C82FD42F152F062F4A
S11337E0F72E882344F4CF7740E050E0BA0187E312
S11337F0EEDF823038F5CC3021F084DF89DF892B8D
S113380001F18C2F806428DF8F2D26DF802F24DFA9
S1133810812F22DF8D2F20DFCC2311F081E001C026
S113382085E9C83009F487E817DFCC3011F48FEF4D
S113383013DFCAE08FEF10DF882324F4C150D1F7DF
S113384001C08FEFDF91CF911F910F91FF900895E9
S113385087E085B984B1876084B983E58CBD089518
S1133860EF92FF920F931F93CF93DF9300D000D07A
S1133870CDB7DEB7E9DE8AE08093CF068091CF062C
S11338808111FCCF8091940181FF03C08091940148
S1133890A5C0DEDF82E58CBD1AE003C08FEFDCDE5D
S11338A011501111FBCF40E050E0BA0180E08FDFEE
S11338B0813009F076C084E68093CF064AEA51E06D
S11338C060E070E088E083DF813009F046C00DC01D
S11338D0E02EF12C8FEFC0DEE1E0F0E0EC0FFD1FF5
S11338E0EE0DFF1D80830F5F01C0012F043080F3B4
S11338F08B81813009F057C08C818A3A09F055C018
S11339008091CF06882341F040E050E060E070E40D
S113391089EA5DDF8111F4CF8091CF06882309F411
S113392046C040E050E0BA018AE351DF882371F0D9
S113393010E044C0E12EF12C8FEF8EDEE1E0F0E0E8
S1133940EC0FFD1FEE0DFF1D80831F5F143090F3FD
S1133950898186FF2EC018E131C040E050E0BA01F1
S113396089EA35DF823018F414E009EA02C011E074
S113397001E08091CF06882339F040E050E0BA019D
S1133980802F25DF8111F5CF8091CF06882399F010
S113399040E052E060E070E080E119DF81110DC089
S11339A00DC010E00BC010E009C010E007C010E02B
S11339B005C018E003C010E001C010E01093CC066D
S11339C0A1DE112341F0809194018E7F80939401B4
S11339D080E58CBD01C038DE809194010F900F907A
S11339E00F900F90DF91CF911F910F91FF90EF9067
S11339F00895809194010895FF920F931F93CF939C
S1133A00DF938C01E9012097C1F18091940180FD3D
S1133A1036C08091CC0684FD09C0032E39E0440FE2
S1133A20551F661F771F3A95D1F7302DC230D10547
S1133A3028F00F2EF2E1FF2EF02D04C00F2EF1E13D
S1133A40FF2EF02D8F2DC3DE811111C060E072E0D6
S1133A50C80173DE892B19F01E5F2197B9F782E143
S1133A60F81205C040E050E0BA018CE0B0DE4ADE56
S1133A7081E0CD2B29F480E003C084E001C083E021
S1133A80DF91CF911F910F91FF900895CF92DF9214
S1133A90EF92FF920F931F93CF93DF938C016A01F0
S1133AA07B01E901209709F44BC08091940180FDCA
S1133AB049C08091940182FD47C08091CC0684FD69
S1133AC009C00B2EB9E0CC0CDD1CEE1CFF1CBA9512
S1133AD0D1F7B02DC130D10561F4B701A60188E159
S1133AE076DE811127C06EEFC8014BDE892BE9F425
S1133AF021C08C7029F0AE0160E070E087E967DED8
S1133B00B701A60189E163DE811114C06CEFC8011D
S1133B1038DE892B19F01E5F2197C1F76DEF80E025
S1133B2090E02FDE892B21F005C0C0E0D0E002C078
S1133B30C1E0D0E0E7DD81E0CD2B39F480E005C0C1
S1133B4084E003C083E001C082E0DF91CF911F9144
S1133B500F91FF90EF90DF90CF900895AF92BF92B6
S1133B60CF92DF92EF92FF920F931F93CF93DF9345
S1133B70CDB7DEB760970FB6F894DEBF0FBECDBFEA
S1133B808B019091940190FDD2C2833309F447C113
S1133B9080F4833009F4A4C028F48823F1F0813040
S1133BA029F1C7C2873009F498C1823309F431C1BD
S1133BB0C0C2863309F47AC138F4843309F444C1A9
S1133BC0853309F456C1B5C2883309F4FEC108F43B
S1133BD08CC1893309F460C2ACC29ADD892B11F41B
S1133BE011E001C010E08EDD812FA4C240E050E05E
S1133BF0BA0189E0ECDD81116DC060E170E0CE01B5
S1133C0001969BDD892B09F467C08981829586958D
S1133C1086958370813031F58A85298530E0322F8D
S1133C202227280F311D88858F7390E0A0E0B0E033
S1133C30DC0199278827820F931FA11DB11D0196CE
S1133C40A11DB11D072E7AE0880F991FAA1FBB1F63
S1133C507A95D1F7702DF80180839183A283B38381
S1133C6010E03BC02E819B85991F9927991F8A8557
S1133C702F70290F8370880F280F2E5F3985888550
S1133C8090E0880F991F880F991F329536953695C5
S1133C903370AC01430F511D9F819370892F90E0C5
S1133CA0982F8827990F990F840F951F0196A0E0EC
S1133CB0B0E030E02950310904C0880F991FAA1FD1
S1133CC0BB1F2A95D2F7F80180839183A283B38323
S1133CD010E003C011E001C011E014DD812F2AC2FD
S1133CE08091CC0683FF31C040E050E0BA018DE8FA
S1133CF06EDD811186C08FEFAFDC60E170E0CE0134
S1133D0001961BDD892B31F411E080C08FEFA4DC18
S1133D10FA9404C00F2EF0E3FF2EF02DF110F6CF2D
S1133D202B8522952F7080E190E0A0E0B0E004C0E4
S1133D30880F991FAA1FBB1F2A95D2F7F801808309
S1133D409183A283B38310E061C040E050E0BA01E4
S1133D5089E03DDD811157C060E170E0CE0101963C
S1133D60ECDC892B09F451C08091CC0682FF1FC082
S1133D708B858F7390E0880F991F2C8527FD019602
S1133D8001962E85229526952695237030E02150A4
S1133D90310902C0880F991F2A95E2F7A0E0B0E02C
S1133DA0F80180839183A283B38310E02FC08B85B5
S1133DB08C7790E0959587959595879501964C8598
S1133DC0242F237030E0220F331F220F331F220FC2
S1133DD0331F429546954770240F311D2F5F3F4F87
S1133DE0289FA001299F500D389F500D1124CA010E
S1133DF0A0E0B0E0F80180839183A283B38310E054
S1133E0005C011E003C011E001C011E07BDC812F8B
S1133E1091C18091CC06DB018C9380E08BC140E0A2
S1133E2050E0BA0189E0D3DC811108C060E170E0A0
S1133E30C80183DC892B21F411E003C011E001C027
S1133E4010E060DC812F76C140E050E0BA018AE0E6
S1133E50BEDC811108C060E170E0C8016EDC892B12
S1133E6021F411E003C011E001C010E04BDC812F0C
S1133E7061C140E050E0BA018AE3A9DC882369F01B
S1133E8011E011C06801BFEFCB1ADB0A8FEFE4DB4E
S1133E90F8018083FA94860103C06894FF24F2F841
S1133EA0F110F0CF10E02EDC812F44C140E050E04F
S1133EB0BA018DE88CDC81110AC08FEFCDDB60E4A0
S1133EC070E0C8013ADC892B21F411E003C011E051
S1133ED001C010E017DC812F2DC1B6DB8091940165
S1133EE081608093940180E025C1DB014C9150E016
S1133EF060E070E0032E3CE1440F551F661F771FFE
S1133F003A95D1F7302D13968D919D910D90BC91DA
S1133F10A02D072E79E0880F991FAA1FBB1F7A9541
S1133F20D1F7702D482B592B6A2B7B2BF8018181FB
S1133F30928101979170A0E0B0E0482B592B6A2B35
S1133F407B2B706880E343DC811139C084E6809365
S1133F50CF068FEF81DB8F3F21F49091CF06911133
S1133F60F8CF8E3F71F5D8011796CD90DC90189755
S1133F701196ED90FC9012970CC05601BFEFAB1A4E
S1133F80BB0A8FEF69DBF6018083F1E0EF1AF108D9
S1133F906501E114F10489F7D80111968D919C9182
S1133FA0129702E012E0081B190B04C08FEF54DBD8
S1133FB00150110901151105C9F710E003C011E002
S1133FC001C011E09FDB812FB5C0FB01408150E0AF
S1133FD060E070E0032E3CE1440F551F661F771F1D
S1133FE03A95D1F7302D83819481A581B681072E2E
S1133FF079E0880F991FAA1FBB1F7A95D1F7702DFE
S1134000482B592B6A2B7B2B8181928101979170CC
S1134010A0E0B0E0482B592B6A2B7B2B706881E31E
S1134020D6DB811133C08FEF17DB8EEF15DBD801A0
S11340301796ED91FC9118971196ED90FC901297BC
S11340400AC06F01BFEFCB1ADB0A808105DBE1E018
S1134050EE1AF108F601E114F10499F7D80111966A
S11340608D919C91129702E012E0081B190B04C079
S11340708FEFF2DA0150110901151105C9F78FEF1D
S1134080EBDA8F71853021F011E003C011E001C03B
S113409010E038DB812F4EC0FB01408150E060E02E
S11340A070E0032E3CE1440F551F661F771F3A95BD
S11340B0D1F7302D83819481A581B681072E79E0D3
S11340C0880F991FAA1FBB1F7A95D1F7702D482B13
S11340D0592B6A2B7B2B828190E0A0E0B0E0482B27
S11340E0592B6A2B7B2B746881E371DB811119C016
S11340F08FEFB2DA8EEFB0DAD80111968C91ACDA88
S113410001E012E004C08FEFA7DA01501109011594
S11341101105C9F78FEFA0DA8F71853021F011E016
S113412003C011E001C010E0EDDA812F03C083E089
S113413001C084E060960FB6F894DEBF0FBECDBF19
S1134140DF91CF911F910F91FF90EF90DF90CF906F
S1134150BF90AF9008958091CF06882319F08150C5
S11341608093CF068091CD069091CE06882331F0BE
S1134170815090E09093CE068093CD06089584E01C
S113418090E002C023B101970097E1F7089584B14C
S11341908E7F84B9F4DF84B18D7F84B9F0DF84B17C
S11341A0816084B9ECDF84B1826084B9E8CF08957A
S11341B084B1816084B9E3DF84B18D7F84B9DFDFAA
S11341C084B18E7F84B9DBCF0895CF93DF93D82F4A
S11341D0C0E88C2F8D2321F084B18E7F84B903C075
S11341E084B1816084B9CBDF84B18D7F84B9C7DFAA
S11341F084B1826084B9C3DFC69559F784B18E7FD8
S113420084B9BDDF84B18D7F84B9C3B181E0C8278F
S1134210C170B5DF84B1826084B9B1DF8C2F90E0C6
S1134220DF91CF9108950F931F93CF93DF938C0168
S1134230C1E0D0E0CC0FDD1F84B18D7F84B9189923
S113424021969DDF84B1826084B999DFCF3FD10587
S113425089F380F3012B21F084B1816084B903C018
S113426084B18E7F84B98BDF84B18D7F84B987DF7D
S113427084B1826084B984B18E7F84B980DF8C2F4D
S1134280DF91CF911F910F910895CF92DF92EF921A
S1134290FF920F931F93CF93DF93182F062F7A016A
S11342A06901452B79F1CAE0D0E071DF812F8DDF00
S11342B0892B11F42197C9F7CD2BE9F0802F85DFE5
S11342C0892BC9F064DF812F81607FDF892B99F00E
S11342D081E0E81AF108E601219681E090E0E1141A
S11342E0F10411F480E090E09EDFF60180836E011A
S11342F0E114F10469F75CDF81E0EF2809F080E064
S113430090E002C080E090E0DF91CF911F910F9187
S1134310FF90EF90DF90CF9008950F931F93CF936A
S1134320DF93CDB7DEB728970FB6F894DEBF0FBE84
S1134330CDBF8C019E012F5F3F4F47E050E060E00E
S113434070E080EDA2DF009709F460C08981982FA6
S113435092959F709770990F292F220F220F920F19
S11343608F70890FF80187838A81982F92959F70A7
S1134370990F292F220F220F920F8F70890F868396
S11343809B81892F82958F708370880F282F220F2D
S1134390220F820F292F2F70820F858397709483A9
S11343A08D81982F92959F709370990F292F220FCA
S11343B0220F920F8F70890F83838E8184FB99273C
S11343C090F9990F292F220F220F920F8F70890FC6
S11343D082839F81492F4F7050E04053584F9295EC
S11343E09F70892F90E0BC01660F771F9C01220FFC
S11343F0331F220F331F220F331FCB01820F931F52
S1134400840F951F9183808381E090E028960FB6F6
S1134410F894DEBF0FBECDBFDF91CF911F910F91F6
S11344200895DC01E1EFF0E0108210821082108226
S1134430E8EEF0E090819E77908354964D915D91E3
S11344406D917C91579744505109610971095496B3
S11344504D935D936D937C93579781E00895EF920C
S1134460FF920F931F93CF93DF938C01FC01C78DB1
S1134470DC2FC33108F0D2E1ED2EF12C40E050E006
S1134480B70185E991E00E945B2D8C2F90E060E0FC
S113449070E08E199F090E941D2DE8EEF0E08081E6
S11344A08E778083F80184899589A689B7898D1BC5
S11344B09109A109B109848B958BA68BB78B81E0F7
S11344C0DF91CF911F910F91FF90EF900895EF929C
S11344D0FF920F931F93CF93DF93FC01868D978DEB
S11344E0092F182F78010532110528F00F2EF4E258
S11344F0EF2EF12CF02D848D837019F4858D882393
S113450069F0E7E9F1E08081807F85608083E5E9F7
S1134510F1E084E28487158680E021C0EF0140E069
S113452050E0B70180EF94E00E945B2D60E070E002
S1134530C8018E199F090E941D2DE8EEF0E08081CC
S11345408E7780838C899D89AE89BF898E199F0956
S1134550A109B1098C8B9D8BAE8BBF8B81E0DF9160
S1134560CF911F910F91FF90EF9008950F931F9398
S1134570CF93DF93CDB7DEB728970FB6F894DEBF9D
S11345800FBECDBF8C01C0D2DC01CB010197A109C4
S1134590B10989839A83AB83BC8380E092E0A0E075
S11345A0B0E08D839E83AF83B88740E050E064E041
S11345B070E0CE0101960E94A42D40E050E064E03A
S11345C070E0CE0105960E94A42DE8EEF0E0808113
S11345D08E778083F80184899589A689B78908979D
S11345E0A109B109848B958BA68BB78B81E02896A2
S11345F00FB6F894DEBF0FBECDBFDF91CF911F91F0
S11346000F910895CF93DF93FC01248D22FD0DC0FB
S1134610E7E9F1E08081807F85608083E5E9F1E06E
S113462084E28487158680E013C0EC014BD48111A9
S11346300BC0E7E9F1E09081907F94609083E5E915
S1134640F1E01486158604C01C8A1D8A1E8A1F8AFE
S1134650DF91CF910895BF92CF92DF92EF92FF92B4
S11346600F931F93CF93DF93EC01B62E8D8D9E8D08
S11346702F8D38A1C32ED22EE92EF82E8AA19BA10C
S1134680092F182F41D2C616D706E806F90668F096
S1134690E7E9F1E08081807F85608083E5E9F1E0EE
S11346A081E28487158680E028C0BB2031F0980120
S11346B0B701A601CE0175D305C09801B701A601C3
S11346C0CE0102D3C801A0E0B0E0072E79E0880F44
S11346D0991FAA1FBB1F7A95D1F7702D4C895D894C
S11346E06E897F898A019B01081B190B2A0B3B0BDE
S11346F00C8B1D8B2E8B3F8B81E0DF91CF911F9113
S11347000F91FF90EF90DF90CF90BF900895FC0140
S1134710938D9D3121F168F49231C1F028F49923ED
S113472061F19330B1F02FC09A3121F19B3129F11D
S11347302AC09832D9F028F49E31F9F0953261F00C
S113474022C09A3279F09F32C1F01DC0CF01BFDE82
S113475026C0CF0184DE23C0CF0108DF20C0CF01F3
S113476051DF1DC060E0CF0176DF19C061E0CF01E9
S113477072DF15C0CF0155DE12C0148A158A168A5D
S1134780178A81E00CC0E7E9F1E08081807F8560D1
S11347908083E5E9F1E080E28487158680E0882360
S11347A059F0E7E9F1E08081807F8083E5E9F1E079
S11347B01486158681E0089580E00895CF93DF93F1
S11347C0CDB7DEB728970FB6F894DEBF0FBECDBFC6
S11347D080912C0D882309F461C0CE0101969DDDE2
S11347E049815A814C5B574060E070E0032E39E107
S11347F0440F551F661F771F3A95D1F7302D8B81D3
S113480090E0A0E0B0E0072E75E1880F991FAA1F81
S1134810BB1F7A95D1F7702D482B592B6A2B7B2B14
S11348208C8190E0A0E0B0E0DC0199278827482B38
S1134830592B6A2B7B2B8E8190E0A0E0B0E0072EF1
S11348407BE0880F991FAA1FBB1F7A95D1F7702DA3
S1134850482B592B6A2B7B2B8F8190E0A0E0B0E092
S1134860880F991FAA1FBB1F880F991FAA1FBB1F60
S1134870880F991FAA1FBB1F880F991FAA1FBB1F50
S1134880880F991FAA1FBB1F842B952BA62BB72B10
S113489028852695BC01CD01622B03C060E070E041
S11348A0CB0128960FB6F894DEBF0FBECDBFDF91C3
S11348B0CF910895DF92EF92FF920F931F93CF93BE
S11348C0DF93CDB7DEB7C754D3400FB6F894DEBF3D
S11348D00FBECDBF88E7FE013196DF01982F1D92F0
S11348E09A95E9F7E555FD4FDF011D928A95E9F7A1
S11348F084E195E00E94C03340E061E974E0CE01B8
S113490087589F4F0E94CD118111E9C081E295E043
S11349100E94C03389E690E00E94CE361F928F93A6
S11349200F2EF4E3EF2EF5E0FF2EF02DFF92EF9221
S11349308E010F5F1F4F1F930F930E94F0331F933D
S11349400F9382E495E09F938F930E948633C8016E
S11349500E94751789E690E00E94CE360F2EF3E090
S1134960DF2EF02DD80E88E7F80111928A95E9F729
S11349701F92DF92FF92EF921F930F930E94F033E6
S11349801F92DF9280E695E09F938F93CE0184552A
S11349909D4F9F938F930E94F0336D2D89E690E095
S11349A00E94D6361F930F938BE795E09F938F93C6
S11349B00E9486334BE0B801CE018C5D9C4F0E946F
S11349C01312F82E0FB6F894DEBF0FBECDBFF11050
S11349D080C089E895E00E94C0338DE995E00E948B
S11349E0C03305551D4F1F930F938CEB95E09F9398
S11349F08F930E948633F80101900020E9F73197E4
S1134A00AF01401B510B9E012A5B3C4FB801CE0104
S1134A108C5D9C4F0E941C150F900F900F900F906F
S1134A20F11051C08AEC95E00E94C033CE018C5D38
S1134A309C4F0E9458178FED95E00E94C03341E0CF
S1134A40BE016F5F7F4FCE018C5D9C4F0E9413129D
S1134A50811131C087E096E00E94C033B801F801AB
S1134A6001900020E9F73197AF01401B510B9E01E3
S1134A702A5B3C4FCE018C5D9C4F0E94B113811187
S1134A8013C0C8019F930F9384E296E09F938F9382
S1134A900E94863383E396E00E94C0330F900F9008
S1134AA00F900F9011E001C010E0CE018C5D9C4F7F
S1134AB00E94581701C010E0111116C086E596E057
S1134AC00E94C03311C081E696E00E94C03310E01A
S1134AD00BC084E796E00E94C03310E005C086E86E
S1134AE096E00E94C03310E0812FC95BDC4F0FB603
S1134AF0F894DEBF0FBECDBFDF91CF911F910F9110
S1134B00FF90EF90DF900895CF93DF9300D000D013
S1134B10CDB7DEB719821A821B821C826091D00A3B
S1134B207091D10A8091D20A9091D30A61157105CE
S1134B308105910559F5AE014F5F5F4F61E080E05B
S1134B400E94240389819A812B813C818093D00A1D
S1134B509093D10A2093D20A3093D30A3F932F9390
S1134B609F938F938CE591E09F938F930E94993349
S1134B706091D00A7091D10A8091D20A9091D30A9F
S1134B800F900F900F900F900F900F900F900F9029
S1134B900F900F90DF91CF9108950F931F93CF93B0
S1134BA0DF93CDB7DEB7D2500FB6F894DEBF0FBE99
S1134BB0CDBF8CEB91E09F938F930E9499330F901C
S1134BC00F908FE991E09F938F930E94993380E037
S1134BD00E94FD020F900F908111F3CF85E891E0C0
S1134BE09F938F930E9499338FDF8E010F5F1F4F26
S1134BF080E092E0F8019C01119221503040E1F7ED
S1134C00A80160E070E0CB010E94100282E791E00D
S1134C109F938F930E94993360E072E0C8010E94D1
S1134C2060018DE691E09F938F930E94993342DE59
S1134C300F900F900F900F900F900F9081E0DE5F18
S1134C400FB6F894DEBF0FBECDBFDF91CF911F9199
S1134C500F910895CF93DF93EC018091E80085FDD7
S1134C6009C0E8EEF0E080818B7780830E94862F74
S1134C70811125C0E1EFF0E0808188838081898300
S1134C8080818A8380818B8380818C8380818D83E2
S1134C9080818E8380818F838081888780818987CA
S1134CA080818A8780818B8780818C8780818D87B2
S1134CB080818E8780818F8780E190E002C080E0D0
S1134CC090E0DF91CF9108958F929F92AF92BF921F
S1134CD0CF92DF92EF92FF920F931F93CF93DF93C4
S1134CE06C014A015B017901FF922F93BF92AF924D
S1134CF09F924F9381E591E09F938F930E94993304
S1134D000E94862F2DB73EB7285F3F4F0FB6F89409
S1134D103EBF0FBE2DBF882359F136C0CE01829508
S1134D209295907F9827807F982740E050E060E03C
S1134D3070E08053974F8EDF219602C0C0E0D0E030
S1134D40C032D1055CF301E010E0A501940160EDEF
S1134D5078E080E00E941403F60180AD811114C054
S1134D60FFEF8F1A9F0AAF0ABF0A21E0E21AF10887
S1134D70E114F10419F78091E80085FD05C0E8EE1F
S1134D80F0E080818B778083DF91CF911F910F9129
S1134D90FF90EF90DF90CF90BF90AF909F908F9057
S1134DA008958F929F92AF92BF92EF92FF920F93CA
S1134DB01F93CF93DF934A015B017901FF922F93F5
S1134DC0BF92AF929F924F9386E491E09F938F930B
S1134DD00E9499330E94862F2DB73EB7285F3F4F1C
S1134DE00FB6F8943EBF0FBE2DBF882309F452C0FE
S1134DF05EC001E010E0A501940160ED76E080E082
S1134E000E94040300E010E03AC0E801C295D29584
S1134E10D07FDC27C07FDC27C053D94F8091E800C6
S1134E2085FD09C0E8EEF0E080818E7780830E94E2
S1134E30862F811122C08881E1EFF0E0808389818F
S1134E4080838A8180838B8180838C8180838D8120
S1134E5080838E8180838F81808388858083898508
S1134E6080838A8580838B8580838C8580838D85F0
S1134E7080838E8580838F8580830F5F1F4F0032F0
S1134E8011051CF23FEF831A930AA30AB30A81E0C7
S1134E90E81AF108E114F10409F0ABCF8091E800BD
S1134EA085FD05C0E8EEF0E080818E778083DF9198
S1134EB0CF911F910F91FF90EF90BF90AF909F9073
S1134EC08F90089581E008959091C80095FFFCCFDC
S1134ED08093CE0080E090E008958091C8008823FC
S1134EE05CF48091C800882324F48091CE0090E083
S1134EF008958FEF9FEF08958EEF9FEF0895FC01C3
S1134F0007C09091C80095FFFCCF8093CE003196E6
S1134F1080818111F6CF0895FC01892B49F4E8E4DE
S1134F20FDE08DE29DE09183808393838283FC0185
S1134F308EE0DF011D928A95E9F783E0838384E69E
S1134F4097E2918780878DE697E293878287089519
S1134F50CF93DF93EC01FC0170968BE0DF011D928F
S1134F608A95E9F782E08C83898783E08E8761E004
S1134F70CE01019664D7882351F061E0CE010696F4
S1134F805ED7882321F061E0CE010B9658D7DF91DC
S1134F90CF910895FC0190913F0D9430C9F4848918
S1134FA09589A689B789892B8A2B8B2B99F0CB01FC
S1134FB021812F702093E900FB0101900020E9F783
S1134FC03197BF01681B790B40E050E074C5089528
S1134FD082E0089582E00895CF93FC0190913F0D03
S1134FE09430E9F484899589A689B789892B8A2B19
S1134FF08B2BB9F0C62F81818F708093E90080914B
S1135000E80085FD08C0E8EEF0E080818E778083BB
S11350107DD7811107C0C093F10080E003C082E016
S113502001C082E0CF910895FB01682F84859585A6
S1135030D3DF882319F08FEF9FEF089580E090E08D
S11350400895CF93FC0190913F0D943029F5848904
S11350509589A689B789892B8A2B8B2BF9F08181B5
S11350608F708093E9008091F2009091F300892B76
S1135070B9F0E8EEF0E0908180818E778083C92FCB
S1135080C07295FD0FC042D781110EC0E8EEF0E06A
S113509080818E77808309C0C2E007C0C2E005C06A
S11350A0C0E003C0C0E001C0C82F8C2FCF91089589
S11350B0FC0190913F0D943091F484899589A689DF
S11350C0B789892B8A2B8B2B51F081818F70809328
S11350D0E9008091E80080FF02C0CF01B2CF0895BB
S11350E020913F0D243059F5FC0144895589668986
S11350F07789452B462B472B29F186818F70809326
S1135100E9008091E80082FF20C08091F200909134
S1135110F300892B21F02091F10030E002C02FEF41
S11351203FEF8091F2009091F300892B89F4E8EE2F
S1135130F0E080818B778083822F932F08958FEF07
S11351409FEF08958FEF9FEF08958FEF9FEF0895DE
S1135150822F932F0895FC0184859585C1DF9923BF
S113516014F48EEF9FEF0895FB012EE0DB011D92F6
S11351702A95E9F723E0238324E138E23187208765
S11351802BEA38E233872287958784870895089528
S1135190CF93DF93FC019091E80093FF99C0809135
S11351A0440D9091450D208130E08217930709F05A
S11351B08FC0EF018091410D813259F018F4803293
S11351C0C1F186C0823209F461C0833209F472C02D
S11351D07FC08091400D813A09F07AC0E8EEF0E09A
S11351E08081877F80838091E80080FFFCCF8C8959
S11351F09D89AE89BF89E1EFF0E08083492F5A2F62
S11352006B2F77274083AD016627772740838B2F49
S11352109927AA27BB278083888D8083898D8083E3
S11352208A8D8083E8EEF0E080818E7780834DD68E
S11352304FC08091400D813209F04AC0E8EEF0E0A1
S11352408081877F808305C080913F0D882309F486
S11352503FC08091E80082FFF7CFE1EFF0E03081BA
S11352602081908180813C8B2D8B9E8B8F8B8081C4
S1135270888F8081898F80818A8FE8EEF0E0808139
S11352808B77808322D6CE0182DF22C08091400DAD
S11352908132F1F4E8EEF0E08081877F808315D6D7
S11352A08091420D9091430D998B888BCE010E9481
S11352B0231B0EC08091400D813251F4E8EEF0E0E2
S11352C08081877F808301D66091420DCE015FDFAC
S11352D0DF91CF9108953F924F925F926F927F92A8
S11352E08F929F92AF92BF92CF92DF92EF92FF92F2
S11352F00F931F93CF93DF9300D01F92CDB7DEB7E8
S11353006C01EDB6FEB68091E80083FF21C12091C7
S1135310440D3091450DF601808190E0281739073E
S113532009F016C18091410D833009F4ACC030F40A
S1135330813071F0823009F4EFC00AC18A3009F477
S1135340CFC08B3009F4B8C0893009F001C153C013
S11353508091400D813A09F0FBC0ADB6BEB61A8209
S11353601982E0E4FDE0828173808B837A94F601F4
S1135370408550E08DB79EB7841B950B0FB6F8940B
S11353809EBF0FBE8DBFEDB7FEB731964F0160E0F3
S113539070E0CF010E9465338E010F5F1F4F9401AF
S11353A0472DBE016D5F7F4FC6010E94621AF60150
S11353B086819781009729F0408550E0B4010E94CE
S11353C05C331092E900E8EEF0E08081877F80830F
S11353D08B8181118093F10069817A81C4014CD45D
S11353E0E8EEF0E080818B7780830FB6F894BEBE40
S11353F00FBEADBEADC08091400D813209F0A8C092
S11354006DB67EB6E0E4FDE00681178142805380EC
S1135410342C5A948DB79EB7801B910B0FB6F89419
S11354209EBF0FBE8DBFEDB7FEB731964F010F2E55
S1135430F8EEAF2EB12CF02DF5018081877F8083AB
S1135440B801C40181D4F50180818E778083442022
S113545019F081E090E002C080E090E021E030E0CB
S1135460311002C020E030E0280D391D081B190B53
S1135470452D642DC6010E94121B0FB6F8947EBE02
S11354800FBE6DBE65C08091400D813A09F060C0C9
S1135490E8EEF0E08081877F80838091E80080FFE0
S11354A0FCCFF60181858093F100E8EEF0E0808185
S11354B08E7780830AD54CC08091400D813209F0EB
S11354C047C0E8EEF0E08081877F8083FED490912E
S11354D0420D81E0911101C080E0F601818738C05E
S11354E08091400D8132A1F5E8EEF0E08081877F64
S11354F08083EBD48091420D9091430D8827002442
S1135500880F991F001C880F991F001C892F902D4C
S1135510F601958784871CC08091400D813AC1F4BF
S1135520E8EEF0E08081877F80838091E80080FF4F
S1135530FCCFF601848595859695879596958795F4
S11355408093F100E8EEF0E080818E778083BDD413
S11355500FB6F894FEBE0FBEEDBE0F900F900F90E5
S1135560DF91CF911F910F91FF90EF90DF90CF903B
S1135570BF90AF909F908F907F906F905F904F906F
S11355803F900895FC01399627E0DF011D922A958A
S1135590E9F721E0FC01218724EF31E035872487F6
S11355A023E0248361E001964AC408955F926F92D8
S11355B07F928F929F92AF92BF92CF92DF92EF929F
S11355C0FF920F931F93CF93DF9300D01F92CDB719
S11355D0DEB77C01ADB6BEB680913F0D843009F0D4
S11355E090C0F701228533858091E4009091E50015
S11355F02817390709F485C081818F708093E900E9
S11356008091E80085FF7DC08DB69EB6408550E050
S11356108DB79EB7841B950B0FB6F8949EBF0FBE33
S11356208DBFEDB7FEB731966F011B821A821982C6
S113563060E070E0CF010E9465338E010F5F1F4F61
S1135640960140E0BE016D5F7F4FC7010E94621A60
S1135650682EF70184859585892B31F08685978599
S1135660892B21F080E003C080E001C081E08170DB
S1135670782EF701068117810115110599F04981EA
S11356805A81B801C6010E944F3355245394892B83
S113569009F4512CF701408550E0B601C8010E947D
S11356A05C3301C0512C89819A81892BF1F06110FE
S11356B004C0511002C07720C1F0F701848595859C
S11356C09787868781818F708093E9008B81811110
S11356D08093F10069817A8140E050E0C601EBD10A
S11356E0E8EEF0E080818E7780838091E4009091F1
S11356F0E500F701938782870FB6F8949EBE0FBE2C
S11357008DBE0FB6F894BEBE0FBEADBE0F900F9007
S11357100F90DF91CF911F910F91FF90EF90DF9049
S1135720CF90BF90AF909F908F907F906F905F903D
S113573008950F931F93CF93DF9300D0CDB7DEB7B7
S11357408C01DC0116968C918F708093E9001A828B
S1135750198204C0F80180AD811152C0AE014F5FBF
S11357605F4F6FE070E0C8010C963DD2853091F335
S1135770F80184859585A685B78585359345A2442A
S1135780B344A1F4D80159969C9159971B968C91D6
S11357901B97981758F458968C9158978F7131F439
S11357A05A968C91882311F0813180F0EBEEF0E071
S11357B0808180628083D80111968C918F70809350
S11357C0E90080818062808380E01DC01A82198292
S11357D004C0F80180AD811115C0D8015A966C91AE
S11357E070E0AE014F5F5F4FC8014B96FCD185302E
S11357F081F3E8EEF0E080818B77808381E003C061
S113580080E001C080E00F900F90DF91CF911F9155
S11358100F9108950F931F93CF93DF9300D0CDB7CB
S1135820DEB7FC0186818F708093E90003C080ADF0
S1135830811127C08091EB0085FDF9CF81818F70A4
S11358408093E90003C080AD81111BC08091EB00FF
S113585085FDF9CF8F011A82198204C0F80180AD49
S113586081110FC0AE014F5F5F4F6DE070E0C80162
S11358708B9621D1853091F3E8EEF0E080818E772C
S113588080830F900F90DF91CF911F910F91089516
S1135890CF93DF93FC019091E80093FF34C0809193
S11358A0440D9091450D208130E08217930759F5FE
S11358B0EF018091410D8E3F79F08F3F21F580916A
S11358C0400D813201F5E8EEF0E08081877F80832E
S11358D0FCD281E088AF17C08091400D813A99F4E1
S11358E0E8EEF0E08081877F80838091E80080FF8C
S11358F0FCCF8B8581508093F100E8EEF0E080814D
S11359008E778083E2D2DF91CF910895CF93DF9396
S1135910EC01FC013C968DE2DF011D928A95E9F7CA
S113592082E08C83898761E0CE01019688D2882346
S113593021F061E0CE01069682D2DF91CF910895E5
S1135940CF93DF93EC0190913F0D943009F072C036
S11359508E818F708093E9008091E80082FF39C0C6
S1135960CE01E7DE8823A9F1888D882324F4898178
S11359708F708093E900CE010E94291A882311F0C8
S113598090E001C091E09FAB45E553E562E473E527
S11359904BA75CA76DA77EA7488959896A897B892B
S11359A04FA758AB69AB7AAB4C895D896E897F8907
S11359B04BAB5CAB6DAB7EAB811109C0452B462B69
S11359C0472B29F0EBEEF0E0808180628083CE01EA
S11359D021DF88AD882371F12E812F7081E090E062
S11359E0AC0102C0440F551F2A95E2F7EAEEF0E03D
S11359F04083108229812F7002C0880F991F2A9535
S1135A00E2F7808310828E818F70A9EEB0E08C93D0
S1135A10EBEEF0E080818061808380818860808308
S1135A2089818F708C93808180618083808188607C
S1135A30808318AEDF91CF910895EF92FF920F9378
S1135A401F93CF93DF93EC017B0160D281112CC0B3
S1135A50E114F10429F0F70180819181C81BD90B6D
S1135A6000E010E01EC08091E80085FD15C0E8EE5E
S1135A70F0E080818E778083E114F10449F0F7012E
S1135A8080819181080F191F1183008385E00CC068
S1135A903DD2882331F008C01092F10021970F5FA6
S1135AA01F4F209701F780E0DF91CF911F910F9155
S1135AB0FF90EF900895CF92DF92EF92FF920F93B1
S1135AC01F93CF93DF938C01EB016A011FD28111E5
S1135AD032C0C114D10439F0F60180819181C81B10
S1135AE0D90B080F191FE12CF12C22C08091E8007A
S1135AF085FD15C0E8EEF0E090819E779083C11497
S1135B00D10449F0F60180819181E80EF91EF182F9
S1135B10E08285E010C0FAD1882351F00CC0F8016E
S1135B2081918F018093F1002197FFEFEF1AFF0A13
S1135B302097E1F680E0DF91CF911F910F91FF90C4
S1135B40EF90DF90CF900895CF92DF92EF92FF9283
S1135B500F931F93CF93DF93EB017A016B0121E045
S1135B60C21AD108C80ED91ED1D1811133C0E11493
S1135B70F10439F0F70180819181C81BD90BC81A4F
S1135B80D90A00E010E023C08091E80085FD15C02B
S1135B90E8EEF0E080818E778083E114F10449F02F
S1135BA0F70180819181080F191F1183008385E01B
S1135BB011C0ACD1882359F00DC0F60180818093C7
S1135BC0F100F1E0CF1AD10821970F5F1F4F209702
S1135BD0D9F680E0DF91CF911F910F91FF90EF9064
S1135BE0DF90CF900895CF92DF92EF92FF920F93C0
S1135BF01F93CF93DF938C01EB016A0187D181114D
S1135C0032C0C114D10439F0F60180819181C81BDE
S1135C10D90B080F191FE12CF12C22C08091E80048
S1135C2085FD15C0E8EEF0E090819B779083C11468
S1135C30D10449F0F60180819181E80EF91EF182C8
S1135C40E08285E010C062D1882351F00CC08091BD
S1135C50F100F80181938F012197FFEFEF1AFF0AFA
S1135C602097E1F680E0DF91CF911F910F91FF9093
S1135C70EF90DF90CF9008952091460D3091470D1D
S1135C802617370758F06115710539F4E8EEF0E08E
S1135C9020812E7720839B0101C09B01E82FF92FDF
S1135CA090E030C080913F0D882309F441C08530D5
S1135CB009F440C08091E80083FD3EC08091E80073
S1135CC082FD30C08091E80080FF1CC04091F2004A
S1135CD05091F30007C081918093F1002150310964
