:10000000B3C00000D8C00000D6C00000D4C00000BB
:10001000D2C00000D0C00000CEC00000CCC00000A4
:10002000CAC00000C8C0000029C20000A4C200006D
:10003000C2C00000C0C00000BEC00000BCC00000C4
:10004000BAC00000B8C00000B6C00000B4C00000D4
:10005000B2C00000B0C00000AEC000006EC1000021
:10006000AAC00000A8C00000A6C00000A4C00000F4
:10007000A2C00000A0C000009EC000009CC0000004
:100080009AC0000098C0000096C0000094C0000014
:1000900092C0000090C00000000100004901120061
:1000A00002000006014300030000020104010309ED
:1000B00004E8001802030904D0001603030904C26F
:1000C000000C0C0331003200330034003500000016
:1000D00016035500530042002000530065007200D3
:1000E000690061006C0000001803540065006500A1
:1000F0006E00730079006400750069006E006F0087
:1001000000000403090409024300020100C032098F
:100110000400000102020100052400100105240171
:1001200000010424020605240600010705820308D5
:10013000004009040100020A000000070503024014
:1001400000000705840240000012010002020000C6
:1001500020C01683047202010203010001C10201E2
:10016000803601813600AD0611241FBECFEFD0E2EC
:10017000DEBFCDBF11E0A0E0B1E0E6E9FDE000E0C8
:100180000BBF02C007900D92A632B107D9F721E04C
:10019000A6E2B1E001C01D92AE33B207E1F710E074
:1001A000C4EBD0E003C02197FE01EAD5C33BD107E1
:1001B000D1F7D8D3EEC524CF84B7877F84BF0FB6DD
:1001C000F894A895809160008861809360001092F7
:1001D00060000FBEE1E6F0E080E88083108281E0FD
:1001E00090E00895E9DF40E855E260E070E084E3E4
:1001F00091E04DD5569A579A08955E9A64EF71E052
:1002000080E090E0DAD05F9A64EF71E080E090E007
:10021000D4D05F9864EF71E080E090E0CED05E983B
:1002200064EF71E080E090E0C8D04CE050E067E01F
:1002300071E084E391E02BD4409126015091270195
:10024000CA0101969093270180932601052E000C88
:10025000660B770B84E391E079D384E391E0FAC2F3
:100260001DBA109268001CBC10BE1FBA10927A0012
:1002700010926E0010926F00109270001092710038
:100280001092C9001092BC0011B814B817B81AB86F
:100290001DB810BA12B815B818B81BB81EB811BAE4
:1002A0000895F894E1E6F0E020E82083108283E0EE
:1002B00084BD85BDEEE6F0E080818160808391E0C1
:1002C0009093800082E0809381009093B0008093AF
:1002D000B100909390008093910086E880937A001B
:1002E00020937B0010927E00A7D078940895F89414
:1002F00084B7877F84BF80916000806180936000B5
:100300001092600080E29EE40197F1F781E0809313
:10031000E00080E28093D80080E69AEE0197F1F742
:100320009FDF0C9400FEFFCFF8949ADF80E69AEEF0
:100330000197F1F70C940000FFCF8F938FB78F9345
:10034000809128018D5F8D37D0F4809328018091B2
:1003500029018F5F80932901D8F080912A018F4F66
:1003600080932A01A8F080912B018F4F80932B015D
:1003700078F080912C018F4F80932C0109C08D570C
:1003800080932801809129018E5F8093290128F7AD
:1003900080912D018C5F80932D0158F080912E016A
:1003A0008F4F80932E0128F080912F018F4F8093E3
:1003B0002F018F918FBF8F911895CF92DF92EF927F
:1003C000FF926B017C0119D09B01C114D104E1049F
:1003D000F10429F4FF90EF90DF90CF9008950DD0B5
:1003E000621B730B683E734080F381E0C81AD1082A
:1003F000E108F10828513C4FE8CF0FB6F89466B5F4
:1004000015B270912D0180912E0190912F010FBE98
:1004100010FE05C06F3F19F07C5F8F4F9F4F112476
:100420000024660F001C660F001C7029089580913F
:10043000E80080FFFCCF08958091D80087FF02C0BC
:1004400085FF1BC081E88093D70080EA8093D800A5
:1004500086E189BD09B400FEFDCF80E98093D80014
:100460001092E0001092400110923F0110923E0164
:100470001092E1008DE08093E20008951F920F92A8
:100480000FB60F9211240BB60F922F933F934F93F9
:100490005F936F937F938F939F93AF93BF93EF93EC
:1004A000FF939091E1001092E10093FF11C0109230
:1004B000E90081E08093EB001092EC0082E28093EF
:1004C000ED0088E08093F0001092400110923E0110
:1004D00092FF1DC0809140018823C9F080913301B3
:1004E000882359F0815080933301811106C084E044
:1004F0008093E9008AE38093E800809132018823A9
:1005000031F0815080933201811101C0F0DE90FF03
:100510000CC080E18093E2001092400181E0809362
:100520003F0180EA8093D80019BC80913F01882365
:1005300079F094FF0DC086E189BD09B400FEFDCFBE
:1005400080E98093D8008DE08093E20010923F0113
:10055000FF91EF91BF91AF919F918F917F916F919B
:100560005F914F913F912F910F900BBE0F900FBE57
:100570000F901F9018951F920F920FB60F92112493
:100580000BB60F92EF92FF920F931F932F933F930F
:100590004F935F936F937F938F939F93AF93BF938B
:1005A000CF93DF93EF93FF931092E9008091E800DF
:1005B00083FF20C0D091F100C091F100E090F100E4
:1005C000F090F1000091F1001091F1002091F10004
:1005D0003091F10082EF8093E800C63009F05BC0F3
:1005E000E8E9F0E085919591E816F90639F035963D
:1005F000C150C1F781E28093EB002BC085919591AA
:100600000817190711F03396F3CF4591559184914E
:100610002F3F310519F010F02FEF30E0821708F46A
:10062000282F3EEF8091E800982F9570D9F382FD36
:1006300010C0822F213208F080E2982F911124C03F
:10064000922F981B892F3093E80091111BC0203204
:10065000C8F4FF91EF91DF91CF91BF91AF919F913E
:100660008F917F916F915F914F913F912F911F914A
:100670000F91FF90EF900F900BBE0F900FBE0F9059
:100680001F901895282FCECFFA0145914093F10085
:10069000AF019150D3CFC53049F48EEF8093E8007D
:1006A000C6DE8E2D80688093E300D3CFC93021F55C
:1006B000D111A0CFE092400110923E01109233017F
:1006C0008EEF8093E80081E0EBE5F1E08093E900B4
:1006D00095919093EB00992331F095919093EC00D4
:1006E00095919093ED008F5F853081F78EE1809337
:1006F000EA001092EA00ADCFC83061F4D03809F0BA
:1007000079CF95DE809140018093F1008EEF809348
:10071000E8009FCFC13279F4D13A09F06BCF87DE80
:10072000E0E0F1E080818093F100319681E0E730F4
:10073000F807C1F7EBCFC03209F047C0D13209F05A
:1007400059CF8091E80082FFFCCFE0E0F1E080919A
:10075000F1008083319691E0E730F907C1F78BEF24
:100760008093E8008EEF8093E80030910001409183
:100770000101809102012091030190E0B0E0A0E02E
:10078000DC0199278827942B832BB22B863891057F
:10079000A105B10521F48FE0809332015ACF86394B
:1007A0009105A105B10509F054CF84E08093E900DB
:1007B0009FEF8091EE00837009F4B6DD9093E8001E
:1007C0008091E80082FDFCCFF4CFC23239F4D132FF
:1007D00009F010CFE0923E012ADE98CFC33221F417
:1007E000D13209F007CFF8CFC11111C020DED238C5
:1007F00049F40093E900C091EB00C5FBCC27C0F998
:100800001092E900C093F1001092F1007FCF8C2F7D
:100810008D7F813009F0EECED23009F0EBCEEF289B
:1008200009F0E8CE0F778FEF800F863008F0E2CE28
:100830008EEF8093E8000093E900C33009F4DACE2C
:1008400089E18093EB0081E090E001C0880F0A9578
:10085000EAF74DCFCF93DF9300D0CDB7DEB72DE0D1
:1008600029832AE02A83DC01ED91FC910280F38147
:10087000E02D42E050E0BE016F5F7F4F09950F9081
:100880000F90DF91CF910895CF93DF93CDB7DEB76F
:100890002B970FB6F894DEBF0FBECDBFFE013C967E
:1008A000A3E34A9F44270A0E411D302D5A9F552726
:1008B000400D511D6A9F6627500D611D7A9F772755
:1008C000600D711D1124340F451F561F671F711DC8
:1008D000350F461F571F611D711D370F411D511DDB
:1008E000611D711D76956795579547953795AAE0D7
:1008F0003A9F312D1124DF01305D3E9341155105A2
:100900006105710509F5222341F0BD0161507109AE
:100910002DE2DB012C93DF011297AE014A1B5B0B2A
:10092000445F5F4FFC0120813181F90122813381D5
:10093000BD01F90109952B960FB6F894DEBF0FBEE5
:10094000CDBFDF91CF910895FD01AACF20E077FFC1
:1009500008C070956095509541955F4F6F4F7F4FE0
:1009600021E092CF9EDC3EDC48DCFECFCF93DF93CC
:100970001F92CDB7DEB76983DC01ED91FC91028057
:10098000F381E02D41E050E0BE016F5F7F4F09959C
:100990000F90DF91CF910895FC018FB7F89490915B
:1009A000400191110CC090E08FBF2085318537FD4B
:1009B00003C09F3F09F09F5F892F90E0089593E067
:1009C0009093E9009091F2009111EECF2091E80010
:1009D00022FFE9CF25FDE7CF2BE62093E800E4CF07
:1009E000CF93DF93EC018885998597FF09C0E88153
:1009F000F9810284F385E02DCE01099599878887D6
:100A000088859985DF91CF910895FC0120853185F6
:100A100037FD07C04FEF5FEF51874087C901992726
:100A200008959FB7F89480914001811104C09FBF41
:100A30008FEF9FEF089583E08093E9002BE680918C
:100A4000E80085FD05C082FFF2CF2093E800F7CFD4
:100A50008091F1002091E80025FD03C02BE6209352
:100A6000E8009FBF90E0089580914001882361F0E5
:100A70008FB7F89494E09093E9009091F2008FBFC3
:100A800080E4891B90E0089590E080E00895BF9293
:100A9000CF92DF92EF92FF920F931F93CF93DF934A
:100AA0007C0180914001811110C081E0F7018283B7
:100AB00010E000E0C801DF91CF911F910F91FF90EE
:100AC000EF90DF90CF90BF9008952FB7F89484E017
:100AD0008093E90080913101882341F08091E80002
:100AE00085FD02C02FBFE1CF1092310110E000E080
:100AF00084E0D82E90E4C92EA1EFB0E03AE3B32E03
:100B000033E04115510509F4C0C08091E400815FD4
:100B10009091E80095FD16C02FBF9091E4008913D5
:100B200006C081E080933101F7018283C3CF9091A9
:100B30004001911102C081E0F7CF2FB7F894D09215
:100B4000E900E6CF8091F2009C2D981B94171506C2
:100B500011F008F0942FE92FF0E04E1B5F0B0E0F01
:100B60001F1FEB01E0E4E91BE03428F4EE0FFF2740
:100B7000E454FA4F099480C099919C9399919C9365
:100B800099919C9399919C9399919C9399919C9301
:100B900099919C9399919C9399919C9399919C93F1
:100BA00099919C9399919C9399919C9399919C93E1
:100BB00099919C9399919C9399919C9399919C93D1
:100BC00099919C9399919C9399919C9399919C93C1
:100BD00099919C9399919C9399919C9399919C93B1
:100BE00099919C9399919C9399919C9399919C93A1
:100BF00099919C9399919C9399919C9399919C9391
:100C000099919C9399919C9399919C9399919C9380
:100C100099919C9399919C9399919C9399919C9370
:100C200099919C9399919C9399919C9399919C9360
:100C300099919C9399919C9399919C9399919C9350
:100C400099919C9399919C9399919C9399919C9340
:100C500099919C9399919C9399919C9399919C9330
:100C600099919C9399919C9399919C9399919C9320
:100C700099919C9399919C93BE018091E80085FF86
:100C8000B092E800309333013CCF2FBF13CF2FEF4A
:100C90003FEFFC0131872087CFDB0FB6F8948091BE
:100CA000290190912A01A0912B01B0912C010FBE36
:100CB0009C0180914001882329F068EC70E080E07D
:100CC00090E07BCB80913F01882301F10FB6F8942F
:100CD0004091290150912A0160912B0170912C01C2
:100CE0000FBE80913F01882389F00FB6F894809160
:100CF000290190912A01A0912B01B0912C010FBEE6
:100D0000841B950B8B3F910560F308950FB6F89403
:100D10008091290190912A01A0912B01B0912C0181
:100D20000FBE821B930B853C994008F4C2CF0895F7
:100D30008FB7F89490914001992361F0909133011D
:100D4000992341F094E09093E9009AE39093E800AE
:100D5000109233018FBF0895EBCFE4E3F1E01186E9
:100D60001086128288EE93E0A0E0B0E08383948343
:100D7000A583B683178288E191E0918380830895EB
:100D8000EE0FFF1F0024001C0BBE0790F691E02D14
:060D90000994F894FFCF66
:100D960000E1000000000868656C6C6F20647265F5
:100DA600673A200000000000B60447053405AC068B
:060DB600CC040505F00469
:00000001FF
