:100000004BC0000066C0000064C0000062C0000079
:1000100060C000005EC000005CC000005AC000006C
:1000200058C0000056C0000054C0000052C000007C
:1000300050C000004EC000004CC000004AC000008C
:1000400048C0000046C0000044C0000042C000009C
:1000500040C000003EC000003CC000003AC00000AC
:1000600038C0000036C0000034C0000032C00000BC
:1000700030C000002EC000002CC000002AC00000CC
:1000800028C0000026C0000024C0000022C00000DC
:1000900020C000001EC0000011241FBECFEFD0E220
:1000A000DEBFCDBF12E0A0E0B1E0ECEEFCE000E08E
:1000B0000BBF02C007900D92A03EB107D9F72CE00C
:1000C000A0EEB2E001C01D92A13EB207E1F732D42A
:1000D0000BC696CF269A2E980895E9ECF0E0808121
:1000E0008861808387E68093CC001092CD0086E003
:1000F0008093CA0008959091C80095FFFCCF80932B
:10010000CE000895CF93DF93EC018881882371F0AE
:100110008A3039F49091E0029D3019F08DE0EBDFE8
:100120008AE0E9DF89918093E002EFCFDF91CF9100
:100130000895E8DF81E192E0E5CF1F93CF93DF934D
:10014000CDB7DEB761970FB6F894DEBF0FBECDBF57
:10015000182F81E1E0E0F1E0DE01119601900D92AF
:100160008A95E1F7812F82958F70E1E0F0E0EC0F46
:10017000FD1FE80FF11D8081BEDF1F70E1E0F0E0A0
:10018000EC0FFD1FE10FF11D808161960FB6F89411
:10019000DEBF0FBECDBFDF91CF911F91ACCF9F923D
:1001A000AF92BF92CF92DF92EF92FF920F931F9385
:1001B000CF93DF936115710509F440C08B01EC0109
:1001C000E12CF12C5B0181E0A81AB1086E018FEFE0
:1001D000C81AD80A8881B1DF80E28DDF8FEFE81A74
:1001E000F80AC7018F709927892B29F0C701019759
:1001F0008A159B0589F42F979990892D90E0EBD46F
:10020000892B11F0892D01C08EE275DFCC15DD053B
:1002100099F781E192E076DFE601E016F106B1F6AA
:1002200081E192E0DF91CF911F910F91FF90EF90CC
:10023000DF90CF90BF90AF909F9064CFDF91CF9130
:100240001F910F91FF90EF90DF90CF90BF90AF90F4
:100250009F9008950F931F93CF93DF93CDB7DEB791
:10026000E2970FB6F894DEBF0FBECDBFDC01CB0125
:100270008E010F5F1F4F22E3F80111922A95E9F7D3
:10028000B801C3D4C8013EDFE2960FB6F894DEBFD2
:100290000FBECDBFDF91CF911F910F9108950F93A6
:1002A0001F93CF93DF93CDB7DEB7E2970FB6F894E5
:1002B000DEBF0FBECDBF8E010F5F1F4F22E3F801DF
:1002C00011922A95E9F72AE0A801B3D4C8011ADFF0
:1002D000E2960FB6F894DEBF0FBECDBFDF91CF918F
:1002E0001F910F9108954AE050E0B4CF40E150E0F3
:1002F000B1CF84B7877F84BF0FB6F894A89580915B
:100300006000886180936000109260000FBEE1E69B
:10031000F0E080E88083108208958FEF82B985B97C
:1003200088B98BB981BB0895209A84B1866084B95D
:100330002B9A08958EBD0DB407FEFDCF8EB508959E
:100340008FEFF8DF8FEFF6DF8FEFF4DF8FEFF2DF65
:100350008FEFF0DF8FEFEEDF8FEFECDF8FEFEADF75
:100360008FEFE8DF8FEFE6CF4F925F926F927F9231
:100370008F929F92AF92BF92CF92DF92EF92FF92B5
:10038000CF93C82F4A015B01C12CD12C760188EE96
:10039000482E83E0582E612C712CC814D904EA042D
:1003A000FB04B1F08FEFC6DF8C17B9F08FEFC81ADE
:1003B000D80AE80AF80AC701B601A3019201E7D3F7
:1003C000672B682B692B49F781E191E0B2DEE5CF1D
:1003D0008AE291E0AEDE80E001C081E0CF91FF9043
:1003E000EF90DF90CF90BF90AF909F908F907F90D5
:1003F0006F905F904F9008959F92AF92BF92CF926F
:10040000DF92EF92FF920F931F93CF93DF93CDB7BD
:10041000DEB7A0970FB6F894DEBF0FBECDBF182F82
:10042000C42EB52EA62E972ED22ECE0101967C017B
:1004300080E2F70111928A95E9F782DF81E591E088
:1004400061DE812F7ADE80E256DE812F73DF892D17
:1004500071DF8A2D6FDF8B2D6DDF8C2D6BDF8D2D86
:1004600069DF670157019E2C8A2D8E19801730F4A1
:100470008FEF60DFF50181935F01F6CFFF24FA94DF
:100480008C2D8919801758F4F60111916F01812F75
:1004900054DE80E230DE1F3F99F3F12EF1CF81E18F
:1004A00092E030DE8F2DA0960FB6F894DEBF0FBE1F
:1004B000CDBFDF91CF911F910F91FF90EF90DF9013
:1004C000CF90BF90AF909F9008950F93CF9382E508
:1004D0008CBD289ACAE08FEF2DDFC150E1F786E589
:1004E00091E027DE289840EA56E861E070E08FEF5F
:1004F0003BDF882399F1289ACAE0289808E025E98B
:1005000040E050E0BA0180E477DF813071F0289A52
:100510002FEF81EE94E0215080409040E1F700C041
:100520000000C15051F782E028C0CAE0289808E0D6
:100530002FEF40E050E0BA0181E45EDF882381F0D4
:10054000289A2FEF81EE94E0215080409040E1F70F
:1005500000C00000C15051F783E00FC081E00DC022
:10056000289808E02FEF40E052E060E070E080E57E
:1005700043DF289A81E58CBD80E0CF910F910895EB
:10058000CF92DF92EF92FF920F931F93CF93DF935F
:100590006B017C018A012898D3DE81E5CBDED7018F
:1005A000C6012FE0B695A795979587952A95D1F71F
:1005B000C1DED701C60137E0B695A7959795879517
:1005C0003A95D1F7B7DE8C2D880FB4DE80E0B2DE2D
:1005D0008FEFB0DE40EA56E861E070E080E0C4DE14
:1005E000811102C080E017C040EA56E861E070E087
:1005F0008EEFBADE8823B1F3E80178018EEFF81AA6
:100600008FEF98DE8993CE15DF05D1F78FEF92DE5D
:100610008FEF90DE81E0289ADF91CF911F910F91AB
:10062000FF90EF90DF90CF900895CF92DF92EF92FE
:10063000FF920F931F93CF93DF936B017C018A018D
:1006400028987EDE88E576DED701C6012FE0B695D4
:10065000A795979587952A95D1F76CDED701C601A6
:1006600037E0B695A795979587953A95D1F762DECD
:100670008C2D880F5FDE80E05DDE8FEF5BDE40EA71
:1006800056E861E070E080E06FDE882329F140EAFF
:1006900056E861E070E08FEF67DE8823E9F08EEFC7
:1006A00049DEE80178018EEFF81A899143DECE1514
:1006B000DF05D9F780E03EDE80E03CDE80E03ADE18
:1006C000853E39F440EA56E861E070E08FEF4CDE99
:1006D00004C085E691E02DDD80E0289ADF91CF917E
:1006E0001F910F91FF90EF90DF90CF9008954F9260
:1006F0005F926F927F92BF92CF92DF92EF92FF92C2
:100700000F931F93CF93DF938C01289819DE89E410
:1007100011DE80E00FDE80E00DDE80E00BDE80E0A9
:1007200009DE40EA56E861E070E08EEF1DDE8823C6
:1007300009F463C0C0E0412C512C3201D0E0B12C4F
:10074000C12CD12C7601C3948FEFF4DDC73059F161
:1007500070F4C53029F1C63009F04AC0837090E0CA
:10076000A0E0B0E04424582E692E7A2E41C0C93052
:10077000D9F140F1CA30E1F5982F991F9927991FB7
:10078000D92B8B2D90E08D0F911D02967301620184
:1007900004C0CC0CDD1CEE1CFF1C8A95D2F728C0CF
:1007A0008F70B82E25C0A3019201282BDA01C90150
:1007B0002C013D0122E0440C551C661C771C2A9537
:1007C000D1F716C0982F9295969596959370A301A0
:1007D0009201292BDA01C9012C013D013FEF431A97
:1007E000530A630A730A04C0982F9370D92FDD0F40
:1007F000CF5FC23109F0A8CF04C0C12CD12C760143
:10080000C394289AD701C6019170AA27BB27892BC8
:100810008A2B8B2B29F08FE891E08BDC80E00DC0D8
:1008200089E0F694E794D794C7948A95D1F7F801B4
:10083000C082D182E282F38281E0DF91CF911F9169
:100840000F91FF90EF90DF90CF90BF907F906F90CF
:100850005F904F900895CF92DF92EF92FF926B01DD
:100860007C0128986DDD82E565DDD701C6012FE0AA
:10087000B695A795979587952A95D1F75BDDD70112
:10088000C60137E0B695A795979587953A95D1F724
:1008900051DD8C2D880F4EDD80E04CDD8FEF4ADD81
:1008A00040EA56E861E070E08EEFFF90EF90DF9055
:1008B000CF905ACD0F931F93CF93DF93EC018C0110
:1008C0001E5F8FEF37DD8993C017D107D1F740EA5C
:1008D00056E861E070E08EEFDF91CF911F910F91AC
:1008E00043CD2EDD8CE426DD80E024DD80E022DDBA
:1008F00080E020DD80E01EDD8FEF1CDD8FEF1ADD54
:100900008FEF18DD8FEF16DD8FEF14DD8FEF12DD27
:100910008FEF10DD8FEF0EDD8FEF0CDD8FEF0ADD37
:100920008FEF08DD40EA56E861E070E08FEF1CDDF4
:10093000289A08958F929F92AF92BF92CF92DF92A2
:10094000EF92FF920F931F93CF93DF93CDB7DEB754
:10095000C450D4400FB6F894DEBF0FBECDBF8E0199
:100960000F5F1D4F80E092E0D801FC011D9231978E
:10097000E9F79E012F5F3F4F7901D901FC011D92DC
:100980003197E9F7B6DCC9DCA8DBA4DB87EB91E0A3
:10099000D0DBCADC9ADDD82E882341F087EC91E0C9
:1009A000B1DB8D2DCADB8FEF9FEFDDC080ED91E0D5
:1009B000A9DB83EE91E0A6DBCF5FDB4F18821982C3
:1009C0001A821B82C150D440CE018F5F9B4F8FDEB5
:1009D000882341F1CF5FDB4F688179818A819B81D8
:1009E000C150D44083DC8FEF91E08CDBCF5FDB4FD5
:1009F000688179818A819B81C150D44050DC8DE629
:100A000092E080DBCF5FDB4F88819981AA81BB8137
:100A1000C150D4408115984DAB43B10531F481E00C
:100A200092E002C084E192E084DB87E392E06ADB3B
:100A300080E092E0D801FC011D923197E9F7A8010E
:100A400061E070E080E090E09BDDD8016C9170E0A7
:100A50006F5F7F4F40E052E0C801D0D0A80161E055
:100A600070E080E090E0E1DD81E792E04BDB80E048
:100A70009AE0E1EEF2E0DF019C011D92215030404E
:100A8000E1F761E070E080E090E0E5DE81EE92E089
:100A900011DF81EE94E00EDF81EE96E00BDF81EE58
:100AA00098E008DF81EE9AE005DF91EEC92E92E032
:100AB000D92E812C912C5401839481EA92E022DB7F
:100AC000C501B40110DC81E192E01CDB60E072E062
:100AD000C60165DB3FEF831A930AA30AB30A8EEFC0
:100AE000D81A96E089169104A104B10431F7F9DE11
:100AF00087EB92E01EDB8EEB92E004DB812C912CE5
:100B00005401C12C82E0D82ED801F6011D923197F4
:100B1000E9F7A801C501B40133DDF2E08F169104B5
:100B20003CF040E052E0B701C8015BD0892B69F08E
:100B300081EA92E0E7DAC501B401D5DB81E192E018
:100B4000E1DA60E072E0C8012ADB2FEF821A920A34
:100B5000A20AB20A38EE831633E09306A104B10468
:100B600099F680E090E0CC5FDB4F0FB6F894DEBFE3
:100B70000FBECDBFDF91CF911F910F91FF90EF90EE
:100B8000DF90CF90BF90AF909F908F900895A1E29B
:100B90001A2EAA1BBB1BFD010DC0AA1FBB1FEE1FF7
:100BA000FF1FA217B307E407F50720F0A21BB30B42
:100BB000E40BF50B661F771F881F991F1A9469F7BE
:100BC00060957095809590959B01AC01BD01CF011A
:100BD0000895803209F0911174C080528F55E0F76A
:100BE0000895FB01DC0104C08D910190801921F46E
:100BF00041505040C8F7881B990B0895DC0101C093
:100C00006D9341505040E0F708954532510518F476
:100C1000423008F004C0FB011082CB010895BB27CD
:100C20004A3031F4992322F4BDE2909581959F4F8B
:100C300030C0BB272A3051F4992342F4BDE290958D
:100C40008095709561957F4F8F4F9F4F01C0BB2757
:100C5000FA01A62F6217710581059105330B30FB50
:100C600066F0AA27660F771F881F991FAA1FA21771
:100C700010F0A21B63953850A9F7A05DAA3308F0C5
:100C8000A95DA19336F7B111B1931082CA011CC0BE
:100C9000BB27FB015527AA27880F991FAA1FA41756
:100CA00010F0A41B83955051B9F7A05DAA3308F04A
:100CB000A95DA193009779F7B111B1931192CB017E
:100CC00003C0992788270895DC01FC01672F7191E3
:100CD0007723E1F7329704C07C916D937083629122
:0C0CE000AE17BF07C8F30895F894FFCFCB
:100CEC003031323334353637383941424344454656
:100CFC00000D0A73642077616974696E6720666FF2
:100D0C007220646174612E2E2E000D0A4552524FD2
:100D1C00522073642077616974696E6720666F7204
:100D2C0020646174612074696D656F75742E2E2E4C
:100D3C0000434D442000636C656172696E672073DB
:100D4C00642E2E2E000D0A4552524F522120434D37
:100D5C004432345F535543434553535F42595445D2
:100D6C0020646F6E74207265637665640D0A000DE5
:100D7C000A4552524F5221206E756D626572206F7A
:100D8C0066206279746573206973206E6F742025F8
:100D9C00203531320D0A000D0A0D0A68656C6C6F36
:100DAC00772064726567005344206572723A2000A4
:100DBC00534420696E697420737563657373732172
:100DCC000D0A006E756D626572206F662073656327
:100DDC00746F727320696E2073643A203078002827
:100DEC000032474220534420646574656374656423
:100DFC00210D0A000D0A4552524F522073645F6751
:100E0C0065745F6E756D6265725F6F665F73656347
:100E1C00746F72730D0A0077726974696E6720645F
:100E2C0061746120746F20736563746F722031205C
:100E3C00286261736564206F6E2063757272656ED3
:100E4C007420646174612073746F726564290D0A77
:100E5C000052454144494E472035204D554C54498C
:100E6C00504C4520424C4F434B5320494E20534449
:100E7C002066726F6D20534543544F5220310D0A3A
:100E8C00000D0A636F6E74656E74206F6620736557
:100E9C0063746F723A20000D0A2D2D2D2D000D0A52
:100EAC0052454144494E4720424C4F434B204259F6
:100EBC0020424C4F434B20494E2053440D0A000016
:00000001FF
