:100000000C9456000C9460000C9460000C946000FA
:100010000C9460000C9460000C9460000C946000E0
:100020000C9460000C9460000C9460000C946000D0
:100030000C9460000C9460000C9460000C946000C0
:100040000C9460000C9460000C9460000C946000B0
:100050000C9460000C9460000C9460000C946000A0
:100060000C9460000C9460000C9460000C94600090
:100070000C9460000C9460000C9460000C94600080
:100080000C9460000C9460000C9460000C94600070
:100090000C9460000C9460000C9460000C94600060
:1000A0000C9460000C9460000C94600011241FBE3E
:1000B000CFEFDAE0DEBFCDBF0E9462000C94E1001A
:1000C0000C94000084B7877F84BF0FB6F894A8957E
:1000D00080916000886180936000109260000FBE84
:1000E000259A2D98249A2C98519A5998559A5D984A
:1000F0002C9A2FEF83ED90E3215080409040E1F760
:1001000000C000002D9A2FEF83ED90E32150804036
:100110009040E1F700C000002C982D982FEF83EC61
:1001200099E0215080409040E1F700C000002D9AF6
:100130002FEF83ED90E3215080409040E1F700C025
:1001400000002C982D982FEF83ED90E321508040F4
:100150009040E1F700C00000599A2FEF83ED90E343
:10016000215080409040E1F700C000005D9A2FEFE1
:1001700083ED90E3215080409040E1F700C0000003
:1001800059985D982FEF83EC99E021508040904082
:10019000E1F700C000005D9A2FEF83ED90E321505E
:1001A00080409040E1F700C0000059985D982FEF23
:1001B00083ED90E3215080409040E1F700C00000C3
:0601C00097CFF894FFCF79
:00000001FF
