:10000000B9C00000D4C00000D2C00000D0C00000C1
:10001000CEC00000CCC00000CAC00000C8C00000B4
:10002000C6C00000C4C00000BFC4000086C50000F8
:10003000BEC00000BCC00000BAC00000B8C00000D4
:10004000B6C00000B4C00000B2C00000B0C00000E4
:10005000AEC00000ACC00000AAC00000A8C00000F4
:10006000A6C00000A4C00000A2C00000A0C0000004
:100070009EC000009CC000009AC0000098C0000014
:1000800096C0000094C0000092C0000090C0000024
:100090008EC000008CC0000026034C0055004600B6
:1000A000410020004400750061006C002000430006
:1000B000440043002000440065006D006F00000014
:1000C00018034400650061006E00200043006100D9
:1000D0006D0065007200610000000403090409025C
:1000E0008300040100C032080B0002020201000973
:1000F0000400000102020100052400100104240292
:10010000060524060001070583030800FF09040112
:1001100000020A0000000705020210000507058121
:1001200002100005080B020202020100090402008D
:100130000102020100052400100104240206052426
:10014000060203070586030800FF09040300020AEC
:1001500000000007050502100005070584021000D5
:100160000512011001EF0201086969232201000153
:1001700002DC010011241FBECFEFD0E2DEBFCDBFF5
:1001800011E0A0E0B1E0ECE5FFE000E00BBF02C051
:1001900007900D92A633B107D9F721E0A6E3B1E0AD
:1001A00001C01D92A334B207E1F757D0D5C628CFBE
:1001B000292F33272230310559F02330310569F0DA
:1001C0002130310521F180E090E020E030E028C0CE
:1001D00083E890E02EED30E023C09927813091052F
:1001E00051F018F0029769F017C0EAEDF0E0849141
:1001F00090E09F0115C0E0ECF0E0849190E09F0159
:100200000FC0E8E9F0E0849190E09F0109C082E12D
:1002100090E021E631E004C080E090E020E030E0B2
:10022000FA0131832083089584B7877F84BF0FB696
:10023000F894A89580916000886180936000109286
:1002400060000FBE90E080E80FB6F89480936100E4
:10025000909361000FBE8CC30895E6DF78948BE124
:1002600091E0BBD080E091E0B8D0992324F0682FD2
:1002700080E091E03BD08BE191E097D080E091E08D
:1002800094D068D6ECCF089508958BE191E00CD01E
:1002900080E091E009C008958BE191E0DAD080E040
:1002A00091E0D7C008950895CF93DF93EC01FC014E
:1002B00070968BE0DF011D928A95E9F782E08C83CE
:1002C000898783E08E8761E0CE01019669D2882319
:1002D00051F061E0CE01069663D2882321F061E0FF
:1002E000CE010B965DD2DF91CF910895CF93FC01A3
:1002F00090913A019430E9F484899589A689B78967
:10030000892B8A2B8B2BB9F0C62F81818F7080931C
:10031000E9008091E80085FD08C0E8EEF0E080810A
:100320008E778083A4D2811107C0C093F10080E052
:1003300003C082E001C082E0CF910895CF93FC0119
:1003400090913A01943029F584899589A689B789D5
:10035000892B8A2B8B2BF9F081818F708093E90098
:100360008091F2009091F300892BB9F0E8EEF0E073
:10037000908180818E778083C92FC07295FD0FC0D8
:1003800076D281110EC0E8EEF0E080818E77808316
:1003900009C0C2E007C0C2E005C0C0E003C0C0E0C1
:1003A00001C0C82F8C2FCF910895FC0190913A0184
:1003B000943091F484899589A689B789892B8A2BF1
:1003C0008B2B51F081818F708093E9008091E80040
:1003D00080FF02C0CF01B2CF089520913A012430AE
:1003E00059F5FC014489558966897789452B462B47
:1003F000472B29F186818F708093E9008091E80076
:1004000082FF20C08091F2009091F300892B21F0AF
:100410002091F10030E002C02FEF3FEF8091F20019
:100420009091F300892B89F4E8EEF0E080818B77DE
:100430008083822F932F08958FEF9FEF08958FEF82
:100440009FEF08958FEF9FEF0895822F932F0895C8
:100450000895CF93DF93FC019091E80093FF98C03B
:1004600080913F0190914001208130E082179307F5
:1004700009F08EC0EF0180913C01813259F018F4EF
:100480008032C1F185C0823209F461C0833209F43F
:1004900071C07EC080913B01813A09F079C0E8EEDD
:1004A000F0E08081877F80838091E80080FFFCCF2F
:1004B0008C899D89AE89BF89E1EFF0E08083492F67
:1004C0005A2F6B2F77274083AD016627772740830C
:1004D0008B2F9927AA27BB278083888D8083898DBE
:1004E00080838A8D8083E8EEF0E080818E77808340
:1004F0009DD14EC080913B01813209F049C0E8EEA8
:10050000F0E08081877F808305C080913A01882355
:1005100009F43EC08091E80082FFF7CFE1EFF0E000
:1005200030812081908180813C8B2D8B9E8B8F8BA5
:100530008081888F8081898F80818A8FE8EEF0E0CA
:1005400080818B77808372D1CE0182DF21C0809140
:100550003B018132E9F4E8EEF0E08081877F80831F
:1005600065D180913D0190913E01998B888BCE01A0
:100570009ADE0EC080913B01813251F4E8EEF0E04A
:100580008081877F808352D160913D01CE0160DF01
:10059000DF91CF91089520914101309142012617BA
:1005A000370758F06115710539F4E8EEF0E0208165
:1005B0002E7720839B0101C09B01E82FF92F90E04B
:1005C00030C080913A01882309F441C0853009F494
:1005D00040C08091E80083FD3EC08091E80082FD2C
:1005E00030C08091E80080FF1CC04091F200509123
:1005F000F30007C081918093F100215031094F5FD2
:100600005F4F2115310519F04830510598F391E0FD
:100610004830510509F090E0A8EEB0E08C918E775B
:100620008C932115310569F69111CBCF0AC08091C9
:100630003A01882391F0853091F08091E80083FDA4
:1006400010C08091E80082FFF2CF80E0089582E040
:10065000089583E0089581E0089582E0089583E09D
:10066000089581E0089520914101309142012617BB
:10067000370758F06115710539F4E8EEF0E0208194
:100680002E7720839B0101C09B01E82FF92F90E07A
:1006900031C080913A01882309F442C0853009F4C1
:1006A00041C08091E80083FD3FC08091E80082FD59
:1006B00031C08091E80080FF1DC04091F200509150
:1006C000F30008C084918093F100319621503109E4
:1006D0004F5F5F4F2115310519F04830510590F3F8
:1006E00091E04830510509F090E0A8EEB0E08C911F
:1006F0008E778C932115310561F69111CACF0AC00E
:1007000080913A01882391F0853091F08091E80042
:1007100083FD10C08091E80082FFF2CF80E0089551
:1007200082E0089583E0089581E0089582E00895CD
:1007300083E0089581E00895982F29C0292F2F7014
:100740002093E900981739F07091EC002091ED00AA
:100750005091F00003C0242F762F50E021FF16C0E7
:10076000EBEEF0E030813E7F3083ADEEB0E03C91C7
:100770003D7F3C933081316030837093EC002C934B
:100780005093F0002091EE00222344F49F5F9730B5
:10079000A8F28F708093E90081E0089580E00895C9
:1007A0000F931F93CF93DF93EC01062F10E036C019
:1007B000E12FF0E0CF01880F991F880F991FE80FF4
:1007C000F91FEC0FFD1F5081552339F19481A18150
:1007D000B2816381852F8F708730E0F4923010F002
:1007E00046E001C042E028E030E090E003C09F5FB7
:1007F000220F331F2A173B07D0F39295907F20E4F6
:10080000629FB0011124551F5527551F492B652B99
:1008100093DF01C080E0882321F01F5F101740F2B2
:1008200081E0DF91CF911F910F91089580913B015D
:1008300088239CF404C080913A018823B9F0809108
:10084000E80082FFF8CFE8EEF0E080818B778083CC
:10085000089580913A01882349F08091E80080FF53
:10086000F8CFE8EEF0E080818E77808308952091C4
:10087000E4003091E50044E602C09C01452F8091E0
:10088000EC00982F917080FD90E8903829F48091C9
:10089000E80080FF05C01BC08091E80082FD19C000
:1008A00080913A018823B9F08530B9F08091EB004E
:1008B00085FD15C08091E4009091E5002817390767
:1008C000F1F25FEF540F4111D8CF84E0089580E03A
:1008D000089580E0089582E0089583E0089581E01E
:1008E0000895CF93DF9310923A011092360110923F
:1008F000380110923701C0EED0E088818B7F888369
:10090000E8EDF0E080818160808342E060E080E09B
:1009100013DFE1EEF0E080818E7F8083E2EEF0E095
:1009200080818160808380818860808388818E7FE0
:100930008883DF91CF910895CF93DF9328D02FD074
:10094000C8EDD0E088818F7788838881806888832C
:1009500088818F7D8883E7EDF0E0808180688083E7
:1009600019BCBFDF888180618883DF91CF910895B2
:10097000E8EDF0E080818F7E8083E7EDF0E080811C
:100980008160808381E080933901D6CF0895E8EDBE
:10099000F0E080818C7F80831092E20008951092B5
:1009A000DA001092E10008951F920F920FB60F9295
:1009B00011240BB60F922F933F934F935F936F9336
:1009C0007F938F939F93AF93BF93EF93FF93809108
:1009D000E10082FF0AC08091E20082FF06C0E1EEE2
:1009E000F0E080818B7F80839AD28091DA0080FF53
:1009F0001DC08091D80080FF19C0EAEDF0E0808131
:100A00008E7F80838091D90080FF0CC084E189BDF6
:100A100086E189BD09B400FEFDCF81E080933A01F3
:100A200032DC04C019BC10923A012EDC8091E10046
:100A300080FF16C08091E20080FF12C0E2EEF0E07D
:100A400080818E7F8083808180618083E8EDF0E00B
:100A500080818062808319BC85E080933A015FD2F7
:100A60008091E10084FF2FC08091E20084FF2BC0C1
:100A700084E189BD86E189BD09B400FEFDCFE8EDC2
:100A8000F0E080818F7D8083E1EEF0E080818F7ED9
:100A90008083E2EEF0E080818F7E808380818160C0
:100AA000808380913601882321F084E080933A018D
:100AB00009C08091E300882314F483E001C081E041
:100AC00080933A012CD28091E10083FF23C0809172
:100AD000E20083FF1FC0E1EEF0E08081877F80832A
:100AE00082E080933A011092360180818E7F80836C
:100AF000E2EEF0E080818E7F808380818061808360
:100B000042E060E080E018DEE0EFF0E080818860A5
:100B1000808305D2FF91EF91BF91AF919F918F910B
:100B20007F916F915F914F913F912F910F900BBEED
:100B30000F900FBE0F901F9018951F920F920FB637
:100B40000F9211240BB60F92EF92FF921F932F93E7
:100B50003F934F935F936F937F938F939F93AF9345
:100B6000BF93CF93DF93EF93FF93C091E900CF70D2
:100B70008091EC00982F917080FD90E8192F1C2B2C
:100B80000F2EF9EEEF2EF12CF02DF7011082C0EFB1
:100B9000D0E08881877F8883789472D1F7011082B2
:100BA000888188608883C12FCF70C083FF91EF91C7
:100BB000DF91CF91BF91AF919F918F917F916F9175
:100BC0005F914F913F912F911F91FF90EF900F9068
:100BD0000BBE0F900FBE0F901F90189580913B0198
:100BE000803819F0823871F00895809137018111B1
:100BF00002C090E001C091E080913801882381F02B
:100C000092600EC080913F018F708730B0F4E9EEA2
:100C1000F0E080839091EB0095FB992790F910828A
:100C2000E8EEF0E08081877F8083A1EFB0E09C93C5
:100C30001C9280818E778083F9CD089580913B014D
:100C40008F7119F0823071F0089580913D018130EB
:100C500009F03FC090913C01933009F080E080930F
:100C600038012FC080913D0181112BC080913F013F
:100C70008F709FEF980F963060F58093E900909108
:100C8000EB0090FF1EC090913C01933031F4EBEEED
:100C9000F0E080818062808314C0EBEEF0E0908110
:100CA0009061908321E030E0A90102C0440F551FFC
:100CB0008A95E2F7AAEEB0E04C931C92808188609E
:100CC00080831092E900E8EEF0E08081877F8083E6
:100CD000ADCD0895CF93C0913D01CF77E3EEF0E025
:100CE000808180788C2B8083E8EEF0E08081877FA4
:100CF00080839CDD8091E80080FFFCCFE3EEF0E094
:100D0000808180688083CC2311F083E001C082E081
:100D100080933A01CF910895E8EEF0E08081877FDB
:100D20008083809136018093F10080818E7780836B
:100D30007DCD08950F931F93CF93DF93CDB7DEB78B
:100D4000AA970FB6F894DEBF0FBECDBF83E08A83AB
:100D50008AE289833FB7F89490E02EE020C0E22F2A
:100D6000F0E081E280935700E49190FF03C0E295A8
:100D7000EF702F5FEF70A92FB0E0AA0FBB1F43E009
:100D800050E04C0F5D1FA40FB51FEA3018F0F0E0E3
:100D9000F79602C0F0E0F096ED93FC939F5F9431DC
:100DA000F0F23FBF08EE10E0F8018081877F80837A
:100DB0006AE270E0CE010196EEDBF80180818B776C
:100DC0008083AA960FB6F894DEBF0FBECDBFDF9129
:100DD000CF911F910F9108950F931F93CF93DF939E
:100DE00000D0CDB7DEB780913D0190913E018C3DA2
:100DF00023E0920711F49EDF18C060913F017091CB
:100E00004001AE014F5F5F4FD3D9009771F008EEFC
:100E100010E0F8012081277F2083BC0189819A811D
:100E200022DCF80180818B7780830F900F90DF9117
:100E3000CF911F910F91089580913D0190913E01B6
:100E400099270297E4F4E8EEF0E08081877F8083C1
:100E500080913D0180933601E9DC80913601882341
:100E600021F084E080933A0109C08091E300882357
:100E700014F484E001C081E080933A0106CA089529
:100E800080E0EBE3F1E005C09091F10090838F5F8B
:100E900031968830C8F300DA8091E80083FF30C0D3
:100EA000EBE3F1E0908181818530D1F030F4813045
:100EB00089F050F0833071F023C08830D1F0893050
:100EC000E1F08630E9F410C0903811F09238C1F4A6
:100ED00085DE16C0992311F0923091F4AFDE10C078
:100EE00091110EC0F7DE0CC09058923048F474DFB8
:100EF00007C0903829F410DF03C0911101C09CDFB6
:100F00008091E80083FF0AC0E8EEF0E08081877FEF
:100F10008083EBEEF0E08081806280830895089505
:100F2000CF9380913A01882399F0C091E900CF7066
:100F30008091EC00982F917080FD90E8C92B109261
:100F4000E9008091E80083FD9BDFCF70C093E9004A
:0C0F5000CF910895E5CF0895F894FFCFED
:100F5C000284100000010510000001860800000149
:100F6C0000000000000000000000000081100000E4
:100F7C0001021000000183080000010000000000C5
:060F8C000000000000005F
:00000001FF
