:1070000055C000008DC000008BC0000089C000008A
:1070100087C0000085C0000083C0000081C0000060
:107020007FC000007DC0000032C2000079C00000B7
:1070300077C0000075C0000073C0000071C0000080
:107040006FC000006DC000006BC0000069C0000090
:1070500067C0000065C0000063C0000061C00000A0
:107060005FC000005DC000005BC0000059C00000B0
:1070700057C0000055C0000053C0000051C00000C0
:107080004FC000004DC000004BC0000049C00000D0
:1070900047C0000045C0000043C0000041C00000E0
:1070A0003FC000003DC000003BC0000011241FBED7
:1070B000CFEFDAE0DEBFCDBF04B603FE1CC0809187
:1070C00054019091550182349C4DA9F484B7877F77
:1070D00084BF0FB6F894A895809160008861809372
:1070E0006000109260000FBE109255011092540182
:1070F000E0E0F0E0099511E0A0E0B1E0EEE4F8E7AF
:1071000002C005900D92AA34B107D9F721E0AAE494
:10711000B1E001C01D92A435B207E1F702D095C3DA
:107120006FCF84B7877F84BF0FB6F894A8958091FE
:107130006000886180936000109260000FBE90E054
:1071400080E80FB6F89480936100909361000FBEC1
:1071500081E085BF82E085BF7DD1809A8898819A41
:10716000899A789480910001882311F055D3FACF41
:107170008091E00081608093E00082E49CED909338
:107180005501809354019CE088E10FB6F894A895CE
:10719000809360000FBE90936000FFCF42E361ECEC
:1071A00081E0ECC080914C018F77813209F065C09D
:1071B00080914D01893009F060C08091E800877F9F
:1071C0008093E8008091E80082FFFCCF3091F100CD
:1071D0002091F100832F922F8F3F2FEF920719F408
:1071E0001092000144C08115E0E79E0708F03FC0FF
:1071F00023E0FC0120935700E89507B600FCFDCF83
:1072000040E050E061E07091F3002091F20030E046
:10721000372B232BD9F0E091F1007091F1002E2F44
:10722000372FFA01EE0FFF1FE80FF91F09016093D6
:107230005700E89511244F5F5F4F4034510519F70F
:1072400025E0FC0120935700E8950AC02091E80052
:107250002B772093E8002091E80022FFFCCFDBCFC2
:1072600007B600FCFDCF81E180935700E89580913F
:10727000E8008B778093E80095C00895913059F02D
:10728000923071F0913289F09232A1F485E190E070
:1072900025E331E013C082E190E023E231E00EC04B
:1072A00082E290E021E031E009C089E090E023E152
:1072B00031E004C080E090E020E030E0FA0131836A
:1072C00020830895209152013091530126173707EA
:1072D00048F06115710539F42091E8002E7720936C
:1072E000E80001C0B901FC0120E06115710571F1F0
:1072F0008EB38823E9F18530E9F18091E80083FDC0
:107300003BC08091E80082FD2DC08091E80080FFA5
:10731000ECCF2091F3008091F20090E0922B611568
:10732000710551F08830910538F421912093F100D6
:10733000615071090196F3CF21E0089709F020E030
:107340008091E8008E778093E800CFCF2111D0CFD5
:1073500009C08EB3882361F0853061F08091E80028
:1073600083FD0AC08091E80082FFF3CF80E008959A
:1073700082E0089583E0089581E008958F708093FE
:10738000E900EBEEF0E0808181608083EDEEF0E0DB
:1073900010826093EC0040838091EE00881F882764
:1073A000881F089580914C0187FF0FC08091E800ED
:1073B00082FD04C08EB38111F9CF10C08091E80026
:1073C0008B770AC08EB3882349F08091E80080FF54
:1073D000F9CF8091E8008E778093E80008950F93AD
:1073E0001F93CF93DF9346D04DD0C8EDD0E0888176
:1073F0008F77888388818068888388818F7D888360
:1074000019BC1EBA10924A0100EE10E0F80180810A
:107410008B7F808388818160888342E060E080E0A8
:10742000ADDFE1EEF0E080818E7F8083E2EEF0E080
:10743000808181608083808188608083F801808181
:107440008E7F8083888180618883DF91CF911F91B7
:107450000F910895E8EDF0E080818F7E8083E7ED65
:10746000F0E080818160808384E082BF81E080934E
:107470004B01B5CFE8EDF0E080818E7F80831092E4
:10748000E20008951092DA001092E10008951F9230
:107490000F920FB60F9211242F933F934F935F9348
:1074A0006F937F938F939F93AF93BF93EF93FF93CC
:1074B0008091DA0080FF1BC08091D80080FF17C048
:1074C0008091DA008E7F8093DA008091D90080FF6E
:1074D0000BC080E189BD82E189BD09B400FEFDCF0A
:1074E00081E08EBB98D103C019BC1EBA94D18091A3
:1074F000E10080FF17C08091E20080FF13C08091FF
:10750000E2008E7F8093E2008091E20080618093B0
:10751000E2008091D80080628093D80019BC85E099
:107520008EBB79D18091E10084FF2EC08091E20072
:1075300084FF2AC080E189BD82E189BD09B400FED3
:10754000FDCF8091D8008F7D8093D8008091E1009D
:107550008F7E8093E1008091E2008F7E8093E20035
:107560008091E20081608093E20080914A0188234B
:1075700011F084E007C08091E30087FD02C081E044
:1075800001C083E08EBB47D18091E10083FF21C021
:107590008091E20083FF1DC08091E100877F80938E
:1075A000E10082E08EBB10924A018091E1008E7F63
:1075B0008093E1008091E2008E7F8093E2008091D1
:1075C000E20080618093E20042E060E080E0D6DE8D
:1075D00022D1FF91EF91BF91AF919F918F917F91B8
:1075E0006F915F914F913F912F910F900FBE0F9030
:1075F0001F9018951F93CF93DF9300D0CDB7DEB7C0
:10760000ECE4F1E084E591E02091F10021938E1704
:107610009F07D1F7C7DD8091E80083FFE8C0809124
:107620004C0190914D01953009F46FC030F49130C8
:1076300071F168F0933059F1DAC0983009F4A8C0BC
:10764000993009F4B4C0963009F0D1C07FC08038B9
:1076500099F0823809F0CBC0809150018F7087304B
:1076600008F0C5C08093E9008091EB0085FB882776
:1076700080F91092E90001C080E09091E800977FC6
:107680009093E8008093F1001092F1008CC0282FB5
:107690002D7F09F0ACC0823009F0A9C080914E0165
:1076A00081112AC0809150018F702FEF280F263052
:1076B00008F09DC08093E9002091EB0020FF1CC0E2
:1076C000933021F48091EB00806214C09091EB0024
:1076D00090619093EB0021E030E0A90102C0440FDB
:1076E000551F8A95E2F74093EA001092EA008091D4
:1076F000EB0088608093EB001092E9008091E80035
:10770000877F8093E8004EDE72C0811170C01091B7
:107710004E011F778091E3008078812B8093E300F6
:107720008091E800877F8093E8003CDE8091E8004C
:1077300080FFFCCF8091E30080688093E30011110B
:1077400002C082E001C083E08EBB51C0805882300D
:1077500008F04DC06091500170915101AE014F5F32
:107760005F4F80914E0190914F0188DDBC01892BC4
:1077700009F43DC09091E800977F9093E8008981DB
:107780009A81A0DD8091E8008B778093E8002FC07C
:10779000803869F58091E800877F8093E8008091C8
:1077A0004A018093F1008091E8008E77AACF811181
:1077B0001EC080914E0190914F0199270297BCF411
:1077C0008091E800877F8093E80080914E0180934C
:1077D0004A01E8DD80914A01811106C08091E300F1
:1077E00087FD02C081E001C084E08EBBD7DC8091C0
:1077F000E80083FF0AC08091E800877F8093E8005B
:107800008091EB0080628093EB000F900F90DF91EE
:10781000CF911F9108950895CF938EB3882399F047
:10782000C091E900CF709091EC00892F817090FD9C
:1078300080E8C82B1092E9008091E80083FDDADE31
:0E784000CF70C093E900CF910895F894FFCF68
:10784E000109022200010100803209040000010337
:10785E000000000921110100012215000705810316
:10786E00400005120110010000000869699296019E
:10787E00000000000106DCFF09FBA1010902150052
:0A788E0025FF75089682009102C0E4
:040000030000700089
:00000001FF
