S02A0000617439306D6173736B6579626F6172647669727475616C73657269616C66617466732E737265631C
S1130000E0C00000FDC00000FBC00000F9C000001B
S1130010F7C00000F5C00000F3C00000F1C000000C
S1130020EFC00000EDC000000C94D22B0C94A42C63
S1130030E7C00000E5C00000E3C00000E1C000002C
S1130040DFC000000C949116DBC00000D9C0000092
S1130050D7C00000D5C00000D3C00000D1C000004C
S1130060CFC00000CDC00000CBC00000C9C000005C
S1130070C7C00000C5C00000C3C00000C1C000006C
S1130080BFC00000BDC00000BBC00000B9C000007C
S1130090B7C00000B5C0000052656164790D0A0064
S11300A0446973636F6E6E6563740D0A00436F6E0B
S11300B06E6563740D0A0068747470733A2F2F7739
S11300C077772E6672333370726F6A6563742E6F3E
S11300D072670D0A706F7765726564206279204CCF
S11300E055464120687474703A2F2F656C6D2D63EA
S11300F068616E2E6F72672F6673772F66662F3076
S113010030696E6465785F652E68746D6C20616E0D
S11301106420466174467320687474703A2F2F65A6
S11301206C6D2D6368616E2E6F72672F6673772F07
S113013066662F3030696E6465785F652E68746D0D
S11301406C0D0A0D0A005220256C692025690D0AE0
S1130150005720256C692025690D0A00534420624C
S11301606C6F636B733A20256C690D0A000D0A0DE0
S11301700A00666972737420534420736563746F54
S1130180723A0D0A006469736B5F696E6974696120
S11301906C697A6520737563636573730D0A007403
S11301A07279696E67202E2E2E206469736B5F69E5
S11301B06E697469616C697A650D0A000D0A0D0A2D
S11301C0000011241FBECFEFD0E2DEBFCDBF16E08A
S11301D0A0E0B1E0EEEDF4E600E00BBF02C0079052
S11301E00D92A238B107D9F72DE0A2E8B6E001C01C
S11301F01D92AC33B207E1F70E942A170C946D32BA
S1130200FFCE269A2E9808959091C80095FFFCCFB2
S11302108093CE000895CF93DF93EC0188818823E7
S113022071F08A3039F4909182069D3019F08DE096
S1130230EBDF8AE0E9DF899180938206EFCFDF91DB
S1130240CF910895E8DF8FE894E0E5CF1F93CF9333
S1130250DF93CDB7DEB761970FB6F894DEBF0FBE5C
S1130260CDBF182F81E1E7EAF1E0DE01119601909C
S11302700D928A95E1F7812F82958F70E1E0F0E08D
S1130280EC0FFD1FE80FF11D8081BEDF1F70E1E060
S1130290F0E0EC0FFD1FE10FF11D808161960FB6B8
S11302A0F894DEBF0FBECDBFDF91CF911F91ACCFCD
S11302B09F92AF92BF92CF92DF92EF92FF920F93F1
S11302C01F93CF93DF936115710509F441C08B012E
S11302D0EC01E12CF12C5B0181E0A81AB1086E015C
S11302E08FEFC81AD80A8881B1DF80E28DDF8FEFE3
S11302F0E81AF80AC7018F709927892B29F0C701DA
S113030001978A159B0591F42F979990892D90E078
S11303100E94D22E892B11F0892D01C08EE274DF48
S1130320CC15DD0591F78FE894E075DFE601E01662
S1130330F106A9F68FE894E0DF91CF911F910F9118
S1130340FF90EF90DF90CF90BF90AF909F9063CFDE
S1130350DF91CF911F910F91FF90EF90DF90CF909D
S1130360BF90AF909F9008958EBD0DB407FEFDCF52
S11303708EB508958FEFF8DF8FEFF6DF8FEFF4DFA0
S11303808FEFF2DF8FEFF0DF8FEFEEDF8FEFECDF39
S11303908FEFEADF8FEFE8DF8FEFE6CF4F925F92C8
S11303A06F927F928F929F92AF92BF92CF92DF9281
S11303B0EF92FF92CF93C82F4A015B01C12CD12C3D
S11303C0760188EE482E83E0582E612C712CC814D7
S11303D0D904EA04FB04B9F08FEFC6DF8C17C1F02F
S11303E08FEFC81AD80AE80AF80AC701B601A301B0
S11303F092010E94952E672B682B692B41F788EB9D
S113040091E020DFE4CF81ED91E01CDF80E001C0CA
S113041081E0CF91FF90EF90DF90CF90BF90AF90AD
S11304209F908F907F906F905F904F900895CF92A0
S1130430DF92EF92FF920F931F93CF93DF936B01A1
S11304407C018A01289896DF81E58EDFD701C601F9
S11304502FE0B695A795979587952A95D1F784DFD0
S1130460D701C60137E0B695A795979587953A9534
S1130470D1F77ADF8C2D880F77DF80E075DF8FEF7F
S113048073DF40EA56E861E070E080E087DF8111C5
S113049002C080E017C040EA56E861E070E08EEFE9
S11304A07DDF8823B1F3E80178018EEFF81A8FEF2E
S11304B05BDF8993CE15DF05D1F78FEF55DF8FEF23
S11304C053DF81E0289ADF91CF911F910F91FF9024
S11304D0EF90DF90CF900895292F332723303105F3
S11304E0E9F060F421303105A1F02230310509F042
S11304F041C086E790E029EC32E040C0213231056A
S1130500A1F122323105B1F580E490E021E533E038
S113051035C082E190E02FE333E030C02091340D08
S11305203091350D2F3F310529F42091C20A236003
S1130530206203C02091C20A28602093C20A99272E
S11305408130910569F038F00297A1F48EE390E0D0
S113055029E732E013C084E090E025EC32E00EC0DD
S11305608AE090E029EB32E009C089E090E022EFD4
S113057032E004C080E090E020E030E0FA01318312
S1130580208308958091C20A982F9A729A3251F06A
S1130590982F9970913021F085FD04C082E0089570
S11305A081E0089580E00895EDDF813029F0823004
S11305B031F482E792E0089589E692E008958EE5A9
S11305C092E00895811102C00C94741A81E0089598
S11305D0811102C00C94BC1981E008950F931F93FC
S11305E0FB01BA01A9019801811105C0CF011F9136
S11305F00F910C94771A84E01F910F9108950F9333
S11306001F93FB01BA01A9019801811105C0CF0113
S11306101F910F910C94B91A84E01F910F910895C2
S1130620962F811104C0BA01892F0C94281B84E0F1
S113063008950C94751DFC0162817381CB01A0E0C7
S1130640B0E0BA2FA92F982F88272181822BBA2FA7
S1130650A92F982F88272081BC01CD01622B0895F2
S1130660FC0140835183628373830895803468F06E
S11306708F3748F08F3749F021E090E08D3F08F044
S113068020E0822F089581E001C080E090E0089589
S11306900F931F93FC019A01AB01225031094109C8
S11306A051098789908DA18DB28D0297A109B10955
S11306B0281739074A075B0768F4A185B2850E94A9
S11306C0B72E03A514A525A536A5600F711F821F9B
S11306D0931F03C060E070E0CB011F910F91089558
S11306E0DC01ED91FC91309719F1AF014F5F5F4F41
S11306F0DA0111972C91213218F02A33B9F704C08A
S11307008091830690E00895208130ED320F3A30D5
S113071078F432964E175F0759F430E020533109CC
S1130720223031052CF4FC0151834083C901089522
S11307308FEF9FEF08950F931F93CF93DF93EC01F7
S11307408B01892BE9F0E881F9813097C9F0808128
S11307508823B1F02A813B81858196812817390746
S113076079F481812FDF80FD0BC02881398180E0FD
S1130770F80131832083DF91CF911F910F91089568
S113078089E020E030E0F4CFFB01428D538D60E03E
S113079070E0833059F484899589A0E0B0E0DC01ED
S11307A099278827482B592B6A2B7B2BCB01BA011D
S11307B00895FB01228F338FDC018C91833029F45F
S11307C0CA01AA27BB27848B958B08958F929F9289
S11307D0AF92BF92EF92FF920F931F93CF93DF9349
S11307E0FC0123812223B1F1EC017C01F3E3EF0E40
S11307F0F11C2FA538A949A95AA901E010E0B701B5
S11308008981FDDE811128C01B820FA518A929A9A1
S11308103AA98B8D9C8DAD8DBE8D8BA09CA0ADA077
S1130820BEA0B901A801481959096A097B094817EA
S113083059076A077B0770F46A81623059F4A90189
S11308409801280F391F4A1F5B1F01E010E0B70110
S11308508981D5DE80E001C081E0DF91CF911F91D5
S11308600F91FF90EF90BF90AF909F908F9008955D
S1130870EF92FF920F931F93CF93DF93EC01A6DFC8
S1130880982F811159C08881833009F04CC08C8124
S1130890813009F048C080E092E07E0123E3E20E5B
S11308A0F11CF7019C01119221503040E1F785E5DC
S11308B0FE01EF5CFD4F80838AEA3196808382E5F6
S11308C08BAB8CAB81E68DAB91E49EAB22E77B973F
S11308D020833196208331969083319680834F858F
S11308E0588969897A89CE01855E9D4FB9DE4B8529
S11308F05C856D857E85CE01815E9D4FB1DE8F8DD9
S113090098A1A9A1BAA19C01AD012F5F3F4F4F4F00
S11309105F4F2FA738AB49AB5AAB01E010E0B701EA
S113092089816DDE1C8240E050E060E0898178DEE0
S113093091E0811101C090E0892FDF91CF911F9147
S11309400F91FF90EF9008958F929F92AF92BF9274
S1130950FF920F931F93CF93DF93EC014A015B0146
S113096035DFF82E811115C001E010E0A5019401D6
S1130970BE016D5C7F4F898131DE882331F0FF2415
S1130980F39488248A94982C54018FA698AAA9AA2F
S1130990BAAA8F2DDF91CF911F910F91FF90BF9035
S11309A0AF909F908F9008950F931F93FC0107A51C
S11309B010A921A932A9041715072607370719F02A
S11309C01F910F91C1CF80E01F910F910895EF9275
S11309D0FF920F931F93CF93DF93EC01FC01EF5C25
S11309E0FD4FE080F1809BA99B3E21F0985E923000
S11309F008F051C025E5E2162AEAF20661F448E05F
S1130A0050E067EB73E0CE018B579F4F0E94D82EC6
S1130A10892B09F448C08EAD9FAD8C01015011099A
S1130A200823192301151105B1F58115924099F593
S1130A30FE01E05CFF4F8081882369F190E09C0116
S1130A402150310982239323892B29F53196808102
S1130A509181892B01F13296808190E00197029770
S1130A60D0F4319680819181892BA9F032968081CE
S1130A7091818038910548F4CE018D5A9F4FDBDD7A
S1130A80611571058140910530F0C75BDF4F8881A6
S1130A909981892B69F485E5E8168AEAF80631F02C
S1130AA003E010E005C000E010E002C002E010E046
S1130AB0C801DF91CF911F910F91FF90EF9008959E
S1130AC02F923F924F925F926F927F928F929F925A
S1130AD0AF92BF92CF92DF92EF92FF920F931F9348
S1130AE0CF93DF9300D000D0CDB7DEB742305105AD
S1130AF06105710508F4E0C0FC01C788D08CE18C65
S1130B00F28C4C155D056E057F0508F0D5C02801F3
S1130B1039016A017B019C838B838081823009F4D3
S1130B206FC0833009F48DC0813009F0C5C05A010B
S1130B30B694A794A40EB51EC501892F992786954E
S1130B4043A154A165A176A1480F591F611D711DD0
S1130B50CF012ADF182F8111B0C02B813C812D5C7D
S1130B603F4F3A83298315013FEF231A330A81E06B
S1130B70B822E981FA81EA0DFB1D4601570191E093
S1130B8089229924AA24BB24C0FE09C08081282F6D
S1130B902F7030E1439EC0011124822B01C0842DAB
S1130BA0808381E0EB81FC81838343A154A165A10F
S1130BB076A1C101892F99278695480F591F611D78
S1130BC0711DCF01F1DE182F811177C0F1E03F22B2
S1130BD0E981FA81E20DF31D89288A288B2841F0E6
S1130BE054E076946794579447945A95D1F706C085
S1130BF00081007F852D8F70402E482A408257C087
S1130C0077276F2D5E2D4D2DEB81FC8183A194A15F
S1130C10A5A1B6A1480F591F6A1F7B1FCF01C4DECF
S1130C20182F81114AC0EB81FC81F396CC0CDD1C9A
S1130C30E894C0F821E0D222EC0DFD1D40825182DF
S1130C4036C0EB81FC8183A194A1A5A1B6A127E0C4
S1130C5076956795579547952A95D1F7480F591F6B
S1130C606A1F7B1FCF01A0DE182F811126C04B8184
S1130C705C814D5C5F4FCC0CDD1CCC0CDD1CFCEFAF
S1130C80CF22F1E0DF22C40ED51EC601D4DC2FE052
S1130C907222DC01CB0188279927AA27B07FB301F0
S1130CA0A201482B592B6A2B7B2BC601D9DC81E08E
S1130CB0EB81FC81838301C012E0812F0F900F90A0
S1130CC00F900F90DF91CF911F910F91FF90EF90B4
S1130CD0DF90CF90BF90AF909F908F907F906F9058
S1130CE05F904F903F902F900895AF92BF92CF9214
S1130CF0DF92EF92FF920F931F93CF93DF934230D3
S1130D0051056105710508F49CC0FC010789108D2B
S1130D10218D328D401751076207730708F091C087
S1130D206A017B018C018081823009F44BC08330DD
S1130D3009F466C0813009F084C0EA01D695C795EC
S1130D40CC0DDD1DCE01892F9927869543A154A191
S1130D5065A176A1480F591F611D711DCF0124DEC5
S1130D60882321F06FEF7FEFCB016FC05E01FFEFAF
S1130D70AF1ABF0AD170C00FD11FCBA9C501892FEB
S1130D8099278695F80143A154A165A176A1480F3E
S1130D90591F611D711DC80107DE8111E3CFF1E008
S1130DA0BF22F801EA0DFB1D83A96C2F70E0782B9C
S1130DB0C0FE06C054E0769567955A95E1F71DC0CC
S1130DC07F701BC077276F2D5E2D4D2D83A194A1BD
S1130DD0A5A1B6A1480F591F6A1F7B1FCF01E4DDEF
S1130DE08111C0CFCC0CDD1CE894C0F8F1E0DF2207
S1130DF0F801EC0DFD1D63A974A980E090E025C005
S1130E0083A194A1A5A1B6A127E0769567955795EE
S1130E1047952A95D1F7480F591F6A1F7B1FCF01A9
S1130E20C3DD81119FCF0D5C1F4FCC0CDD1CCC0C9E
S1130E30DD1CC6018C7F9170800F911FFCDB9F70BD
S1130E4004C061E070E080E090E0DF91CF911F91F9
S1130E500F91FF90EF90DF90CF90BF90AF900895E7
S1130E604F925F926F927F928F929F92AF92BF92B6
S1130E70CF92DF92EF92FF920F931F93CF93DF9362
S1130E80EC016A017B014115510580E26807710597
S1130E9010F082E0A7C0DB01CA018F719927AA274D
S1130EA0BB27892B8A2B8B2BA1F7088119814E87AD
S1130EB05F87688B798B8E809F80A884B984811426
S1130EC09104A104B10451F5F8018081833040F00C
S1130ED087A190A5A1A5B2A50097A105B105E1F44C
S1130EE0F80187819085A0E0B0E0B701A60125E074
S1130EF076956795579547952A95D1F748175907D9
S1130F006A077B0730F687A190A5A1A5B2A58E8BB1
S1130F109F8BA88FB98F3DC04C015D01F8014184BE
S1130F205284612C712C39E0440C551C661C771CCE
S1130F303A95D1F7B501A401C414D504E604F70425
S1130F4010F188819981D1DE4B015C016F3F7F4FA5
S1130F508F4F9F4F09F445C082E088169104A10485
S1130F60B10408F496CFF8018789908DA18DB28DD4
S1130F7088169906AA06BB0608F08BCFC418D508B4
S1130F80E608F708D7CFC80183DB6E8B7F8B888F89
S1130F90998F8A8A9B8AAC8ABD8A8E899F89A88DFB
S1130FA0B98D0097A105B10509F473CFB701A60166
S1130FB029E076956795579547952A95D1F7840F3B
S1130FC0951FA61FB71F8E8B9F8BA88FB98F0D5CA3
S1130FD01F4FF1E0DF22C00ED11EDB8ECA8E80E0EF
S1130FE001C081E0DF91CF911F910F91FF90EF90AD
S1130FF0DF90CF90BF90AF909F908F907F906F9035
S11310005F904F9008954F925F926F927F928F926C
S11310109F92AF92BF92CF92DF92EF92FF920F9383
S11310201F93CF93DF938C012A013B01FC01C08104
S1131030D181411551056105710599F48B849C8416
S1131040AD84BE8481149104A104B10451F18F894B
S1131050988DA98DBA8D88169906AA06BB0628F123
S113106020C0CE0142DE623071058105910508F48D
S1131070EAC06F3FFFEF7F078F079F0729F44FEF09
S11310803FEF2FEF9FEFE7C0CF88D88CE98CFA8C25
S11310906C157D058E059F0508F4DAC053014201E5
S11310A004C0812C912C540183948F859889A9893B
S11310B0BA89892B8A2B8B2B11F440E0C5C0841488
S11310C09504A604B70409F046C0750164012FEF26
S11310D0C21AD20AE20AF20A8F89988DA98DBA8DB2
S11310E0C816D906EA06FB0628F092E0C92ED12CD0
S11310F0E12CF12CB701A601F80180819181F5DD85
S1131100613071058105910509F49DC06F3FFFEFC2
S11311107F078F079F0709F4B2CF672B682B692BD2
S1131120A9F08B859C85AD85BE8582309105A1058E
S1131130B10588F04F89588D698D7A8D841795078C
S1131140A607B70740F44C015D0105C0C114D104E2
S1131150E104F104C9F5750164012FEFC21AD20A42
S1131160E20AF20A8F89988DA98DBA8DC816D9061C
S1131170EA06FB0660F082E088169104A104B1043B
S113118008F49BCF82E0C82ED12CE12CF12CB701BE
S1131190A601F80180819181A8DD611571058105A1
S11311A0910591F0613071058105910509F44BC0F9
S11311B06F3F7F4F8F4F9F4F09F461CFC814D904FD
S11311C0EA04FB0451F679CF0FEF1FEF9801B70142
S11311D0A601CE0175DC811133C0411451046104B0
S11311E07104E9F4CB86DC86ED86FE868F859889CA
S11311F0A989BA894F89588D698D7A8D42505109D0
S113120061097109481759076A077B0788F0019734
S1131210A109B1098F87988BA98BBA8B09C0970153
S11312208601B301A201CE014BDC8823D9F208C0A8
S11312308C8181608C834C2D3D2D2E2D9F2D0BC0D8
S1131240813009F41CCF41E030E020E090E003C09D
S1131250462F372F282F642F732F822FDF91CF91A2
S11312601F910F91FF90EF90DF90CF90BF90AF90C0
S11312709F908F907F906F905F904F9008954F92C2
S11312805F926F927F928F929F92AF92BF92EF92F2
S1131290FF920F931F93CF93DF937C014A015B016D
S11312A0B901A80122E082169104A104B10410F44A
S11312B082E062C0FC01C081D1818F89988DA98DA3
S11312C0BA8D88169906AA06BB0690F741155105F2
S11312D06105710539F00FEF1FEF9801CE01F0DBC6
S11312E081114AC0B501A401F70180819181FDDC1F
S11312F02B013C01611571058105910511F480E014
S11313003BC0613071058105910591F26F3F7F4FBC
S11313108F4F9F4F81F100E010E09801B501A401C7
S1131320CE01CEDB811128C08F859889A989BA891D
S11313304F89588D698D7A8D4A015B01E2E08E1ADE
S11313409108A108B10888159905AA05BB0550F4B0
S11313500196A11DB11D8F87988BA98BBA8B8C81A7
S113136081608C8353014201441655066606770654
S113137008F4B8CFC4CF81E0DF91CF911F910F91D2
S1131380FF90EF90BF90AF909F908F907F906F9061
S11313905F904F9008958F929F92AF92BF92CF9299
S11313A0DF92EF92FF920F931F93CF93DF93EC01A1
S11313B06A017B010BDA811136C0B701A601CE01A7
S11313C067D94B015C016FA778AB89AB9AAB6E010F
S11313D023E3C20ED11C80E092E0F6019C0111923D
S11313E021503040E1F7E12CF12C89859A85E816EB
S11313F0F90640F081E029853A852E153F05A1F4D0
S113140080E012C001E010E0A50194012E0D3F1D03
S1131410411D511DB6018981F2D88111EBCF3FEFF7
S1131420E31AF30AE2CF81E0DF91CF911F910F918C
S1131430FF90EF90DF90CF90BF90AF909F908F90F0
S113144008954F925F926F927F92AF92BF92CF9224
S1131450DF92EF92FF920F931F93CF93DF93EC01F0
S113146008811981CE84DF84E888F98880E2C80E77
S1131470D11CE11CF11CC114D104E0E2EE06F1041C
S113148020F01E8A1F8A188E198E8E899F89A88D36
S1131490B98D0097A105B10509F4A2C05B01B7019C
S11314A0A601517066277727452B462B472B09F059
S11314B089C00196A11DB11D8E8B9F8BA88FB98FFA
S11314C04A895B896C897D89F8014115510561055B
S11314D07105C1F487819085A0E0B0E0B701A60151
S11314E035E076956795579547953A95D1F748171E
S11314F059076A077B0708F465C01E8A1F8A188E7D
S1131500198E6EC0818592850197A0E0B0E0260116
S1131510370129E076946794579447942A95D1F734
S113152084219521A621B721892B8A2B8B2B09F0A5
S113153049C0C801DADB2B013C0162307105810529
S1131540910510F482E04FC08FEF481658066806E4
S1131550780611F481E047C0F8018789908DA18D48
S1131560B28D481659066A067B0600F1AB2829F2AB
S11315704A895B896C897D89CE0145DD2B013C015B
S1131580611571058105910569F161307105810568
S11315909105C1F28FEF4816580668067806D1F215
S11315A0B301A201C801F7DE8111D4CF4A8A5B8A54
S11315B06C8A7D8AB301A201C8016AD86E8B7F8BC5
S11315C0888F998FCE86DF86E88AF98A0D5C1F4F53
S11315D0E1E0DE22C00ED11EDB8ECA8E80E003C0A5
S11315E084E001C087E0DF91CF911F910F91FF90BC
S11315F0EF90DF90CF90BF90AF907F906F905F900F
S11316004F9008952F923F924F925F926F927F92E4
S11316108F929F92AF92BF92CF92DF92EF92FF92FE
S11316200F931F93CF93DF9300D000D0CDB7DEB7D5
S11316309C838B838B01DC016D907C90FB0180810A
S11316408F3211F08C3511F498010CC0F3018389A9
S11316509489A589B689EB81FC8186839783A087C9
S1131660B1870FC08901D9018C912F5F3F4F8F3211
S1131670C9F38C35B9F3EB81FC811682178210868D
S11316801186D8018C91803260F0CB80DC80BCE183
S1131690CB0ED11C65E0262EF301F396FA83E98381
S11316A063C080E8AB81BC8197968C93979740E0A8
S11316B050E0BA01CD010F900F900F900F90DF9181
S11316C0CF911F910F91FF90EF90DF90CF90BF903B
S11316D0AF909F908F907F906F905F904F903F90CE
S11316E02F90BECBAB81BC815A96ED91FC915B9758
S11316F08081882309F407C183858F7314968C93A2
S1131700838583FFF6C060E070E08B819C8199DE65
S1131710B82E81110DC0AB81BC8156964D915D915F
S11317206D917C915997C7013FD9B82E8823D1F286
S1131730EB81FC8187A1B110E9C082FD0BC1EB8173
S1131740FC81848184FFF5C0668577857170898109
S11317509A81680F791FD3018C9116D8EB81FC8193
S113176066837783808791874BE050E060E270E086
S1131770C6010E94EE2EF80180818E3241F0E12CE8
S1131780F12C412C512C58E0A52EB12C59C0D80174
S1131790F60120E030E02F5F3F4F8D918E3231F41F
S11317A02330310509F4C8C08193F5CF8F3229F075
S11317B08C3519F0813208F0BFC0020F131F81323B
S11317C010F484E201C080E2AB81BC8197968C93D3
S11317D085C0FFE23F1609F440C08CE53816E9F1F4
S11317E09EE2391609F4ABC0EA14FB0408F0A4C065
S11317F0A0E8A31508F05CC0BFE9B315D8F1F2E086
S11318004F0E511CF801E80DF91D9080892D0E949E
S11318103603892B09F490C0C5010197E816F9062F
S113182008F08AC0F601EE0DFF1D3082F7013196F3
S1131830EC0DFD1D82E0E80EF11C908242012401B2
S11318404201BFEF8B1A9B0AF801E40DF51D3080AD
S1131850E0E2E31508F4BDCF12C0F801E80DF91D6C
S113186002C08C3561F44F01801A910A81918F3244
S1131870C1F7F9CF80E2830D8D3108F219C0EF284A
S113188009F45AC0EB81FC81848D853E09F4248ED1
S1131890080D191DF0E2F31520F4D8018C91813262
S11318A010F484E001C080E0EB81FC8187A316C0C2
S11318B0632D70E081E993E00E94F52E892BE1F518
S11318C08FE9830D8A3110F490EE390EF601EE0D96
S11318D0FF1D3082D70111967D01B1CFAB81BC8150
S11318E0ED90FC90119740E050E0BA01CD01B8DAD8
S11318F00FCF4BE050E0B601CF010E94D82E892BC8
S113190009F001CF15CF44E0B42E12CFF4E0BF129A
S113191021C0982F947085FF0AC0992309F424CF1D
S113192080E8AB81BC8197968C93B12C13C0911144
S113193011C035E0B32E0EC026E0B22E0BC0BBE0C2
S1131940AB16B104C9F388E0E82EF12C9BE0A92E74
S1131950B12C75CF8B2D0F900F900F900F90DF91BE
S1131960CF911F910F91FF90EF90DF90CF90BF9098
S1131970AF909F908F907F906F905F904F903F902B
S11319802F900895EF92FF920F931F93CF93DF93BD
S1131990EC017B010881198184E04E895F89688D9F
S11319A0798D411551056105710531F1C8010E9418
S11319B0D404811123C0EA8DFB8D9081992319F100
S11319C083858F738C83953E81F09E3271F08F30C6
S11319D061F08F7121E030E0883011F020E030E0D8
S11319E02E153F0511F480E010C060E070E0CE01D8
S11319F028DD882391F202C08823A9F31E8A1F8A56
S1131A00188E198E02C084E0F9CFDF91CF911F9117
S1131A100F91FF90EF9008950F931F93CF93DF934F
S1131A20EC010881198140E050E0BA0119DA811112
S1131A3015C04E895F89688D798DC8010E94D404D0
S1131A4081110CC0EA8DFB8D9081953E51F0992354
S1131A5041F061E070E0CE01F4DCE9CF843009F4B8
S1131A6087E0DF91CF911F910F9108950F931F93FA
S1131A70CF93DF93EC0108811981CEDF81111CC063
S1131A804E895F89688D798DC8010E94D4048111C3
S1131A9013C0EA8DFB8D90E2DF011D929A95E9F760
S1131AA0AA8DBB8DFE017C969BE001900D929A95C8
S1131AB0E1F791E0F8019383DF91CF911F910F91AA
S1131AC008954F925F926F927F928F929F92AF92FE
S1131AD0BF92CF92DF92EF92FF920F931F93CF9317
S1131AE0DF93CDB7DEB7A0970FB6F894DEBF0FBE75
S1131AF0CDBF5B01F42EDB011D921C920E9470038A
S1131B006C0197FD69C2FC01EE0FFF1FEA57F94F04
S1131B10008111810115110509F460C2F5011183D9
S1131B200083FF2DFE7FFF2ED8018C91882369F05E
S1131B3011968C910E94E20280FD07C0FF2009F4F7
S1131B404FC282FF4DC28AE057C2F8011082C1829F
S1131B508C2D0E94E80280FD45C2FF2011F082FD19
S1131B60F2CFD80113961C928FEF9FEFDC01F8019E
S1131B7087A790ABA1ABB2AB40E050E0BA01C8017B
S1131B800E94A40481114EC0C8010E94E70482305F
S1131B90910509F049C06801F7E0CF1AFEEFDF0AAA
S1131BA09E012F5F3F4F7901480137EC831A3DEFC7
S1131BB0930A5701C6010E941B03D5016D937D93BF
S1131BC08D939D935D01B0E1CB0ED11CC814D90453
S1131BD089F76E01E1E1CE0ED11C88248A94982CF9
S1131BE05401D7014D915D916D917D917D01411518
S1131BF051056105710509F4F9C1F801138287A63D
S1131C0090AAA1AAB2AAC8010E94D4048111F1C168
S1131C10C8010E94E7048230910530F0CE14DF043D
S1131C2001F702C084E090E08430910509F4DCC13E
S1131C30029710F08DE0E0C1F80186AD97AD8115F3
S1131C409240C1F7F801E75BFF4F40805180411497
S1131C50510419F0612C712C07C0C801895A9F4F97
S1131C600E941B032B013C01D8019F962D913D91AD
S1131C704D915C91D297298B3A8B4B8B5C8BF801FD
S1131C80438E548E658E768EED5BFF4FA080129648
S1131C90AC9212978FEF8A0D823060F63397B08042
S1131CA08B2D90E0F80192878187009719F29C01AF
S1131CB02150310982239323892B09F0BBCFEC5B9C
S1131CC0FF4F8080918018969C928E921797C40142
S1131CD08F709927892B09F0ADCF3296808191813D
S1131CE06C01E12CF12C892B39F4C8018D5A9F4FDA
S1131CF00E941B036B017C01F801EF5BFF4F019015
S1131D00F081E02D309709F495CFAA2DB0E0A3011E
S1131D1092010E94B72E698F7A8F8B8F9C8F9F01BF
S1131D2040E050E02D8F3E8F4F8F58A3C401F4E064
S1131D3096958795FA95E1F7280F391F411D511D96
S1131D40DA01C901298D3A8D4B8D5C8D280F391F1D
S1131D504A1F5B1F2D8B3E8B4F8B588FC216D306A9
S1131D60E406F50608F466CFC701B601621B730BDF
S1131D70840B950B2B2D30E040E050E00E94952E13
S1131D80DA01C9010197A109B109853F9F4FAF4FFE
S1131D90BF4008F04FCF263F8FEF3807410551056C
S1131DA050F4263F9FE039074105510540F4AA2429
S1131DB0A394B12C07C073E0A72EB12C03C062E03A
S1131DC0A62EB12C69017A01A2E0CA0ED11CE11C35
S1131DD0F11CF801C78AD08EE18EF28E29893A89E6
S1131DE04B895C89278F30A341A352A38D8D9E8D8F
S1131DF0AF8DB8A1280F391F4A1F5B1F2D8F3E8F4F
S1131E004F8F58A323A334A345A356A349895A89C2
S1131E106B897C898D899E89AF89B88D480F591F3C
S1131E206A1F7B1F43A754A765A776A7B3E0AB1629
S1131E30B104E1F4E35AFF4F80819181892B09F0C9
S1131E40F9CE892809F0F6CEC801815A9F4F0E9425
S1131E501B03F80167A370A781A792A742E0CC0CEB
S1131E60DD1CEE1CFF1C4A95D1F732C0892809F409
S1131E70E1CE8D8D9E8DAF8DB8A1298D3A8D4B8D80
S1131E805C8D820F931FA41FB51FF80187A390A731
S1131E90A1A7B2A7F2E0AF16B10429F4CC0CDD1C63
S1131EA0EE1CFF1C15C0A3E0B0E0A70196010E9440
S1131EB0B72EDC01CB01B695A7959795879521E0C0
S1131EC0C222DD24EE24FF24C80ED91EEA1EFB1E06
S1131ED03FEFC30E31E0D31EE11CF11C89E0F69400
S1131EE0E794D794C7948A95D1F74C145D046E0493
S1131EF07F0408F49FCE8FEF9FEFDC01F801878702
S1131F00908BA18BB28B83879487A587B68780E853
S1131F108483F3E0AF16B10409F049C0F801ED5928
S1131F20FF4F80819181019709F041C049895A8905
S1131F306B897C894F5F5F4F6F4F7F4FC8010E9451
S1131F40D404811134C0D80114961C92F801EF5CBA
S1131F50FD4F8081918185359A4A49F5C801C39620
S1131F600E941B03623572458146914401F5C80104
S1131F70895E9D4F0E941B036237724781449146DC
S1131F80B1F4C801855E9D4F0E941B03D8011F96C2
S1131F906D937D938D939C935297C801815E9D4F61
S1131FA00E941B03F8016387748785879687D8018D
S1131FB0AC92809184069091850601969093850653
S1131FC08093840616969C938E931597F801138A32
S1131FD0148A158A168A04C08BE00EC08CE00CC0EB
S1131FE080E00AC083E008C081E006C083E090E09E
S1131FF015CE84E090E012CEA0960FB6F894DEBF22
S11320000FBECDBFDF91CF911F910F91FF90EF9045
S1132010DF90CF90BF90AF909F908F907F906F9004
S11320205F904F9008951F93CF93DF9300D000D01B
S113203000D0CDB7DEB79C838B837E836D83142F52
S11320407A836983CE0101960E94700397FD21C0B3
S1132050880F991FFC01EA57F94F0190F081E02D98
S1132060309709F01082EB81FC81309709F01082DF
S1132070FC01EA57F94F2B813C81318320831123E2
S113208051F040E0BE016D5F7F4FCE01059619DD32
S113209003C08BE001C080E026960FB6F894DEBF43
S11320A00FBECDBFDF91CF911F9108954F925F92E4
S11320B06F927F928F929F92AF92BF92CF92DF9254
S11320C0EF92FF920F931F93CF93DF93CDB7DEB7B9
S11320D0E0970FB6F894DEBF0FBECDBF7CA76BA709
S11320E0009709F45BC1142F7C01242F2F73C22E97
S11320F0422FBE01675D7F4FCE018B96E2DCD82E66
S1132100811159C189A59AA59A8389836BA57CA558
S1132110CE01019677DA811103C098A597FD86E078
S1132120912F9C7109F46FC0882359F0843019F4FD
S1132130CE0101969BDC3C2D3860C32E882339F0F8
S113214034C18D81817109F02FC112FD29C1C3FEF3
S113215068C00E9407204B015C018B8D9C8DB501EA
S1132160A4010E960E9430038B8D9C8DB501A401B1
S113217046960E943003AB8CBC8C09A51AA5B50108
S1132180D8018C910E94C4032B013C0180E2F5012B
S11321908387EB8DFC8D128E138ED8018C91833046
S11321A011F4148A158AEB8DFC8D148E158E168EFF
S11321B0178E81E0F8018383411451046104710492
S11321C069F187A490A8A1A8B2A800E010E0980142
S11321D0B301A201CE01019652D88111E6C0B50126
S11321E0A40189A59AA50E94D404E9A5FAA521E031
S11321F0421A5108610871084386548665867686BA
S1132200882351F0D2C08111D0C08D8184FDCAC011
S113221011FF02C080FDC8C0C3FE03C03C2D306462
S1132220C32E09A51AA5F80187A590A9A1A9B2A949
S1132230F701848F958FA68FB78FAB8CBC8CB1A21E
S1132240A0A2B501D8018C910E94C4032B013C01CA
S1132250F7016683778380879187C5014C960E9436
S11322601B034B015C01D7011A966D937D938D93EB
S11322709C931D9711961C930E93F801858196816A
S113228013969C938E9312971E96CC921E971F962C
S11322901C921F9758961D921D921D921C925B973B
S11322A0F701108A118A128A138AC5FE80C081142C
S11322B09104A104B10409F47AC050968D929D92C0
S11322C0AD92BC925397F80181859285A0E0B0E06D
S11322D09C01AD0169E0220F331F441F551F6A950D
S11322E0D1F72DA73EA74FA758AB8DA59EA5AFA5A7
S11322F0B8A988159905AA05BB0500F5B301A20183
S1132300D7018D919C910E9475062B013C012DA54E
S11323103EA54FA558A9821A930AA40AB50A6230A9
S113232071058105910540F06F3F7F4F8F4F9F4F9F
S1132330E1F6DD24D39402C082E0D82ED70154966E
S11323404D925D926D927C925797D11034C0D50115
S1132350C4019170AA27BB27892B8A2B8B2B39F1B7
S1132360B301A20189A59AA50E94480361157105CC
S113237081059105F1F029E0B694A7949794879488
S11323802A95D1F7DC01CB01880D991DAA1DBB1D2F
S1132390F701808F918FA28FB38F09C089E00FC09E
S11323A088E003C084E001C087E0D82E04C080E048
S11323B006C092E0D92ED7011D921C928D2DE09675
S11323C00FB6F894DEBF0FBECDBFDF91CF911F9142
S11323D00F91FF90EF90DF90CF90BF90AF909F90C0
S11323E08F907F906F905F904F9008952F923F92BF
S11323F04F925F926F927F928F929F92AF92BF9211
S1132400CF92DF92EF92FF920F931F93CF93DF93BC
S113241000D000D0CDB7DEB77C014B015A013C831C
S11324202B83F90111821082BE016F5F7F4F0E94DE
S11324309B03811114C1F7018785811110C1868521
S113244080FF0CC182859385A485B5854089518917
S113245062897389841B950BA60BB70BA50160E0F9
S113246070E084179507A607B70708F07BC05C01E6
S113247079C0F70180899189A289B389AC01BD0132
S1132480517066277727452B462B472B09F0BDC093
S1132490E981FA810185128501501109AC01BD0160
S11324A039E076956795579547953A95D1F7042382
S11324B015230115110509F45AC029803A80F70142
S11324C04489558966897789C1010E944803611549
S11324D071058105910509F461C02B013C01400E91
S11324E0511E611C711C6501CD2CDD24C694C114E0
S11324F0D10409F485C0F1018185928598012C0DE0
S11325003D1D8217930718F46C01C01AD10A860185
S1132510A3019201B401F10181810E94EE028111B3
S113252045C0E981FA81838181114AC0DC2CCC2425
S1132530DD0CAC18BD08EB81FC81808191818C0D90
S11325409D1D918380838C0C9D1CF701808991894A
S1132550A289B3898C0D9D1DA11DB11D808B918B0A
S1132560A28BB38BA114B10409F083CF75C0F7011A
S1132570892B8A2B8B2B29F4668177818085918521
S113258008C04489558966897789808191810E9430
S11325907506623071058105910510F482E007C06B
S11325A06F3FFFEF7F078F079F0721F481E0F7015B
S11325B0878755C0F701648B758B868B978B7DCF8E
S11325C087A590A9A1A9B2A984199509A609B70953
S11325D0A60160E070E084179507A607B70708F026
S11325E0A5CFDC01BA2FAA27BB0FA80DB91DF396FE
S11325F020E032E001900D9221503040D9F796CF7F
S1132600F701408E518E628E738EF7018089918915
S1132610917020E032E0281B390B65012A153B0537
S113262008F46901F701408D518D628D738D8981A4
S11326309A810E94D4048111B9CF69817A816D5C39
S11326407F4FF701808991899170680F791FA601E6
S1132650C4010E94E52E6DCF80E001C087E00F9099
S11326600F900F900F90DF91CF911F910F91FF90DA
S1132670EF90DF90CF90BF90AF909F908F907F901E
S11326806F905F904F903F902F9008952F923F92BC
S11326904F925F926F927F928F929F92AF92BF926E
S11326A0CF92DF92EF92FF920F931F93CF93DF931A
S11326B000D000D0CDB7DEB77C014B015A013C837A
S11326C02B83F90111821082BE016F5F7F4F0E943C
S11326D09B03811172C1F701878581116EC18685C3
S11326E081FF6AC180899189A289B389AC01BD0146
S11326F04A0D5B1D611D711D481759076A077B0749
S113270008F0BEC05C01A094B094BAC0F7018089FF
S11327109189A289B389AC01BD01517066277727DD
S1132720452B462B472B09F01CC1E981FA81018511
S1132730128501501109AC01BD01E9E07695679558
S113274057954795EA95D1F70423152301151105EB
S113275009F49BC089819A81FC0147A450A861A80F
S113276072A8F701408D518D628D738D4416550604
S11327706606770609F4D1C069807A80F701448936
S1132780558966897789C3010E94480361157105DB
S11327908105910509F4A2C01B012C01200E311EF4
S11327A0411C511C6501CD2CDD24C694C114D104F7
S11327B009F4B9C0F3018185928598012C0D3D1D62
S11327C08217930718F46C01C01AD10A8601A2017A
S11327D09101B401F30181810E94FF02811186C03D
S11327E089819A81FC0147A550A961A972A942195E
S11327F0530964097509860120E030E04017510748
S11328006207730788F4DC01D396FA01FE2FEE27E2
S1132810FF0FE80DF91D20E032E001900D922150E8
S11328203040D9F7FC011382DC2CCC24DD0CAC182D
S1132830BD08EB81FC81808191818C0D9D1D91836C
S113284080838C0C9D1CF70180899189A289B389AE
S11328508C0D9D1DA11DB11D808B918BA28BB38B03
S11328604285538564857585481759076A077B0730
S113287010F4AC01BD01F701428753876487758763
S1132880A114B10409F042CF1EC0F701892B8A2B91
S11328908B2B69F46681778180859185611571053B
S11328A081059105B1F440E050E0BA0104C04489C7
S11328B0558966897789C7010E94030861157105E6
S11328C08105910531F4F70186858064868780E06F
S11328D074C0613071058105910511F482E007C06F
S11328E06F3FFFEF7F078F079F0721F481E0F70118
S11328F0878763C0F701648B758B868B978B4680C3
S113290057806084718445284628472809F022CFDF
S113291066837783808791871DCF0E94E60388238F
S113292009F42ACFE3CFF701408951896289738979
S113293082859385A485B585481759076A077B075F
S113294058F0C3010E94E6038111D0CFE981FA81D6
S113295027A630AA41AA52AAF701208E318E428EB0
S1132960538EF70180899189917020E032E0281B11
S1132970390B65012A153B0508F46901F701408DFF
S1132980518D628D738D89819A810E94D404811145
S1132990ADCF29813A812D5C3F4FF7018089918920
S11329A09170A601B401820F931F0E94E52EE98164
S11329B0FA8121E023833BCF87E00F900F900F90A3
S11329C00F90DF91CF911F910F91FF90EF90DF90C7
S11329D0CF90BF90AF909F908F907F906F905F90BB
S11329E04F903F902F9008958F929F92AF92BF92F5
S11329F0EF92FF920F931F93CF93DF9300D0CDB745
S1132A00DEB78C01BE016F5F7F4F0E949B03811173
S1132A1041C0F801968596FF3DC00E9407204B01F6
S1132A205C01F801448D558D668D778D89819A817D
S1132A300E94D40481112EC0F801E0A0F1A0F70196
S1132A40838580628387F80126813781408551859B
S1132A50B701808191810E94D903F8014285538591
S1132A6064857585C7014C960E943003B501A401A5
S1132A70C70146960E943003F701128A138A89819E
S1132A809A8121E0FC0123830E943804F801968591
S1132A909F7B96870F900F90DF91CF911F910F919D
S1132AA0FF90EF90BF90AF909F908F9008950F93F9
S1132AB01F93CF93DF9300D0CDB7DEB78C0194DFA3
S1132AC081110BC0BE016F5F7F4FC8010E949B0341
S1132AD0811103C0F801118210820F900F90DF91D1
S1132AE0CF911F910F910895BF92CF92DF92EF92F1
S1132AF0FF920F931F93CF93DF93CDB7DEB7C455E7
S1132B00D1090FB6F894DEBF0FBECDBF65969FAF57
S1132B108EAF659742E0BE016F5A7F4FCE018D5A4A
S1132B209F4F0E94610D811180C063968EAD9FAD51
S1132B3063979AA789A765966EAD7FAD6597CE0119
S1132B4089960E94020B811170C061968FAD6197C6
S1132B5085FD06C087FD04C0BDA4B0FC37C002C01B
S1132B6086E063C063960EAD1FAD639725966EAD88
S1132B707FAD2597F80180810E94C4036B017C011D
S1132B80B4FE26C0F80183899489A589B689C8163C
S1132B90D906EA06FB06D1F01A830983CF82D886C8
S1132BA0E986FA8640E050E0BA01CE0101960E941F
S1132BB0300781113AC060E070E0CE0101960E94B6
S1132BC0C20C882319F0843019F02FC087E02DC07F
S1132BD009A51AA523964CAD5DAD6EAD7FAD2397C7
S1132BE0C8010E94D404811120C02596EEADFFAD2A
S1132BF0259785EE808381E0F8018383C114D10495
S1132C00E104F10439F463968EAD9FAD63970E949D
S1132C1038040BC000E010E09801B701A601CE0112
S1132C2089960E943F09882371F3CC5ADF4F0FB66F
S1132C30F894DEBF0FBECDBFDF91CF911F910F91EE
S1132C40FF90EF90DF90CF90BF9008959BB19F735A
S1132C50892B8BB9089580913C0D90913D0DA091E5
S1132C603E0DB0913F0D880F991FAA1FBB1F181668
S1132C7019061A061B0644F025EB822725E992273C
S1132C802AEAA22720E2B22780933C0D90933D0DBF
S1132C90A0933E0DB0933F0D2091A20631E0320F78
S1132CA03093A206820F0895DF92EF92FF920F9362
S1132CB01F93CF93DF93F82EE92EEB018091A106A9
S1132CC0882329F0EF2DFE2D80E090E014C081E0F0
S1132CD08093A10601E916E089E0D82EBCDF6D2DB2
S1132CE00E94752E9F5CF80191938F01F6E0013AE2
S1132CF01F07A1F7E7CF8C179D0759F0DC01AF70D0
S1132D00BB27AF56B94F2C9130E0219331930196F4
S1132D10F2CFDF91CF911F910F91FF90EF90DF9051
S1132D2008951F920F920FB60F9211240BB60F92B3
S1132D302F933F934F935F936F937F938F939F93BF
S1132D40AF93BF93EF93FF938091C30A9091C40A0A
S1132D5001969093C40A8093C30A0E941903FF91B9
S1132D60EF91BF91AF919F918F917F916F915F91FF
S1132D704F913F912F910F900BBE0F900FBE0F906C
S1132D801F90189584B7877F84BF0FB6F894A895D1
S1132D9080916000886180936000109260000FBE93
S1132DA090E080E80FB6F8948093610090936100FE
S1132DB00FBE8FEF82B985B988B98BB981BB1092E8
S1132DC08000E1E8F0E01082808188608083AFE6D3
S1132DD0B0E08C9182608C9380E29EE490938900B1
S1132DE080938800808182608083789487E690E075
S1132DF09093CD008093CC0086E08093CA0010921B
S1132E00C80088E18093C900539A5A9A84ED93E0EC
S1132E100E94912380E090E00E949D2382E694E04A
S1132E200E94492F87EB90E09F938F930E94222F5B
S1132E300E9401010E94CE218AB1806C8AB98BB1B3
S1132E408F738BB955985D9A6A98729A0F900F9008
S1132E500C94B72BCF93DF93CDB7DEB7C456D1090B
S1132E600FB6F894DEBF0FBECDBF8CDF63EA76E009
S1132E7080E391E00E94B72480E4E8DE7894312C6A
S1132E8001E010E044244A948FE9582E94E6292E58
S1132E90CE0101967C0122E9622E24E0722E3AE7EB
S1132EA0A32E34E0B32E43EA842E46E0942E8BE521
S1132EB091E00E94DE278BE491E00E94C62680E325
S1132EC091E00E947D246C0197FD0BC080912D013F
S1132ED0803239F4C6010E94D22E892B11F0C0929F
S1132EE02D0168019FEFC91AD90A81E090E00F3FD4
S1132EF0EFE91E0710F480E090E0849D9001859D29
S1132F00300D949D300D112402171307F1F5F701CC
S1132F10222D11922A95E9F7809190068233A9F423
S1132F200E94D4029F938F93BF92AF929F928F92ED
S1132F300E94002F809190068F5F809390060F90DF
S1132F400F900F900F900F900F9080919006823306
S1132F5018F48F5F8093900611E0130D1F923F9237
S1132F6080912D011F928F937F926F92FF92EF9227
S1132F700E94792FB70180E391E00E94E0230FB60D
S1132F80F894DEBF0FBECDBF312E80E391E00E94E6
S1132F9067240E945B2E86018ACF8DEA90E09F937E
S1132FA08F930E94222F0F900F9080E84FCE80EADB
S1132FB090E09F938F930E94222F0F900F9080E4B4
S1132FC045CECF9388E990E09F938F930E94222F60
S1132FD08BE491E00E94B326C82F8BE591E00E9418
S1132FE0C127C82380E391E00E94BB239091E200B3
S1132FF094609093E2000F900F90CC2311F0811114
S113300002C080E401C080ECCF9120CE8BE591E03A
S11330100E9480278BE491E00E947C2580E391E06C
S11330200C94CB24CF93DF93EC0180918F06811114
S113303011C081E080938F060E94D4029F938F93E6
S11330408AED94E09F938F930E940F2F0F900F901F
S11330500F900F908091B906811102C080E8F6DDCF
S1133060CE01AED6C82F8091B906811102C080EC82
S1133070EDDD8C2FDF91CF910895809159019091CE
S11330805A01009729F0019790935A0180935901AE
S113309008950F931F93CF93DF93E90129B18CB166
S11330A02095207280958470282BE0918D06F091F4
S11330B08E063196CF016FE870E00E94812E892B35
S11330C029F0F0938E06E0938D0604C010928E06CC
S11330D010928D0680918C06882319F01882109224
S11330E08C06822F84702432F9F482E0888387E08E
S11330F08A83C1E0C0938C0680ECA8DDC093B90636
S11331000E94C202813031F040F0823031F480E01C
S113311091E005C08DE091E002C08CE191E09093D4
S11331208B0680938A0630C0882321F085E18A8348
S113313080E405C0207241F08AE08A8380E886DD5D
S113314081E08093B90620C08091B906882321F0DC
S11331501092B90680E07ADDE0918A06F0918B0640
S11331608081811105C010928B0610928A060CC0D2
S113317020918D0630918E06232B31F48A8331966B
S1133180F0938B06E0938A0688E090E0F80191833F
S1133190808380E0DF91CF911F910F9108958091FA
S11331A0B90681110CC0F901908190FF02C080E43E
S11331B001C080E091FD806892FD80EC47CD0895C8
S11331C008951CBC22982A9808958EBD0DB407FE5C
S11331D0FDCF8EB50895289A8FEFF7CF0F931F93E5
S11331E0CF93DF938C01EB0184E18093BD068FEFD5
S11331F0ECDF8F3F29F48091BD068111F8CF1BC00D
S11332008E3FC9F4F8018FEF8EBD0DB407FEFDCFDC
S11332109EB590838EBD0DB407FEFDCF9EB5918300
S113322022973296209781F78FEFCFDF8FEFCDDF94
S113323081E090E002C080E090E0DF91CF911F91A7
S11332400F910895F89482E390E09093BC068093E4
S1133250BB0678948FEFB9DF282FF8948091BB06D2
S11332609091BC0678942F3F11F0892B99F781E057
S113327090E02F3F11F080E090E00895CF93DF932A
S113328028988FEFA2DFDEDFEC01892B11F4A3DF96
S113329002C0C1E0D0E0CE01DF91CF910895FF924A
S11332A00F931F93CF93DF93C82FD42F152F062F7F
S11332B0F72E87FF08C040E050E0BA0187E3EFDF54
S11332C0823058F5CF77CC3071F48C2F80647DDF59
S11332D08F2D7BDF802F79DF812F77DF8D2F75DFB7
S11332E0CC23C9F006C077DFC9DF892B71F78FEFD4
S11332F014C0C83011F487E801C081E066DFCC3027
S113330011F48FEF62DFCAE08FEF5FDF87FF05C044
S1133310C150D1F702C085E9F5CFDF91CF911F915C
S11333200F91FF9008959C013E5FFC0140814EBDCA
S11333300DB407FEFDCFFC0141814EBD0DB407FE67
S1133340FDCF02968217930781F78FEF3EDF8FEF51
S11333503CDF8FEF3ADF282F2F7181E090E025309A
S113336011F080E090E0089587E085B984B187602A
S113337084B983E58CBD0895CF92DF92EF92FF92DA
S11333800F931F93CF93DF9300D000D0CDB7DEB758
S113339018DF8AE08093BD068091BD068111FCCFC1
S11333A08091940181FD91C0DFDF82E58CBD1AE03C
S11333B08FEF0BDF1150E1F740E050E0BA0180E0FD
S11333C06EDF813009F070C084E68093BD064AEA5E
S11333D051E060E070E088E062DF813009F03FC0D6
S11333E08E010F5F1F4F6E0185E0C80ED11C78015E
S11333F08FEFEBDEF70181937F01CE16DF06C1F775
S11334008B81813009F050C08C818A3A09F04CC01C
S11334108091BD06811106C08091BD06882309F400
S113342043C009C040E050E060E070E489EA37DF5F
S11334308111EECFF1CF40E050E0BA018AE32FDFF3
S1133440811132C08FEFC1DEF80181938F01CE1656
S1133450DF06C1F7898186FD29C018E028C040E055
S113346050E0BA0189EA1BDF823018F011E001E074
S113347002C014E009EA8091BD06811105C0809163
S1133480BD06882389F008C040E050E0BA01802FCF
S113349006DF8111F0CFF3CF40E052E060E070E04E
S11334A080E1FDDE882319F010E001C018E11093DB
S11334B0BA0691DE112341F0809194018E7F8093AE
S11334C0940180E58CBD01C07CDE809194010F9055
S11334D00F900F900F90DF91CF911F910F91FF905C
S11334E0EF90DF90CF900895809194010895EF922A
S11334F0FF921F93CF93DF937C01E901209781F121
S11335008091940180FD2EC08091BA0684FD07C08D
S113351089E0440F551F661F771F8A95D1F7C23083
S1133520D10510F411E101C012E1812FB8DE81113F
S113353011C060E072E0C70151DE892B21F08EEFEB
S1133540F81A2197B1F7123129F440E050E0BA019A
S11335508CE0A5DE40DE81E0CD2B29F480E003C0C1
S113356084E001C083E0DF91CF911F91FF90EF9041
S11335700895CF92DF92EF92FF920F931F93CF9310
S1133580DF938C016A017B01E901209709F452C0A1
S11335908091940180FD50C08091940182FD4EC0C1
S11335A08091BA0684FD07C099E0CC0CDD1CEE1CAA
S11335B0FF1C9A95D1F7C130D105C1F4B701A6011A
S11335C088E16DDE882319F0C1E0D0E02DC03ADE39
S11335D0892BD1F38EEFF9DDC801A5DE31E020E0BF
S11335E0892B09F030E0C32FD22F1EC08C7029F034
S11335F0AE0160E070E087E952DEB701A60189E11F
S11336004EDE811111C01EDE892B49F08CEFDDDD09
S1133610C80189DE892B19F01E5F2197A1F712DEFC
S1133620892B91F28DEFD1DDD6DD81E0CD2B39F4FC
S113363080E005C084E003C083E001C082E0DF9144
S1133640CF911F910F91FF90EF90DF90CF9008954D
S1133650CF92DF92EF92FF920F931F93CF93DF935A
S1133660CDB7DEB760970FB6F894DEBF0FBECDBFFF
S11336709091940190FD26C28B01833309F4FFC01D
S1133680A0F4833009F485C028F4882311F1813033
S113369011F11AC2873009F427C1823309F014C228
S11336A08091BA06FB01808325C1863309F40AC1DF
S11336B038F4843309F4E8C0853309F4EFC004C254
S11336C0883309F472C108F417C1893309F4BAC103
S11336D0FBC1D4DD04C140E050E0BA0189E0DFDD84
S11336E08111EDC160E170E0CE01019677DD892B97
S11336F009F4E5C1998192959695969593702985DB
S11337004A8588859130D9F430E0322F2227240F5E
S1133710311D8F7390E0A0E0B0E0DC019927882789
S11337200196A11DB11D820F931FA11DB11DFAE0C9
S1133730880F991FAA1FBB1FFA95D1F799C022952C
S1133740269526952370F4E08F9FC0011124820FE3
S1133750911D01962F81237030E0322F2227330FE1
S1133760330F820F931FA0E0B0E02E81322F3F7001
S11337702B85221F2227221F230F4370440F420F41
S1133780475004C0880F991FAA1FBB1F4A95D2F740
S11337906FC0F090BA0640E050E0BA01F3FE24C0D6
S11337A08DE87DDD81118BC18FEF0FDD60E170E06D
S11337B0CE01019613DD892B09F481C150E3F52E66
S11337C08FEF03DDFA94F110FBCF2B8522952F7038
S11337D080E190E0A0E0B0E004C0880F991FAA1F28
S11337E0BB1F2A95D2F744C089E059DD811167C116
S11337F060E170E0CE010196F1DC892B09F45FC130
S11338002B858C85F2FE16C02F73881F8827881F8E
S113381090E00196820F911D820F911D2E852295B5
S1133820269526952370215002C0880F991F2A954A
S1133830E2F71CC0382F337082958695877090E02C
S1133840F8E03F9F800D911D112401962C7730E004
S113385035952795359527952F5F3F4F829FA0017A
S1133860839F500D929F500D1124CA01A0E0B0E037
S1133870F80180839183A283B38310E021C140E0E7
S113388050E0BA0189E004C040E050E0BA018AE0A7
S113389006DD811114C160E170E01FC040E050E01A
S11338A0BA018AE3FCDC81110AC17801F4E0EF0E6D
S11338B0F11C8FEF8ADCF80181938F01EE15FF056F
S11338C0C1F7DBCF40E050E0BA018DE8E8DC8111BC
S11338D0F6C08FEF7ADC60E470E0C8017FDC11E0B1
S11338E0892B09F4EDC0C9CF6CDC8091940181600F
S11338F08093940110E0E9C0FB0143815481658108
S1133900768139E0440F551F661F771F3A95D1F72A
S11339107068808190E0A0E0B0E02CE1880F991FEE
S1133920AA1FBB1F2A95D1F7482B592B6A2B7B2B37
S11339308181928101979170A0E0B0E0482B592BCE
S11339406A2B7B2B80E3ABDC8111B9C084E68093C6
S1133950BD068FEF3ADC8F3F29F48091BD068111BB
S1133960F8CFADC08E3F09F0AAC0F801E780F0841B
S1133970C180D280CE0CDF1CCE14DF0431F08FEF77
S113398024DCF70181937F01F7CFF80181819281D3
S113399002E012E0081B190B0115110509F46DCFA3
S11339A08FEF13DC01501109F7CFFB0143815481E0
S11339B06581768139E0440F551F661F771F3A955C
S11339C0D1F77068808190E0A0E0B0E02CE1880F2E
S11339D0991FAA1FBB1F2A95D1F7482B592B6A2B75
S11339E07B2B8181928101979170A0E0B0E0482BFC
S11339F0592B6A2B7B2B81E352DC811160C08FEF42
S1133A00E4DB8EEFE2DBF801E780F084C180D28052
S1133A10CE0CDF1CEC14FD0429F0F70181917F0129
S1133A20D4DBF8CFF8018181928102E012E0081B17
S1133A30190B8FEF0115110509F43BC0C6DB0150CA
S1133A401109F7CFFB01438154816581768189E0B7
S1133A50440F551F661F771F8A95D1F774688081BC
S1133A6090E0A0E0B0E02CE1880F991FAA1FBB1FD3
S1133A702A95D1F7482B592B6A2B7B2B828190E016
S1133A80A0E0B0E0482B592B6A2B7B2B81E307DCA9
S1133A90811115C08FEF99DB8EEF97DBF8018181DF
S1133AA094DB01E012E08FEF90DB01501109D9F7AC
S1133AB08FEF8BDB8F7111E0853011F4DECE11E0D6
S1133AC08ADB03C013E001C014E0812F60960FB6B7
S1133AD0F894DEBF0FBECDBFDF91CF911F910F9140
S1133AE0FF90EF90DF90CF9008958091BD068823DA
S1133AF019F081508093BD068091BB069091BC065D
S1133B00882331F0815090E09093BC068093BB06EB
S1133B10089583B183B183B183B108952098F9DF07
S1133B202198F7DF209AF5DF219AF3CF209AF1DF6D
S1133B302198EFDF2098EDCF0F931F93CF93DF935E
S1133B40082FC8E0D0E010E8812F802311F02098DE
S1133B5001C0209ADEDF2198DCDF219ADADF169596
S1133B60219791F72098D5DF2198C3B1D2DF219A0C
S1133B70D0DF8C2F8095817090E0DF91CF911F91E1
S1133B800F910895CF92DF92EF92FF920F931F93BC
S1133B90CF93DF93F82EE62E8A01D22EC32ECAE0ED
S1133BA0D0E0BCDF8F2DC8DF892B19F42197C9F72A
S1133BB02CC08E2DC1DF892B41F1B0DF8F2D8160A8
S1133BC0BBDF892B11F1ED2CFC2C01501109C1E054
S1133BD0D0E0CC0FDD1F2198189921969ADF219A05
S1133BE098DFCF3FD105A9F3A0F301151105A9F082
S1133BF0209A8FDF21988DDF219A20988ADFF701A0
S1133C00C1937F010115110501F790DF81E090E078
S1133C10012B29F080E090E002C02098EACFDF91E8
S1133C20CF911F910F91FF90EF90DF90CF90089567
S1133C300F931F93CF93DF93CDB7DEB728970FB6BB
S1133C40F894DEBF0FBECDBF8C019E012F5F3F4FA6
S1133C5047E050E060E070E080ED94DF009709F405
S1133C6054C08981982F9695969596959E70292F84
S1133C70220F220F920F8F70890FF80187838A8198
S1133C80982F92959F708F70FAE09F9F800D11245A
S1133C90F80186838B81982F9695969596959670C4
S1133CA0292F220F220F920F282F2F70920F958306
S1133CB0877084838D81982F9695969596959670A6
S1133CC0292F220F220F920F8F70890F83838E81E9
S1133CD084FB992790F9990F292F220F220F920F15
S1133CE08F70890F82838F81282F22952F708F7078
S1133CF090E08053984FFAE02F9F800D911D11247E
S1133D00F8019183808381E090E028960FB6F894BF
S1133D10DEBF0FBECDBFDF91CF911F910F910895EC
S1133D20BF92CF92DF92EF92FF920F931F93CF93A4
S1133D30DF93EC01B62EC8A0DF8CEE8CFD8C0BA1BA
S1133D401AA1E3D2C616D706E806F90668F08091F0
S1133D509701807F85608093970181E28093A10120
S1133D601092A20180E022C09801B701A601CE0101
S1133D70BB2011F01DD401C0B6D3C801A0E0B0E04F
S1133D8029E0880F991FAA1FBB1F2A95D1F74C89D8
S1133D905D896E897F898A019B01081B190B2A0B97
S1133DA03B0B0C8B1D8B2E8B3F8B81E0DF91CF91D6
S1133DB01F910F91FF90EF90DF90CF90BF900895E7
S1133DC0CF92DF92EF92FF920F931F93CF93DF93E3
S1133DD0CDB7DEB728970FB6F894DEBF0FBECDBFC0
S1133DE08C01FC01838D8D3109F4B2C090F48231D1
S1133DF009F450C038F4882309F4DEC0833009F490
S1133E007FC0E0C08A3109F4BDC08B3109F4D4C04D
S1133E10D9C0883209F4B0C0B0F58E3109F4CCC0F1
S1133E20853209F0CFC071D2DC01CB010197A10921
S1133E30B1098D839E83AF83B88780E092E0A0E0D0
S1133E40B0E089839A83AB83BC8340E050E064E0B4
S1133E5070E0CE0105960E947D2940E050E064E0C8
S1133E6070E0CE0101960E947D298091E8008E7752
S1133E708093E800F80184899589A689B789089711
S1133E80A109B10994C08A3209F474C08F3209F4CB
S1133E9093C098C0F801E78CF68C848D837019F474
S1133EA0858D882341F080919701807F8560809380
S1133EB0970184E28EC06701F5E2EF16F10418F071
S1133EC094E2C92ED12C40E050E0B60180EF94E09A
S1133ED00E94342960E070E0C7018C199D090E949A
S1133EE0F5288091E8008E778093E800F8018489B2
S1133EF09589A689B7898C199D09A109B10957C06B
S1133F00F801F78CEF2CF2E1FF1510F482E1E82EB2
S1133F10CE2CD12C40E050E0B60185E991E00E941E
S1133F2034298F2D90E060E070E08C199D090E9487
S1133F30F5288091E8008E778093E800F801848961
S1133F409589A689B7898E199109A109B1092FC04C
S1133F50F801848D82FFA7CFC7D381112DC0809132
S1133F609701807F8460809397011092A101109241
S1133F70A2013DC060E001C061E0C801D1DE811151
S1133F802BC035C01092F1001092F1001092F10094
S1133F901092F1008091E8008E778093E800F80198
S1133FA084899589A689B7890497A109B109848B65
S1133FB0958BA68BB78B10C0F801148A158A168AC4
S1133FC0178A0AC080919701807F8560809397014A
S1133FD080E28093A101CBCF80919701807F809371
S1133FE097011092A1011092A20181E001C080E02A
S1133FF028960FB6F894DEBF0FBECDBFDF91CF91E8
S11340001F910F91FF90EF90DF90CF9008950F9341
S11340101F93CF93DF93CDB7DEB728970FB6F894ED
S1134020DEBF0FBECDBF80911A0D882309F449C0AD
S1134030CE010196FDDD4B8150E060E070E085E14A
S1134040440F551F661F771F8A95D1F78C81682B03
S11340508E8190E0A0E0B0E02BE0880F991FAA1FAA
S1134060BB1F2A95D1F7482B592B6A2B7B2B8F81A9
S113407090E0A0E0B0E035E0880F991FAA1FBB1FB5
S11340803A95D1F7842B952BA62BB72B288526950B
S1134090AC01BD01422B89819A818C5B9740A0E0E1
S11340A0B0E0E9E1880F991FAA1FBB1FEA95D1F779
S11340B08A019B01082B192B2A2B3B2BC901B80120
S11340C003C060E070E0CB0128960FB6F894DEBF21
S11340D00FBECDBFDF91CF911F910F910895AF9285
S11340E0BF92CF92DF92EF92FF920F931F93CF93E1
S11340F0DF93CDB7DEB7C754D3400FB6F894DEBF15
S11341000FBECDBF7E0124E5E21A2DEFF20A28E7A7
S1134110A22EF7012A2D11922A95E9F78E010C5C43
S11341201D4FF8012A2D11922A95E9F784E195E0B3
S11341300E94492F40E061E974E0CE0101960E949B
S113414013108111CAC081E295E00E94492F89E6CB
S113415090E00E9457321F928F9384E3C82E85E02B
S1134160D82EDF92CF92FF92EF920E94792FFF9286
S1134170EF9282E495E09F938F930E940F2FC701E3
S11341800E94741589E690E00E94573293E0B92E9C
S1134190B80EF7011192AA94E9F71F92BF92DF9229
S11341A0CF92FF92EF920E94792F1F92BF9280E6E6
S11341B095E09F938F931F930F930E94792F6B2DFC
S11341C089E690E00E945F32FF92EF928BE795E0E0
S11341D09F938F930E940F2F4BE0B701CE018C5D0C
S11341E09C4F0E9456100FB6F894DEBF0FBECDBF91
S11341F0811170C089E895E00E94492F8DE995E00E
S11342000E94492F1F930F938CEB95E09F938F93FC
S11342100E940F2FF80101900020E9F73197AF01B8
S1134220401B510B9E012A5B3C4FB801CE018C5DB3
S11342309C4F0E9446138AEC95E00E94492FCE01C0
S11342408C5D9C4F0E9457158FED95E00E94492F7D
S113425041E0B701CE018C5D9C4F0E9456100F9037
S11342600F900F900F90882319F087E096E037C0E5
S113427082E196E00E94492FF80101900020E9F7BD
S11342803197AF01401B510B9E012A5B3C4FB80193
S1134290CE018C5D9C4F0E94F611811112C01F93B8
S11342A00F938FE296E09F938F930E940F2F8EE3DC
S11342B096E00E94492F0F900F900F900F9011E0FD
S11342C001C010E0CE018C5D9C4F0E945715111166
S11342D009C0CBCF81E696E002C083E796E00E9456
S11342E0492F10E0812FC95BDC4F0FB6F894DEBF75
S11342F00FBECDBFDF91CF911F910F91FF90EF9033
S1134300DF90CF90BF90AF900895CF93DF9300D00C
S113431000D0CDB7DEB719821A821B821C8260914D
S1134320BE0A7091BF0A8091C00A9091C10A6115BA
S113433071058105910559F5AE014F5F5F4F61E04D
S113434080E00E94100389819A812B813C818093B3
S1134350BE0A9093BF0A2093C00A3093C10A3F93C8
S11343602F939F938F938CE591E09F938F930E945B
S1134370222F6091BE0A7091BF0A8091C00A909169
S1134380C10A0F900F900F900F900F900F900F9005
S11343900F900F900F90DF91CF9108950F931F937B
S11343A0CF93DF93CDB7DEB7D2500FB6F894DEBF0C
S11343B00FBECDBF8CEB91E09F938F930E94222F71
S11343C00F900F900FE911E01F930F930E94222F7B
S11343D080E00E94E8020F900F908111F5CF85E8EC
S11343E091E09F938F930E94222F8FDF8E010F5FA6
S11343F01F4F80E092E0F8019C011192215030405F
S1134400E1F7A80160E070E0CB010E94170282E7A7
S113441091E09F938F930E94222F60E072E0C80185
S11344200E9458018DE691E09F938F930E94222F62
S113443056DE0F900F900F900F900F900F9081E029
S1134440DE5F0FB6F894DEBF0FBECDBFDF91CF9114
S11344501F910F910895CF93DF93EC018091E800B1
S113446085FF33C08091F10088838091F1008983B6
S11344708091F1008A838091F1008B838091F10017
S11344808C838091F1008D838091F1008E838091E3
S1134490F1008F838091F10088878091F1008987F2
S11344A08091F1008A878091F1008B878091F100DF
S11344B08C878091F1008D878091F1008E878091A7
S11344C0F1008F8780E190E00BC08091E8008B774A
S11344D08093E8000E943F2B882321F280E090E043
S11344E0DF91CF9108958F929F92AF92BF92CF9216
S11344F0DF92EF92FF920F931F93CF93DF937C0190
S11345004A015B01E901DF93CF93BF92AF929F927F
S11345104F9381E591E09F938F930E94222F0E94F5
S11345203F2BEDB7FEB738960FB6F894FEBF0FBE1B
S1134530EDBF811130C08EEBC82E8AE0D82E2097B3
S113454009F10EEB18E040E050E060E070E0C801D3
S113455082DF005F1F4FC016D106A9F701E010E00B
S1134560A50194016EEB78E080E00E94FF02F70160
S113457080AD811110C0FFEF8F1A9F0AAF0ABF0AE6
S11345802197DDCF8091E80085FD05C08091E8008A
S11345908B778093E800DF91CF911F910F91FF906B
S11345A0EF90DF90CF90BF90AF909F908F90089541
S11345B08F929F92AF92BF92CF92DF92EF92FF922F
S11345C00F931F93CF93DF934A015B017901FF920D
S11345D02F93BF92AF929F924F9386E491E09F9363
S11345E08F930E94222F0E943F2B2DB73EB7285F46
S11345F03F4F0FB6F8943EBF0FBE2DBF811167C069
S11346008EEBC82E88E0D82EE114F10409F456C0CC
S113461001E010E0A50194016EEB76E080E00E94D9
S1134620EE02CEEBD6E08091E80085FF31C08881B0
S11346308093F10089818093F1008A818093F10055
S11346408B818093F1008C818093F1008D81809324
S1134650F1008E818093F1008F818093F100888531
S11346608093F10089858093F1008A858093F1001D
S11346708B858093F1008C858093F1008D858093E8
S1134680F1008E858093F1008F858093F10008C03E
S11346908091E8008E778093E800F1D7882339F27F
S11346A06096CC16DD0609F0BECF3FEF831A930A5D
S11346B0A30AB30A81E0E81AF108A6CF8091E800C2
S11346C085FD05C08091E8008E778093E800DF9136
S11346D0CF911F910F91FF90EF90DF90CF90BF90FB
S11346E0AF909F908F90089581E008959091C800B5
S11346F095FFFCCF8093CE0080E090E008958091F8
S1134700C80087FF08C08091C80087FF07C0809158
S1134710CE0090E008958EEF9FEF08958FEF9FEF06
S11347200895FC019191992339F08091C80085FF87
S1134730FCCF9093CE00F6CF0895FC01892B59F459
S11347408BE19DE09093370D8093360D9093390D56
S11347508093380DFC018EE0DF011D928A95E9F704
S113476083E0838386E793E2918780878FE793E2F0
S1134770938782870895CF93DF93EC01FC017096B1
S11347808BE0DF011D928A95E9F782E08C838987AB
S113479083E08E8761E0CE01019615D7882361F00E
S11347A061E0CE0106960FD7882331F061E0CE0197
S11347B00B96DF91CF9107C780E0DF91CF910895E9
S11347C0DB0120912D0D2430C9F4FC014489558965
S11347D066897789452B462B472B81F081818F7021
S11347E08093E900FD0101900020E9F73197BF01B2
S11347F06A1B7B0B40E050E0CD0136C582E0089592
S11348000F931F93CF9320912D0D2430F9F4FC01C5
S11348100489158926893789012B022B032BB1F0D2
S1134820C62F81818F708093E9008091E80085FF15
S113483004C0C093F10080E00AC08091E8008E7744
S11348408093E8001CD78823A1F301C082E0CF91B4
S11348501F910F910895FB01682F84859585D0DF02
S113486021E030E0811102C020E030E08827992760
S1134870821B930B089520912D0D243031F5FC01FA
S11348804489558966897789452B462B472BE9F05E
S113489081818F708093E9008091F2009091F30000
S11348A0892B89F09091E8008091E8008E778093BD
S11348B0E80095FD08C0E3D6811108C08091E800A6
S11348C08E778093E80080E0089582E00895209137
S11348D02D0D243089F4FC01448955896689778932
S11348E0452B462B472B41F021812F702093E90063
S11348F02091E80020FDBFCF089520912D0D243094
S113490019F08FEF9FEF0895FC014489558966895A
S11349107789452B462B472BA1F386818F70809393
S1134920E9008091E80082FFECCF8091F200909141
S1134930F300892B21F02091F10030E002C02FEF29
S11349403FEF8091F2009091F300892B29F480913C
S1134950E8008B778093E800C9010895FC01848501
S11349609585CBDF97FF02C08EEF9FEF0895FB0183
S11349702EE0DB011D922A95E9F723E023832BE245
S113498034E2318720872EEA34E233872287958701
S1134990848708950895CF93DF93EC018091E80014
S11349A083FFA7C0888190E02091320D3091330DB0
S11349B02817390709F09DC080912F0D813261F0CD
S11349C020F4803209F43EC094C0823209F46CC0F1
S11349D0833209F47EC08DC080912E0D813A09F096
S11349E088C08091E800877F8093E8008091E80088
S11349F080FFFCCF8C899D89AE89BF898093F100AB
S1134A00492F5A2F6B2F77274093F100AD0166276A
S1134A1077274093F1008B2F9927AA27BB278093F0
S1134A20F100888D8093F100898D8093F1008A8D47
S1134A308093F1008091E8008E778093E800DF9105
S1134A40CF91FEC580912E0D813209F052C0809124
S1134A50E800877F8093E8008091E80082FD05C02C
S1134A6080912D0D8111F8CF44C03091F100209137
S1134A70F1009091F1008091F1003C8B2D8B9E8B85
S1134A808F8B8091F100888F8091F100898F8091C4
S1134A90F1008A8F8091E8008B778093E800D0D56D
S1134AA0CE01DF91CF9176CF80912E0D813209F521
S1134AB08091E800877F8093E800C2D58091300D13
S1134AC09091310D998B888BCE01DF91CF910C940D
S1134AD0E01880912E0D813261F48091E800877F87
S1134AE08093E800ADD56091300DCE01DF91CF9178
S1134AF051CFDF91CF9108956F927F928F929F92C1
S1134B00AF92BF92CF92DF92EF92FF920F931F93D7
S1134B10CF93DF9300D01F92CDB7DEB77C01ADB643
S1134B20BEB68091E80083FF07C1F701808190E061
S1134B302091320D3091330D2817390709F0FCC04C
S1134B4080912F0D833009F49EC030F4813071F0D0
S1134B50823009F4D5C0F0C08A3009F4B9C08B3072
S1134B6009F4A2C0893009F0E7C04FC080912E0D2E
S1134B70813A09F0E1C08DB69EB61A8219828091FD
S1134B80300D1091310D8B83F7018085482F50E053
S1134B908DB79EB7841B950B0FB6F8949EBF0FBEBE
S1134BA08DBFEDB7FEB731966F0160E070E0CF01C5
S1134BB00E94EE2E4FEF410F8E010F5F1F4F9601A3
S1134BC0BE016D5F7F4FC7010E944918F7018681BE
S1134BD09781009729F0408550E0B6010E94E52EA8
S1134BE01092E9008091E800877F8093E8008B8130
S1134BF081118093F10069817A81C60115D4809175
S1134C00E8008B778093E80038C080912E0D8132C4
S1134C1009F092C08DB69EB60091340D1091350DF9
S1134C207090300D6090310D8DB79EB7801B910B45
S1134C300FB6F8949EBF0FBE8DBFEDB7FEB7319689
S1134C406F018091E800877F8093E800B801CF016D
S1134C5047D48091E8008E778093E80021E07110BA
S1134C6001C020E030E0021B130B2C0D3D1D4FEF63
S1134C70460D672DC7010E94CF180FB6F8949EBE4B
S1134C800FBE8DBE59C080912E0D813A09F054C0DB
S1134C908091E800877F8093E8008091E80080FF9E
S1134CA0FCCFF701818540C080912E0D813209F03F
S1134CB043C08091E800877F8093E800C1D490913D
S1134CC0300D81E0911101C080E0F701818734C08B
S1134CD080912E0D813281F58091E800877F809349
S1134CE0E800AED48091300D9091310D882736E0E4
S1134CF0969587953A95E1F7F701958784871CC0C7
S1134D0080912E0D813AC1F48091E800877F8093D1
S1134D10E8008091E80080FFFCCFF7018485958549
S1134D2096958795969587958093F1008091E800F4
S1134D308E778093E80084D40FB6F894BEBE0FBE7D
S1134D40ADBE0F900F900F90DF91CF911F910F91F7
S1134D50FF90EF90DF90CF90BF90AF909F908F9097
S1134D607F906F900895FC01399627E0DF011D9232
S1134D702A95E9F721E0FC01218724EF31E035870A
S1134D80248723E0248361E001961DC45F926F921F
S1134D907F928F929F92AF92BF92CF92DF92EF92C7
S1134DA0FF920F931F93CF93DF9300D01F92CDB741
S1134DB0DEB77C01ADB6BEB680912D0D843009F00E
S1134DC087C08091E4009091E500F7012285338546
S1134DD02817390709F47CC081818F708093E9001A
S1134DE08091E80085FF74C08DB69EB6408550E082
S1134DF08DB79EB7841B950B0FB6F8949EBF0FBE5C
S1134E008DBFEDB7FEB731966F011B821A821982EE
S1134E1060E070E0CF01E2D78E010F5F1F4F960173
S1134E2040E0BE016D5F7F4FC7010E944918582EB4
S1134E30F70184859585892B29F011E0868597856E
S1134E40892B09F010E0F701668077806114710402
S1134E5081F049815A81B301C601AAD701E0892BA7
S1134E6009F400E0F701408550E0B601C301ADD775
S1134E7001C000E089819A81892BF1F0511004C0AE
S1134E80011102C010FF18C0F7018485958597872A
S1134E90868781818F708093E9008B818111809353
S1134EA0F10069817A8140E050E0C601DDD1809152
S1134EB0E8008E778093E8008091E4009091E5000B
S1134EC0F701938782870FB6F8949EBE0FBE8DBEFE
S1134ED00FB6F894BEBE0FBEADBE0F900F900F90EC
S1134EE0DF91CF911F910F91FF90EF90DF90CF90C2
S1134EF0BF90AF909F908F907F906F905F90089538
S1134F00CF93DF932091E80023FF38C0FC01208178
S1134F1030E04091320D5091330D4217530771F533
S1134F2020912F0D2E3F81F02F3F41F520912E0D22
S1134F30213221F5EC018091E800877F8093E8001D
S1134F407FD381E088AF1AC020912E0D213AB1F4AD
S1134F502091E800277F2093E8002091E80020FFBB
S1134F60FCCFFC01838581508093F1008091E8009F
S1134F708E778093E800DF91CF9162C3DF91CF9168
S1134F800895CF93DF93EC01FC013C968DE2DF01A1
S1134F901D928A95E9F782E08C83898761E0CE01CE
S1134FA0019611D3882331F061E0CE010696DF919A
S1134FB0CF9109C380E0DF91CF910895EF92FF92E2
S1134FC00F931F93CF93DF9300D0CDB7DEB720911B
S1134FD02D0D243009F000C18C01FC0186818F70F5
S1134FE08093E9008091E80082FFBDC086818F70C4
S1134FF08093E9001A8219827801FCE0EF0EF11C1B
S1135000AE014F5F5F4F6FE070E0C701C4D1F8019C
S1135010853021F480AD882399F3A5C084859585D6
S1135020A685B78585359345A244B34461F4F80158
S1135030918D8385981738F4808D8F7121F4828D3A
S11350408150803180F08091EB0080628093EB008E
S1135050F80181818F708093E9008091EB00806278
S11350608093EB0080C01A8219827801FBE1EF0E75
S1135070F11CF801628D70E0AE014F5F5F4FC70114
S11350808AD1853029F4F80180AD882391F36BC06F
S11350908091E8008B778093E800F801808D87FF8A
S11350A004C081818F708093E900C8010E941218A6
S11350B091E09827F80197AB45E553E562E473E581
S11350C043A754A765A776A7408951896289738944
S11350D047A750AB61AB72AB448955896689778920
S11350E043AB54AB65AB76AB811109C0452B462B62
S11350F0472B29F08091EB0080628093EB00F8014C
S113510086818F708093E9008091EB00F80185FF20
S113511004C080AD8823C1F326C081818F70809341
S1135120E9008091EB0085FF05C0F80180AD88237C
S1135130C1F319C01A8219827801FBE2EF0EF11C47
S1135140AE014F5F5F4F6DE070E0C7018DD08530D9
S113515029F4F80180AD882399F305C08091E80013
S11351608E778093E800F80180AD8823A9F1268129
S11351702F7081E090E0AC0102C0440F551F2A95C6
S1135180E2F74093EA001092EA0021812F7001C0F7
S1135190880F2A95EAF78093EA001092EA00868144
S11351A08F708093E9008091EB0080618093EB0025
S11351B08091EB0088608093EB0081818F708093F5
S11351C0E9008091EB0080618093EB008091EB001B
S11351D088608093EB0010AE0F900F90DF91CF9119
S11351E01F910F91FF90EF900895EF92FF920F930C
S11351F01F93CF93DF93EC018B0141D281112DC01A
S11352000115110529F0F80180819181C81BD90B82
S1135210E12CF12C209701F18091E80085FD15C067
S11352208091E8008E778093E8000115110549F01C
S1135230F80180819181E80EF91EF182E08285E017
S11352400CC01DD2882331F308C01092F1002197BD
S1135250FFEFEF1AFF0ADECF80E0DF91CF911F91BD
S11352600F91FF90EF900895CF92DF92EF92FF920B
S11352700F931F93CF93DF93EC018B017A01FFD13E
S1135280811132C0E114F10439F0F7018081918178
S1135290081B190BC80FD91FC12CD12C01151105DE
S11352A011F18091E80085FD15C08091E8008E77AA
S11352B08093E800E114F10449F0F70180819181C1
S11352C0C80ED91ED182C08285E00EC0D8D18823F1
S11352D029F30AC089918093F10001501109FFEF6D
S11352E0CF1ADF0ADBCF80E0DF91CF911F910F91BE
S11352F0FF90EF90DF90CF900895CF92DF92EF92DE
S1135300FF920F931F93CF93DF93EC018B017A01EC
S1135310B6D1811137C0C8010197C80FD91FE11454
S1135320F10439F0F70180819181081B190BC81B26
S1135330D90BC12CD12C0115110519F18091E8006C
S113534085FD15C08091E8008E778093E800E11414
S1135350F10449F0F70180819181C80ED91ED182F0
S1135360C08285E00FC08BD1882329F30BC08881CC
S11353708093F100219701501109FFEFCF1ADF0A42
S1135380DACF80E0DF91CF911F910F91FF90EF90E2
S1135390DF90CF900895CF92DF92EF92FF920F9318
S11353A01F93CF93DF93EC018B017A0168D18111B4
S11353B032C0E114F10439F0F70180819181081BB6
S11353C0190BC80FD91FC12CD12C0115110511F1CE
S11353D08091E80085FD15C08091E8008B7780936B
S11353E0E800E114F10449F0F70180819181C80ECD
S11353F0D91ED182C08285E00EC041D1882329F311
S11354000AC08091F100899301501109FFEFCF1A6E
S1135410DF0ADBCF80E0DF91CF911F910F91FF90E6
S1135420EF90DF90CF9008952091340D3091350D99
S11354302617370748F06115710539F42091E80003
S11354402E772093E80001C0B901FC0120E061152A
S1135450710569F180912D0D8823E1F18530E1F129
S11354608091E80083FD3AC08091E80082FD2CC061
S11354708091E80080FFEBCF8091F2009091F300DF
S11354806115710551F08830910538F4219120930C
S1135490F100615071090196F3CF21E0089709F0FA
S11354A020E08091E8008E778093E800D0CF21112E
S11354B0D1CF0AC080912D0D882361F0853061F031
S11354C08091E80083FD0AC08091E80082FFF2CF5A
S11354D080E0089582E0089583E0089581E00895CE
S11354E06115710529F42091E8002B772093E800D9
S11354F0FC016115710531F180912D0D882351F165
S1135500853051F18091E80083FD22C08091E8004C
S113551082FFEFCF8091F2009091F300892B31F05C
S11355208091F100819361507109A1F78091E800A5
S11355308B778093E800DDCF80912D0D882351F087
S1135540853051F08091E80080FFF6CF80E0089527
S113555081E0089582E0089583E00895982F9730BC
S113556068F59093E900981739F07091EC00209158
S1135570ED005091F00003C0242F762F50E021FD60
S113558002C09F5FECCF3091EB003E7F3093EB0085
S11355903091ED003D7F3093ED003091EB003160B0
S11355A03093EB007093EC002093ED005093F000E7
S11355B02091EE0027FDE5CF80E008958F70809361
S11355C0E90081E008950F931F93CF93DF93062F93
S11355D0EC0110E0101771F16881611103C01F5FC5
S11355E02596F8CF2C81A981BA819B81862F8F7053
S11355F0873010F080E01FC0223010F442E001C078
S113560046E0E8E0F0E020E0EA17FB0720F42F5F33
S1135610EE0FFF1FF9CF2295207F422B50E4959F78
S113562090011124661F6627661F622B97DF811184
S1135630D6CFE0CF81E0DF91CF911F910F910895F4
S113564080912E0D87FF11C08091E80082FD05C076
S113565080912D0D8111F8CF11C08091E8008B77D6
S11356600BC080912D0D882349F08091E80080FFC4
S1135670F8CF8091E8008E778093E8000895209118
S1135680E4003091E50095E64091EC00842F8170B0
S113569040FF23C08091E80080FD1DC080912D0D46
S11356A0882399F0853099F08091EB0085FD11C035
S11356B04091E4005091E5002417350729F39150F7
S11356C011F09A01E1CF84E0089582E0089583E027
S11356D0089581E0089580E008954091E80042FF34
S11356E0DDCF08950F931F93CF93DF934ED055D002
S11356F0C8EDD0E088818F7788838881806888832B
S113570088818F7D8883E7EDF0E0808180688083E5
S113571019BC10922D0D1092290D10922B0D109280
S11357202A0D00EE10E0F80180818B7F8083888150
S11357308160888342E060E080E010DFE1EEF0E029
S113574080818E7F8083E2EEF0E0808181608083BF
S1135750808188608083F80180818E7F8083888146
S113576080618883DF91CF911F910F910895E8EDB7
S1135770F0E080818F7E8083E7EDF0E080818160BE
S1135780808381E080932C0DADCFE8EDF0E0808143
S11357908C7F80831092E20008951092DA001092B8
S11357A0E10008951F920F920FB60F9211240BB6C9
S11357B00F922F933F934F935F936F937F938F93A6
S11357C09F93AF93BF93EF93FF938091E10082FF88
S11357D00BC08091E20082FF07C08091E1008B7FC3
S11357E08093E1000E943D188091DA0080FF1FC081
S11357F08091D80080FF1BC08091DA008E7F809357
S1135800DA008091D90080FF0DC084E189BD86E172
S113581089BD09B400FEFDCF81E080932D0D0E9467
S1135820CD1705C019BC10922D0D0E94D717809179
S1135830E10080FF18C08091E20080FF14C08091D5
S1135840E2008E7F8093E2008091E2008061809389
S1135850E2008091D80080628093D80019BC85E072
S113586080932D0D27D28091E10084FF2FC0809179
S1135870E20084FF2BC084E189BD86E189BD09B4BF
S113588000FEFDCF8091D8008F7D8093D800809159
S1135890E1008F7E8093E1008091E2008F7E80930F
S11358A0E2008091E20081608093E2008091290D02
S11358B0882311F084E007C08091E30087FD02C0D3
S11358C081E001C083E080932D0DF4D18091E1004B
S11358D083FF27C08091E20083FF23C08091E10011
S11358E0877F8093E10082E080932D0D1092290D33
S11358F08091E1008E7F8093E1008091E2008E7FB1
S11359008093E2008091E20080618093E20042E0B3
S113591060E080E023DE8091F00088608093F000F6
S1135920C9D1FF91EF91BF91AF919F918F917F91D9
S11359306F915F914F913F912F910F900BBE0F90FC
S11359400FBE0F901F9018951F920F920FB60F92D3
S113595011240BB60F922F933F934F935F936F9342
S11359607F938F939F93AF93BF93CF93DF93EF93E3
S1135970FF93C091E900CF708091EC00D82FD170D3
S113598080FDD0E81092E9008091F000877F809339
S1135990F000789420D01092E9008091F0008860A3
S11359A08093F000CD2BCF70C093E900FF91EF916D
S11359B0DF91CF91BF91AF919F918F917F916F9123
S11359C05F914F913F912F910F900BBE0F900FBE9F
S11359D00F901F9018951F93CF93DF93CDB7DEB729
S11359E0AA970FB6F894DEBF0FBECDBFEEE2FDE07E
S11359F08091F10081932DE0E633F207C9F70E940C
S1135A0006188091E80083FF3DC180912E0D90918E
S1135A102F0D953009F483C030F49130A9F168F06A
S1135A20933091F12FC1983009F4FBC0993009F4F7
S1135A3007C1963009F026C194C0803821F082381D
S1135A4009F020C108C080912A0D90912B0D992353
S1135A5089F082600FC08091320D8F70873008F01A
S1135A6011C18093E9008091EB0085FB882780F9C0
S1135A701092E9009091E800977F9093E80080935A
S1135A80F1001092F100D8C0282F2D7F09F0FAC040
S1135A90882319F0823061F0F5C08091300D813097
S1135AA009F0F0C0933009F080E080932B0D2EC0F4
S1135AB08091300D81112AC08091320D8F702FEFAB
S1135AC0280F263008F0DEC08093E9002091EB0017
S1135AD020FF1CC0933021F48091EB00806214C03D
S1135AE09091EB0090619093EB0021E030E0A901EC
S1135AF002C0440F551F8A95E2F74093EA001092C2
S1135B00EA008091EB0088608093EB001092E9003A
S1135B108091E800877F8093E80092DDB3C0811113
S1135B20B1C01091300D1F778091E3008078812BF4
S1135B308093E3008091E800877F8093E80080DD14
S1135B408091E80080FFFCCF8091E300806880931F
S1135B50E300111102C082E001C083E080932D0DA7
S1135B6091C08058823008F08DC08091300D9091A2
S1135B70310D8C3D53E09507C9F583E08A838AE2B1
S1135B8089836FB7F894DE01139640E05EE0CD019F
S1135B9071E2E52FF0E070935700E49140FF03C0F9
S1135BA0E295EF705F5FEF702E2F30E0EA3018F06F
S1135BB0295C3F4F02C0205D3F4F2D933D934F5FC3
S1135BC0443139F76FBFE0912E01F0912F013097E6
S1135BD019F064E170E009958091E800877F809373
S1135BE0E8006AE270E0CE01019614C06091320DC3
S1135BF07091330DAE014F5F5F4F0E946C02BC0188
S1135C00892B09F43FC09091E800977F9093E800B6
S1135C1089819A8109DC8091E8008B778093E80080
S1135C2031C0803879F58091E800877F8093E8005F
S1135C308091290D8093F1008091E8008E776BCFDD
S1135C40811120C08091300D9091310D99270297D8
S1135C50CCF48091E800877F8093E8008091300D38
S1135C608093290DEDDC8091290D811106C080916E
S1135C70E30087FD02C081E001C084E080932D0D24
S1135C800E94E1178091E80083FF0AC08091E80038
S1135C90877F8093E8008091EB0080628093EB0023
S1135CA0AA960FB6F894DEBF0FBECDBFDF91CF9199
S1135CB01F9108950895CF9380912D0D882399F015
S1135CC0C091E900CF709091EC00892F817090FD14
S1135CD080E8C82B1092E9008091E80083FD7BDE08
