S01200006174393074696D6572732E7372656340
S11300004BC0000051C000004FC000004DC00000B4
S11300104BC0000049C0000047C0000045C00000BC
S113002043C0000041C000003FC000003DC00000CC
S11300303BC0000039C0000037C0000035C00000DC
S113004033C0000031C000002FC000002DC00000EC
S11300502BC0000029C0000027C0000025C00000FC
S113006023C0000021C000001FC000001DC000000C
S11300701BC0000019C0000017C0000015C000001C
S113008057C0000011C000000FC000000DC00000E8
S11300900BC0000009C0000011241FBECFEFD0E246
S11300A0DEBFCDBF02D056C0ABCF84B7877F84BF3D
S11300B00FB6F894A89580916000886180936000E1
S11300C0109260000FBEE1E6F0E080E880831082C9
S11300D08AB188608AB98BB1877F8BB98AB180680D
S11300E08AB98BB18F778BB910929000E1E9F0E077
S11300F01082808188608083A1E7B0E08C91826067
S11301008C9380E29EE49093990080939800808180
S11301108260808378948BB180588BB92FEF83ED04
S113012090E3215080409040E1F700C00000F3CFFD
S11301301F920F920FB60F9211248F939F939BB12E
S113014088E089278BB99F918F910F900FBE0F90F4
S10B01501F901895F894FFCFED
S9030000FC
