S015000061743930736F667475617274782E73726563E1
S11300004BC0000066C0000064C0000062C0000075
S113001060C000005EC000005CC000005AC0000068
S113002058C0000056C0000054C0000052C0000078
S113003050C000004EC000004CC000004AC0000088
S113004048C0000046C0000044C0000042C0000098
S113005040C000003EC000003CC000003AC00000A8
S113006038C0000036C0000034C0000032C00000B8
S113007030C000002EC000002CC000002AC00000C8
S113008028C0000026C0000024C0000022C00000D8
S113009020C000001EC0000011241FBECFEFD0E21C
S11300A0DEBFCDBF11E0A0E0B1E0E4E2F2E000E0A9
S11300B00BBF02C007900D92AE32B107D9F721E011
S11300C0AEE2B1E001C01D92A433B207E1F720D043
S11300D0A7C096CF2FB7F8942D9839E83A95F1F741
S11300E000C098E080FF02C02D9A01C02D9838E826
S11300F03A95F1F786959150A9F72D9A2FBF8FEC79
S113010090E00197F1F700C0000080E090E00895CE
S113011084B7877F84BF0FB6F894A8958091600058
S1130120886180936000109260000FBE80E8809325
S1130130610010926100259A60E071E08EE091E028
S113014013D02FEF87EA91E6215080409040E1F7E9
S113015000C0000080E091E0909331018093300171
S113016084E291E02DD0FCCFEF92FF920F931F9386
S1130170CF93DF93DB0113962C9121FF18C08B01E1
S11301807C01D0E0C0E0F70181917F01882361F018
S1130190D8011896ED91FC911997B8010995892B0E
S11301A091F3DFEFCFEFEFCF8D2F9C2F02C08FEFB6
S11301B09FEFDF91CF911F910F91FF90EF900895E2
S11301C00F931F93CF93DF93E0913001F0913101AE
S11301D0238121FF1BC08C01D0E0C0E0F801819194
S11301E08F016091300170913101DB011896ED911E
S11301F0FC911997882331F00995892B79F3DFEF66
S1130200CFEFECCF8AE00995892B19F08FEF9FEFA0
S113021002C08D2F9C2FDF91CF911F910F910895D4
S1070220F894FFCF7C
S113022400000002000000006A00000000000D0A43
S11302340D0A736F6674756172742064656D6F0D55
S11102440A0D0A00686920447265670D000007
S9030000FC
