:100000000C942D010C9455010C9455010C94550140
:100010000C9455010C9455010C9455010C94550108
:100020000C9455010C9455010C94A3060C941207E2
:100030000C9455010C9455010C9455010C945501E8
:100040000C9455010C9455010C9455010C945501D8
:100050000C9455010C9455010C9455010C944409D1
:100060000C9455010C9455010C9455010C945501B8
:100070000C9455010C9455010C9455010C945501A8
:100080000C9455010C9455010C9455010C94550198
:100090000C9455010C9455010C9455010C94550188
:1000A0000C9455010C9455010C945501000000006E
:1000B000000000002A2B28000000000000000000C3
:1000C0000000000000000000000000002C9EB4A012
:1000D000A1A2A434A6A7A5AE362D3738271E1F200F
:1000E000212223242526B333B62EB7B89F848586D4
:1000F0008788898A8B8C8D8E8F9091929394959618
:100100009798999A9B9C9D2F3130A3AD3504050695
:100110000708090A0B0C0D0E0F10111213141516F7
:100120001718191A1B1C1DAFB1B0B5000000000054
:10013000240027002A002D003000000000002500C8
:1001400028002B002E003100080B000202020000E4
:10015000090400000102020000052400100105242A
:10016000010101042402060524060001070581039C
:1001700010004009040100020A0000000705020205
:100180004000000705830240000004030904120137
:100190000002EF0201404123368000010102030109
:1001A00041726475696E6F204C4C430041726475F6
:1001B000696E6F204C656F6E6172646F00000000A5
:1001C000002300260029002C002F0004040404044E
:1001D00003040502020202040302020202060606EA
:1001E0000606060404020202040404080201104088
:1001F0008040102040804080080204018040201090
:100200000201108010204040200000000200090F71
:100210000000030401000C000000000000000000CA
:10022000000000000000000005010906A101850290
:10023000050719E029E715002501750195088102D8
:100240009501750881039506750815002573050746
:10025000190029738100C000C10911241FBECFEF0E
:10026000DAE0DEBFCDBF12E0A0E0B1E0E2E8F7E106
:1002700002C005900D92A234B107D9F722E0A2E4A2
:10028000B2E001C01D92A43EB207E1F711E0CDE259
:10029000D1E004C02197FE010E94B90BCC32D107F6
:1002A000C9F70E94530A0C94BF0B0C940000CF9323
:1002B000DF93FC0181819091B502482F490F5527AA
:1002C000551F483051059CF5A281B381109709F55F
:1002D00021EB32E03383228320812093B302809389
:1002E000B4028091B602820F80832091B702A22FC0
:1002F000B091B8028A2F821B8917E8F481813D9161
:10030000C82FD0E0C45FDE4F38838F5F8183F2CF88
:10031000D90118962D913C91199721153105C1F7F6
:1003200021EB32E019963C932E931897D5CF80E0BD
:10033000DF91CF91089581E0FBCFFC0180916002B5
:10034000882311F13FB7F89482E08093E90020916F
:10035000F200822F90E01816190614F481E090E064
:10036000882339F0289844E640935F024091F100D9
:100370004083222339F02091F200211103C02BE6A3
:100380002093E8003FBF08958FEF9FEF08954091BD
:10039000590250915A022091570230915802421747
:1003A0005307B4F49091E8009570E1F39091E80060
:1003B00092FD19C08093F1008091590290915A02E8
:1003C00001968F739927892B19F48EEF8093E8009B
:1003D0008091590290915A02019690935A0280930B
:1003E000590281E0089580E00895DF92EF92FF9234
:1003F0000F931F93CF93DF93D82E8A01EB017B01DC
:10040000E40EF51ECE15DF0559F0D7FE12C0FE0131
:1004100084910E94C70121968111F4CF0FEF1FEF45
:10042000C801DF91CF911F910F91FF90EF90DF9066
:1004300008958881EECF2FB7F89487708093E900F4
:100440009091E800892F807295FF04C09091F2008E
:1004500080E4891B2FBF0895615030F02091F10096
:10046000FC0120830196F8CF289884E680935F02F0
:10047000089580914F0281110DC082E080934B025C
:1004800084E080934C0210924E0210924D0281E063
:1004900080934F028BE492E008950F931F93CF93C4
:1004A000DF931F92CDB7DEB782E0898342E450E04C
:1004B00068E471E080E80E94F5010E943902DC01E5
:1004C00012960D911C910115110589F0D801ED913D
:1004D000FC910280F381E02DBE016F5F7F4FC80168
:1004E000099597FD04C0F80100851185ECCF89813D
:1004F0000F90DF91CF911F910F910895CF93DF93CC
:100500001F92CDB7DEB76983DC01ED91FC910280CB
:10051000F381E02D41E050E0BE016F5F7F4F099510
:100520000F90DF91CF91089583E08093E90080914F
:10053000F200882319F08AE38093E800089583E0AD
:100540000E941B0290E00895CF93DF931F92CDB7D6
:10055000DEB7FC018485958597FD08C02FEF3FEF3E
:10056000358724870F90DF91CF910895CE010196B2
:100570000E949D01019719F4898190E0F3CF8FEFDC
:100580009FEFF0CF0F931F93CF93DF931F92CDB7C1
:10059000DEB78C01FC018485958597FF0BC0CE01E9
:1005A00001960E949D01019771F4898190E0F80104
:1005B00095878487F801848595850F90DF91CF9189
:1005C0001F910F9108958FEF9FEFF1CFFC0184856C
:1005D000958597FD0BC09FB7F89482E08093E90062
:1005E0008091F2009FBF90E0019608959FB7F89424
:1005F00082E08093E9008091F2009FBF90E008952F
:1006000081508F3008F047C0E82FF0E0E65FFC4FE4
:100610000C94B90B27032B0319031F0323034B036C
:100620004B034B032E03340338033C0342034B03B9
:100630004603809180008F77809380000895809199
:1006400080008F7DF9CF80918000877FF5CF84B5C2
:100650008F7784BD089584B58F7DFBCF8091900006
:100660008F77809390000895809190008F7DF9CFCF
:1006700080919000877FF5CF8091C0008F77809325
:10068000C00008958091C0008F7DF9CF8091C20095
:10069000877F8093C20008951F93CF93DF93282F05
:1006A00030E0F901E75FFD4F8491F901E651FE4F1B
:1006B000D491F901E553FE4FC491CC23A9F0162F34
:1006C00081110E940003EC2FF0E0EE0FFF1FE65CAB
:1006D000FE4FA591B4918FB7F894EC91111108C019
:1006E000D095DE23DC938FBFDF91CF911F910895CA
:1006F000DE2BF8CFCF93DF9390E0FC01E651FE4F65
:10070000249185539E4FFC0184918823D1F090E081
:10071000880F991FFC01E45DFE4FA591B491FC0187
:10072000E65CFE4FC591D491623071F49FB7F894A6
:100730003C91822F809583238C93E8812E2B2883F4
:100740009FBFDF91CF9108958FB7F894EC912E2B36
:100750002C938FBFF6CF3FB7F894809147029091CA
:100760004802A0914902B0914A0226B5A89B05C053
:100770002F3F19F00196A11DB11D3FBFBA2FA92F20
:10078000982F8827BC01CD01620F711D811D911D1D
:1007900042E0660F771F881F991F4A95D1F7089589
:1007A0008F929F92AF92BF92CF92DF92EF92FF9281
:1007B0004B015C010E94AB036B017C010E94AB0307
:1007C0006C197D098E099F09683E7340810591056A
:1007D000A8F321E0821A9108A108B10888EEC80E9A
:1007E00083E0D81EE11CF11C81149104A104B10422
:1007F00029F7FF90EF90DF90CF90BF90AF909F9040
:100800008F9008957F928F929F92AF92BF92CF92D6
:10081000DF92EF92FF920F931F93CF93DF93C82E37
:100820008B017A0180916002811110C08FEF9FEFE0
:10083000DF91CF911F910F91FF90EF90DF90CF90BC
:10084000BF90AF909F908F907F90089580915D02B0
:1008500080FF05C08091E00082608093E000CE2D93
:10086000DF2DD12C8AEFB82E8C2D8770982E8C2DF1
:100870008072882E8C2D8074782E9AE3A92E209772
:1008800019F4DD2009F452C08C2D0E941B02811145
:100890000AC0BA94BB2051F261E070E080E090E0C1
:1008A0000E94D003ECCF8C171D0611F00CF08C2F9A
:1008B0009FB7F8949092E9002091E80025FD02C0CE
:1008C0009FBFDDCF282F30E0C21BD30B882029F03B
:1008D0008150A0F01092F100FBCFF801C7FC0AC0D4
:1008E000815050F041914093F100FACF44914093F0
:1008F000F10031968150D0F7020F131FDD2021F057
:10090000A092E800D12CDCCF8091E80085FD07C0E3
:10091000A092E800DD24D394209791F2F3CF2097A2
:1009200079F6772069F2A092E800CACF5D9884E654
:1009300080935C02C7017CCFEF92FF921F93CF930D
:10094000DF931F92CDB7DEB77C018091C202811187
:100950002AC011E01093B5021093B6028BEB92E01F
:100960009093B8028093B7021092BA021092B90223
:1009700089E291E09093B2028093B1021092BD029D
:100980001092BC021092BF021092BE021093C002DD
:100990001093C10281EC8093BB020E9439020E9435
:1009A00057011093C20282E0898341E050E0BE010A
:1009B0006F5F7F4F8091B4020E94020497FD08C0D0
:1009C0008091B40248E050E0B70180640E940204C4
:1009D0000F90DF91CF911F91FF90EF900895CF93EB
:1009E000DF93EC0180910B01882331F083E00E94BA
:1009F00002041816190634F081E090E09B838A8384
:100A000080E090E0DF91CF910895DC01FB01129628
:100A10002C911297848195812817190641F49181B0
:100A20008081813A31F49D7F81E0913009F080E04E
:100A300008958132E1F79B3029F482811F968C93CF
:100A400081E008959A3099F7828150968C93F8CF7F
:100A5000DC01FB0188E4808389E4818384E4828370
:100A60001D969C911D979F709F5B93831D968D9102
:100A70009C9124E0969587952A95E1F78F708F5B7E
:100A8000848385E00895EF92FF920F931F93CF9395
:100A9000DF93FB012081213871F52381223259F542
:100AA000DC0112964C91248135814217130619F509
:100AB000EC010B851C85F12CE12C0115110589F049
:100AC000F801448155816281738180E80E94F501BB
:100AD0008F3F980749F0E80EF91ED8010D911C913F
:100AE000ECCF81E08F87C701DF91CF911F910F91EC
:100AF000FF90EF90089590E080E0F6CFCF93DF93E2
:100B0000CDB7DEB769970FB6F894DEBF0FBECDBF85
:100B1000FC01DB018C918F5F8C939E012D5F3F4F19
:100B20008DE0D9011D928A95E9F729E0298384E0B7
:100B30008A8391E09D8383E08E832A8721E22B873D
:100B40009C879D879F8722E2288B27E02B8B25E0BF
:100B50002C8B8E8B20E430E0388F2F8B998F828105
:100B60008B8395858685998B8A8B838180688D8B15
:100B700049E150E0BE016F5F7F4F80E00E94F501C8
:100B800069960FB6F894DEBF0FBECDBFDF91CF914F
:100B90000895CF92DF92EF92FF920F931F93CF931E
:100BA000DF936C01EB017B01E40EF51E10E000E029
:100BB000CE15DF0581F069916D30D1F3D601ED914D
:100BC000FC910190F081E02DC6010995892B19F067
:100BD0000F5F1F4FEDCFC801DF91CF911F910F9194
:100BE000FF90EF90DF90CF900895EF92FF921F93C8
:100BF000CF93DF93EC01162FE8E7E60F683880F417
:100C0000E62FF0E067FF4FC0E058F10921E030E047
:100C100001C0220FEA95EAF78C81822B8C83E0E0F9
:100C20008E818E17D9F08F81E817C1F08885E8177B
:100C3000A9F08985E81791F08A85E81779F08B8506
:100C4000E81761F0DE01169690E080E02D91211109
:100C50004EC08C0F9D1FDC011696EC93CE010496BE
:100C60000E949C04EE24E394F12C183838F11858B3
:100C7000DE0186E0112341F016969C911697191318
:100C800003C016961C921697815011968111F2CFCF
:100C9000CE0104960E949C04C701DF91CF911F9161
:100CA000FF90EF900895E455FF4FE491E11118C0D3
:100CB00081E090E09B838A83F12CE12CE12FF0E02E
:100CC00017FF21C0E058F10981E090E001C0880FD2
:100CD000EA95EAF780959C8189238C8310E0C8CF40
:100CE000E7FF9ECF8C8182608C83EF7799CF01964E
:100CF0008630910509F0AACF81E090E09B838A833A
:100D0000F12CE12CB2CFE455FF4F1491112309F4DB
:100D1000C3CF17FFADCF8C818D7F8C831F77A8CF7A
:100D2000089590E080E00895FB0101900020E9F72C
:100D30003197AF01461B570BDC01ED91FC9102800E
:100D4000F381E02D09941F920F920FB60F92112498
:100D50008F939F938091E1009091E100937F909316
:100D6000E10083FF0FC01092E90091E09093EB0047
:100D70001092EC0092E39093ED001092600298E0E4
:100D80009093F00082FF22C093E09093E90090914D
:100D9000F200992319F09AE39093E80090915C0295
:100DA000992341F090915C02915090935C029111D3
:100DB00001C05D9A90915F02992341F090915F028A
:100DC000915090935F02911101C0289A84FF18C03E
:100DD0008091E2008E7E81608093E2008091E1004C
:100DE0008F7E8093E10080915D028E7E8061809392
:100DF0005D029F918F910F900FBE0F901F901895DD
:100E000080FFF7CF8091E2008E7E80618093E200C8
:100E10008091E1008E7E8093E10080915D028E7E64
:100E20008160E5CF1F920F920FB60F921124CF92DF
:100E3000DF92EF92FF920F931F932F933F934F9365
:100E40005F936F937F938F939F93AF93BF93EF9332
:100E5000FF93CF93DF93CDB7DEB76C97DEBFCDBFE7
:100E60001092E9008091E80083FF25C068E0CE0180
:100E700045960E942C0282EF8093E8008D8987FFBF
:100E800039C09091E80090FFFCCF982F907609F040
:100E900034C19E894F89588D2F89F88C911131C0AA
:100EA000803861F580915E028093F1001092F1002C
:100EB0008EEF8093E8006C960FB6F894DEBF0FBEFD
:100EC000CDBFDF91CF91FF91EF91BF91AF919F91F6
:100ED0008F917F916F915F914F913F912F911F91D2
:100EE0000F91FF90EF90DF90CF900F900FBE0F907B
:100EF0001F9018959EEF9093E800C7CF1092F100D5
:100F0000D5CF913059F48111D3CF4130510581F6BD
:100F100080915E028D7F80935E02CACF933049F448
:100F20008111C6CF4130510519F680915E02826071
:100F3000F2CF953041F48091E80080FFFCCF20682B
:100F40002093E300B5CF963009F0A9C00B8D1C8D1E
:100F500022E01092E90010925A0210925902F21205
:100F60002EC010925802109257020E944D021F820A
:100F700099E09983FA8291E09E8390EA98879AEFAC
:100F800099872091590230915A02275F3F4F3C8345
:100F90002B838D831092E90010925A02109259020D
:100FA000109358020093570249E050E0BE016F5F72
:100FB0007F4F80E00E94F5010E944D0279CF10938F
:100FC0005802009357020E943902DC0112960D91DB
:100FD0001C910115110509F451C1D801ED91FC9145
:100FE0000480F581E02DBE016B5E7F4FC80109953D
:100FF000009709F03EC1F80100851185EACFF3E0C2
:10100000FF120EC08F89882309F440C0823061F43A
:1010100040E860E18CEA91E00E948E09811148CF9E
:1010200081E28093EB0047CF813029F440E86BE008
:1010300080EA91E0F1CF833099F70E943902DC0118
:101040001296ED90FC908E010F5F1F4F6801E11426
:10105000F10479F0D701ED91FC910680F781E02D44
:10106000B801C7010995080F111DF701E084F1844B
:10107000EECFD8011C92F60101900020E9F73197DC
:10108000BF016C197D0940E0C601C6CF6AE871E076
:10109000FB01449150E080E80E94F50109CF9730B0
:1010A00009F4BECF983021F481E08093F10000CFA5
:1010B000993009F0FDCE837009F0B2CFEDE0F1E098
:1010C00081E031E096E32191222371F08093E900E1
:1010D0003093EB00DF0111972C912093EC0090935B
:1010E000ED008F5F873079F78EE78093EA001092EA
:1010F000EA008F8980936002DBCE8B8D9C8D1092ED
:10110000E90010925A02109259029093580280936B
:101110005702898D811192C08E899D89913A49F437
:10112000813209F07DCF47E050E064E071E080E07B
:10113000B3CF913209F074CF833269F48F89988DDF
:10114000B0E0A0E08093000190930101A093020120
:10115000B0930301ADCE803269F48091E80082FF44
:10116000FCCF67E084E091E00E942C028BEF80933B
:10117000E8009ECE823209F09BCE8F8980930B01CE
:10118000EEEFFFE7859194918B3F9C4D51F1E0E0AC
:10119000F8E08091040190910501A0910601B091C1
:1011A0000701803B9440A105B105F1F480910B014A
:1011B00080FD1AC0EE3F8AE0F80789F587E797E7D8
:1011C000918380838091600080935B0288E19BE043
:1011D0000FB6F894A895809360000FBE90936000BE
:1011E00067CEEEEFFAE0D5CF8081918187379747C0
:1011F00009F05ECEA89580916000886180936000C0
:1012000080915B0280936000EE3F2AE0F20789F054
:101210008091FE0A9091FF0A9183808349CE80815C
:1012200091818737980751F29093FF0A8093FE0AC5
:10123000C5CF1092FF0A1092FE0A3ACE0E943902E0
:10124000DC0112960D911C910115110509F4E8CEEF
:10125000D801ED91FC910190F081E02DBE016B5E13
:101260007F4FC8010995811123CEF80100851185B2
:10127000EBCF181619060CF41BCED2CEF1E0FF12FC
:10128000BECE6EE871E004CF1F920F920FB60F92A0
:1012900011242F933F938F939F93AF93BF9380918C
:1012A000430290914402A0914502B09146023091D0
:1012B000420223E0230F2D3758F50196A11DB11DE1
:1012C000209342028093430290934402A0934502EC
:1012D000B09346028091470290914802A091490242
:1012E000B0914A020196A11DB11D809347029093CF
:1012F0004802A0934902B0934A02BF91AF919F91D7
:101300008F913F912F910F900FBE0F901F901895C6
:1013100026E8230F0296A11DB11DD2CFEF92FF92B6
:101320000F931F93CF93DF93F82E192FE62E042FE0
:1013300081E0860F880F0E94C70183E00E94C701E9
:10134000CF2DD12FEC0EFD2EF11CCE15DF05B9F0FF
:1013500007FF13C0FE0184910E94C701182F80E08F
:101360000E94C701812321968111EFCFDF91CF9198
:101370001F910F91FF90EF9008958881EDCF81E04C
:10138000F5CFCF93109264021092630288EE93E03F
:10139000A0E0B0E08093650290936602A09367029C
:1013A000B093680287E191E09093620280936102BA
:1013B0008FEF9FEF90936E0280936D021092DB028D
:1013C0001092DA0285E391E09093D9028093D802DB
:1013D0008091D002811113C01092CB021092CA02E8
:1013E00088E292E09093CD028093CC028FE290E06D
:1013F0009093CF028093CE0281E08093D0028091BF
:10140000C20281112AC0C1E0C093B502C093B602E6
:101410008BEB92E09093B8028093B7021092BA02DD
:101420001092B90289E291E09093B2028093B102E6
:101430001092BD021092BC021092BF021092BE0226
:10144000C093C002C093C10281EC8093BB020E9492
:1014500039020E945701C093C202E091BC02F09190
:10146000BD023097B9F48AEC92E09093BD0280936C
:10147000BC028091BE029091BF022091CE023091B9
:10148000CF02820F931F9093BF028093BE02CF9131
:101490000895FC01808191810097D9F78AEC92E050
:1014A00091838083E6CF789484B5826084BD84B5CF
:1014B000816084BD85B5826085BD85B5816085BD4F
:1014C00080916E00816080936E0010928100809107
:1014D000810082608093810080918100816080938F
:1014E00081008091800081608093800080919100D4
:1014F000826080939100809191008160809391003F
:10150000809190008160809390008091C100846000
:101510008093C1008091C10082608093C10080915E
:10152000C10081608093C1008091C300816080937D
:10153000C3008091C00082608093C0008091C2008F
:1015400081608093C20080917A00846080937A00E9
:1015500080917A00826080937A0080917A00816025
:1015600080937A0080917A00806880937A00809AD4
:101570008898819A899A1092600210925E02109265
:101580005D028091D70081608093D70080EA8093CC
:10159000D80089B5806189BD89B5826089BD09B4EB
:1015A00000FEFDCF61E070E080E090E00E94D0039B
:1015B0008091D8008F7C80618093D8008091E0007A
:1015C000807F8093E0008091E1008E7E8093E10037
:1015D0008DE08093E200559A209A62E08CE00E94B0
:1015E0007A0361E088E00E947A0361E089E00E946A
:1015F0007A038FEF9FEF90936E0280936D0268EEF7
:1016000073E080E090E00E94D003C5E1D2E006EFF5
:1016100011E097EDE92E91E0F92E20E0C22E20E0B6
:10162000D22EFE018491F801A490F701B490B1107C
:1016300090C06DE371E081E692E00E94940665E659
:1016400071E088ED92E00E94940662E771E081E625
:1016500092E00E94940660EA7FE080E090E00E94C1
:10166000D003579A64EF71E080E090E00E94D003CD
:101670005F9864EF71E080E090E00E94D003899869
:1016800064EF71E080E090E00E94D003809A64EF04
:1016900071E080E090E00E94D003889A64EF71E0EE
:1016A00080E090E00E94D003819A64EF71E080E0D6
:1016B00090E00E94D003899A64EF71E080E090E0AE
:1016C0000E94D00360E27EE480E090E00E94D003BC
:1016D000579A5F9A68E873E180E090E00E94D00337
:1016E000809A8898819A899A6DEC71E081E692E0FF
:1016F0000E94940661E088E00E944C0364EF71E070
:1017000080E090E00E94D00361E089E00E944C03F9
:1017100064EF71E080E090E00E94D00360E088E038
:101720000E944C0364EF71E080E090E00E94D003DF
:1017300060E089E00E944C0364EF71E080E090E09B
:101740000E94D003C114D10409F46BCF0E940000A1
:1017500068CF81110E940003EB2DF0E0EE0FFF1F18
:10176000E354FE4FA591B4918C91A82209F461CF66
:10177000BBCFEE0FFF1F0590F491E02D0994F89474
:02178000FFCF99
:10178200FFFFFFFF00E100000000000000C18081B8
:10179200000000000000007E02EF049F029402E6B7
:1017A20002A402C2020000000005057E05430528CE
:1017B2000500000000F505C905910690060D0A62B4
:1017C2007574746F6E207072657373656421207412
:1017D2007970696E67206B6579626F6172642E2E13
:1017E2002E2E0D0A0068656C6C6F77206472656737
:1017F20021000D0A537769746368696E6720555337
:101802004220746F20415439302C206E6578742048
:1018120077616974206170726F782033302073654C
:10182200637320616E642053574954434820746F98
:10183200204C454F20616761696E2C20706C656198
:10184200736520776169742E2E2E0D0A000D0A6BC6
:10185200656570207072657373696E67204C454FC1
:10186200207573657220627574746F6E20612066D4
:101872006577207365637320746F207479706520B7
:10188200696E206B6579626F617264202B2041540E
:10189200393020757362207377697463682C206F06
:1018A200722070726573732072657365742062753D
:1018B20074746F6E20746F207265626F6F740D0A9C
:0218C200000024
:00000001FF
