:10000000CDC00000E8C00000E6C00000E4C0000071
:10001000E2C00000E0C00000DEC00000DCC0000064
:10002000DAC00000D8C0000032C60000D4C0000012
:10003000D2C00000D0C00000CEC00000CCC0000084
:10004000CAC00000C8C00000C6C00000C4C0000094
:10005000C2C00000C0C00000BEC00000BCC00000A4
:10006000BAC00000B8C00000B6C00000B4C00000B4
:10007000B2C00000B0C00000AEC00000ACC00000C4
:10008000AAC00000A8C00000A6C00000A4C00000D4
:10009000A2C00000A0C0000036034C00550046007E
:1000A000410020004D0075006C00740069002000C4
:1000B00048004900440020005200650070006F00B5
:1000C000720074002000440065006D006F000000A5
:1000D00018034400650061006E00200043006100C9
:1000E0006D0065007200610000000403090409024C
:1000F0002200010100C032090400000103000000D9
:10010000092111010001227900070581030800057A
:100110001201100100000008696925220100010296
:10012000000105010902A10185010901A1000509DC
:100130001901290315002501950375018102950117
:100140007505810105010930093115FF250135FFCC
:100150004501950275088106C0C005010906A10187
:100160008502050719E029E71500250175019508A5
:100170008102950175088101050819012905950578
:10018000750191029501750391011500256505071B
:1001900019002965950675088100C00011241FBE4D
:1001A000CFEFD0E2DEBFCDBF11E0A0E0B1E0E0EDE7
:1001B000F1E100E00BBF02C007900D92A031B10742
:1001C000D9F721E0A0E1B1E001C01D92A532B2074C
:1001D000E1F76AD0FBC714CF292F3327233031052D
:1001E000C9F040F42130310509F438C0223031051E
:1001F00061F006C02132310539F12232310549F171
:1002000080E090E020E030E032C082E290E02EEE2C
:1002100030E02DC099278130910551F018F00297F8
:1002200069F021C0EAEEF0E0849190E09F011FC0E8
:10023000E0EDF0E0849190E09F0119C0E8E9F0E082
:10024000849190E09F0113C089E090E020E031E0CC
:100250000EC089E790E022E231E009C082E190E03F
:1002600020E131E004C080E090E020E030E0FA01DD
:1002700031832083089584B7877F84BF0FB6F894B5
:10028000A895809160008861809360001092600062
:100290000FBE90E080E80FB6F894809361009093D1
:1002A00061000FBED8C40895E6DF789480E091E045
:1002B00095D16DD7FBCF0895089580E091E07AD174
:1002C000E2EEF0E0808184608083089580E091E038
:1002D0001EC0089580910E0190910F01009729F0A2
:1002E000019790930F0180930E0108950F931F9330
:1002F00082E0F9018083FB01808388E090E0F801CF
:100300009183808380E01F910F91089508953F921B
:100310004F925F926F927F928F929F92AF92BF9215
:10032000CF92DF92EF92FF920F931F93CF93DF93C1
:1003300000D01F92CDB7DEB76C01EDB6FEB680914E
:10034000E80083FF1DC12091210130912201F601B7
:10035000808190E02817390709F012C180911E01B1
:10036000833009F4A8C030F4813071F0823009F490
:10037000EBC006C18A3009F4CBC08B3009F4B4C09D
:10038000893009F0FDC050C080911D01813A09F00B
:10039000F7C0ADB6BEB61A821982EDE1F1E08281F6
:1003A00073808B837A94F601408550E08DB79EB7B9
:1003B000841B950B0FB6F8949EBF0FBE8DBFEDB793
:1003C000FEB731964F0160E070E0CF01F8D68E01A4
:1003D0000F5F1F4F9401472DBE016D5F7F4FC60118
:1003E00085DFF60186819781009721F0408550E0F6
:1003F000B401DCD61092E900E8EEF0E08081877F5E
:1004000080838B8181118093F10069817A81C4019D
:10041000EED1E8EEF0E080818B7780830FB6F89420
:10042000BEBE0FBEADBEACC080911D01813209F0D1
:10043000A7C06DB67EB6EDE1F1E00681178142807E
:100440005380342C5A948DB79EB7801B910B0FB6F6
:10045000F8949EBF0FBE8DBFEDB7FEB731964F012A
:100460000F2EF8EEAF2EB12CF02DF5018081877F95
:100470008083B801C40123D2F50180818E77808307
:10048000442019F081E090E002C080E090E021E09B
:1004900030E0311002C020E030E0280D391D081B8B
:1004A000190B452D642DC60131DF0FB6F8947EBEC1
:1004B0000FBE6DBE65C080911D01813A09F060C01C
:1004C000E8EEF0E08081877F80838091E80080FF04
:1004D000FCCFF60181858093F100E8EEF0E08081A9
:1004E0008E77808316D34CC080911D01813209F034
:1004F00047C0E8EEF0E08081877F80830AD3909147
:100500001F0181E0911101C080E0F601818738C0B0
:1005100080911D018132A1F5E8EEF0E08081877FB6
:100520008083F7D280911F019091200188270024B9
:10053000880F991F001C880F991F001C892F902D70
:10054000F601958784871CC080911D01813AC1F412
:10055000E8EEF0E08081877F80838091E80080FF73
:10056000FCCFF60184859585969587959695879518
:100570008093F100E8EEF0E080818E778083C9D22D
:100580000FB6F894FEBE0FBEEDBE0F900F900F9009
:10059000DF91CF911F910F91FF90EF90DF90CF905F
:1005A000BF90AF909F908F907F906F905F904F9093
:1005B0003F900895FC01399627E0DF011D922A95AE
:1005C000E9F721E0FC01218724EF31E0358724871A
:1005D00023E0248361E0019656C208955F926F92F2
:1005E0007F928F929F92AF92BF92CF92DF92EF92C3
:1005F000FF920F931F93CF93DF9300D01F92CDB73D
:10060000DEB77C01ADB6BEB680911C01843009F026
:100610008CC0F701228533858091E4009091E5003C
:100620002817390709F481C081818F708093E90010
:100630008091E80085FF79C08DB69EB6408550E078
:100640008DB79EB7841B950B0FB6F8949EBF0FBE57
:100650008DBFEDB7FEB731966F011B821A821982EA
:1006600060E070E0CF01ABD58E010F5F1F4F9601A8
:1006700040E0BE016D5F7F4FC70138DE682EF70195
:1006800084859585892B31F086859785892B21F086
:1006900080E003C080E001C081E08170782EF70126
:1006A000068117810115110589F049815A81B80128
:1006B000C6016FD555245394892B09F4512CF701A9
:1006C000408550E0B601C80171D501C0512C898127
:1006D0009A81892BF1F0611004C0511002C077207B
:1006E000C1F0F701848595859787868781818F7012
:1006F0008093E9008B8181118093F10069817A8177
:1007000040E050E0C60129D0E8EEF0E080818E772D
:1007100080838091E4009091E500F70193878287C0
:100720000FB6F8949EBE0FBE8DBE0FB6F894BEBE37
:100730000FBEADBE0F900F900F90DF91CF911F9124
:100740000F91FF90EF90DF90CF90BF90AF909F9070
:100750008F907F906F905F900895CF92DF92EF928D
:10076000FF920F931F93CF93DF938C01EB016A01EC
:10077000F1D1811133C0C114D10439F0F601808167
:100780009181C81BD90B080F191FE12CF12C23C034
:100790009091E80095FD16C0E8EEF0E080818E773C
:1007A0008083F5D4C114D10449F0F6018081918190
:1007B000E80EF91EF182E08285E010C0CBD18823DB
:1007C00051F00CC0F80181918F018093F1002197C5
:1007D000FFEFEF1AFF0A2097D9F680E0DF91CF9163
:1007E0001F910F91FF90EF90DF90CF90089520918F
:1007F0002301309124012617370758F06115710540
:1008000039F4E8EEF0E020812E7720839B0101C0CF
:100810009B01E82FF92F90E030C080911C018823C4
:1008200009F441C0853009F440C08091E80083FD9F
:100830003EC08091E80082FD30C08091E80080FFDA
:100840001CC04091F2005091F30007C08191809349
:10085000F100215031094F5F5F4F2115310519F02B
:100860004830510598F391E04830510509F090E087
:10087000A8EEB0E08C918E778C932115310569F646
:100880009111CBCF0AC080911C01882391F0853053
:1008900091F08091E80083FD10C08091E80082FF14
:1008A000F2CF80E0089582E0089583E0089581E02A
:1008B000089582E0089583E0089581E00895611528
:1008C000710529F4E8EEF0E020812B772083E82FF2
:1008D000F92F22C080911C01882371F1853071F1BC
:1008E0008091E80083FD2CC08091E80082FF14C055
:1008F00005C08091F1008193615071096115710506
:1009000031F08091F2009091F300892B91F7A8EEDD
:10091000B0E08C918B778C9361157105D9F606C088
:1009200080911C01882371F0853071F08091E8007E
:1009300080FFF6CF80E0089582E0089583E0089577
:1009400081E0089582E0089583E0089520912301D5
:10095000309124012617370758F06115710539F4D5
:10096000E8EEF0E020812E7720839B0101C09B01FF
:10097000E82FF92F90E031C080911C01882309F401
:1009800042C0853009F441C08091E80083FD3FC03A
:100990008091E80082FD31C08091E80080FF1DC099
:1009A0004091F2005091F30008C084918093F100CF
:1009B0003196215031094F5F5F4F2115310519F0F4
:1009C0004830510590F391E04830510509F090E02E
:1009D000A8EEB0E08C918E778C932115310561F6ED
:1009E0009111CACF0AC080911C01882391F08530F3
:1009F00091F08091E80083FD10C08091E80082FFB3
:100A0000F2CF80E0089582E0089583E0089581E0C8
:100A1000089582E0089583E0089581E00895982F75
:100A200029C0292F2F702093E900981739F0709171
:100A3000EC002091ED005091F00003C0242F762FA0
:100A400050E021FF16C0EBEEF0E030813E7F3083B6
:100A5000ADEEB0E03C913D7F3C933081316030831E
:100A60007093EC002C935093F0002091EE00222321
:100A700044F49F5F9730A8F28F708093E90081E083
:100A8000089580E008950F931F93CF93DF93EC01B7
:100A9000062F10E036C0E12FF0E0CF01880F991F3C
:100AA000880F991FE80FF91FEC0FFD1F5081552388
:100AB00039F19481A181B2816381852F8F70873054
:100AC000E0F4923010F046E001C042E028E030E06F
:100AD00090E003C09F5F220F331F2A173B07D0F31C
:100AE0009295907F20E4629FB0011124551F5527F5
:100AF000551F492B652B93DF01C080E0882321F02F
:100B00001F5F101740F281E0DF91CF911F910F918D
:100B1000089580911D0188239CF404C080911C01DC
:100B20008823B9F08091E80082FFF8CFE8EEF0E08A
:100B300080818B778083089580911C01882349F000
:100B40008091E80080FFF8CFE8EEF0E080818E77BA
:100B5000808308952091E4003091E50044E602C0CE
:100B60009C01452F8091EC00982F917080FD90E8BA
:100B7000903829F48091E80080FF05C01BC0809167
:100B8000E80082FD19C080911C018823B9F08530EE
:100B9000B9F08091EB0085FD15C08091E400909143
:100BA000E50028173907F1F25FEF540F4111D8CF54
:100BB00084E0089580E0089580E0089582E008953B
:100BC00083E0089581E00895CF93DF9310921C0194
:100BD0001092180110921A0110921901C0EED0E083
:100BE00088818B7F8883E8EDF0E08081816080835D
:100BF00042E060E080E013DFE1EEF0E080818E7F94
:100C00008083E2EEF0E08081816080838081886073
:100C1000808388818E7F8883DF91CF910895CF93E1
:100C2000DF9328D02FD0C8EDD0E088818F778883DC
:100C300088818068888388818F7D8883E7EDF0E0F4
:100C400080818068808319BCBFDF88818061888350
:100C5000DF91CF910895E8EDF0E080818F7E808371
:100C6000E7EDF0E080818160808381E080931B016B
:100C7000D6CF0895E8EDF0E080818C7F80831092DC
:100C8000E20008951092DA001092E10008951F9298
:100C90000F920FB60F9211240BB60F922F933F9322
:100CA0004F935F936F937F938F939F93AF93BF9374
:100CB000EF93FF938091E10082FF0AC08091E200F0
:100CC00082FF06C0E1EEF0E080818B7F808302DB53
:100CD0008091DA0080FF1DC08091D80080FF19C08C
:100CE000EAEDF0E080818E7F80838091D90080FFE3
:100CF0000CC084E189BD86E189BD09B400FEFDCF49
:100D000081E080931C01D7DA04C019BC10921C0149
:100D1000D3DA8091E10080FF16C08091E20080FF6D
:100D200012C0E2EEF0E080818E7F8083808180615E
:100D30008083E8EDF0E080818062808319BC85E0EB
:100D400080931C0109D28091E10084FF2FC0809123
:100D5000E20084FF2BC084E189BD86E189BD09B42E
:100D600000FEFDCFE8EDF0E080818F7D8083E1EE35
:100D7000F0E080818F7E8083E2EEF0E080818F7EE4
:100D8000808380818160808380911801882321F095
:100D900084E080931C0109C08091E300882314F44F
:100DA00083E001C081E080931C01D6D18091E100F5
:100DB00083FF1EC08091E20083FF1AC0E1EEF0E0E5
:100DC0008081877F808382E080931C0110921801CC
:100DD00080818E7F8083E2EEF0E080818E7F808351
:100DE00080818061808342E060E080E018DEB4D1E1
:100DF000FF91EF91BF91AF919F918F917F916F91F3
:100E00005F914F913F912F910F900BBE0F900FBEAE
:100E10000F901F90189580911D01803819F082382D
:100E200071F0089580911901811102C090E001C014
:100E300091E080911A01882381F092600EC0809128
:100E400021018F708730B0F4E9EEF0E0808390915B
:100E5000EB0095FB992790F91082E8EEF0E0808195
:100E6000877F8083A1EFB0E09C931C9280818E7776
:100E700080834FCE089580911D018F7119F08230CB
:100E800071F0089580911F01813009F03FC0909169
:100E90001E01933009F080E080931A012FC08091E9
:100EA0001F0181112BC0809121018F709FEF980F3E
:100EB000963060F58093E9009091EB0090FF1EC0A2
:100EC00090911E01933031F4EBEEF0E0808180626E
:100ED000808314C0EBEEF0E090819061908321E07C
:100EE00030E0A90102C0440F551F8A95E2F7AAEE2F
:100EF000B0E04C931C928081886080831092E9005E
:100F0000E8EEF0E08081877F808303CE0895CF9361
:100F1000C0911F01CF77E3EEF0E0808180788C2BC9
:100F20008083E8EEF0E08081877F8083F2DD80912E
:100F3000E80080FFFCCFE3EEF0E0808180688083F2
:100F4000CC2311F083E001C082E080931C01CF919B
:100F50000895E8EEF0E08081877F8083809118011A
:100F60008093F10080818E778083D3CD08950F9395
:100F70001F93CF93DF93CDB7DEB7AA970FB6F89440
:100F8000DEBF0FBECDBF83E08A838AE289833FB78D
:100F9000F89490E02EE020C0E22FF0E081E2809310
:100FA0005700E49190FF03C0E295EF702F5FEF7060
:100FB000A92FB0E0AA0FBB1F43E050E04C0F5D1F0C
:100FC000A40FB51FEA3018F0F0E0F79602C0F0E089
:100FD000F096ED93FC939F5F9431F0F23FBF08EEE3
:100FE00010E0F8018081877F80836AE270E0CE01A3
:100FF0000196FDDBF80180818B778083AA960FB67E
:10100000F894DEBF0FBECDBFDF91CF911F910F913E
:1010100008950F931F93CF93DF9300D0CDB7DEB722
:1010200080911F01909120018C3D23E0920711F4E3
:101030009EDF18C06091210170912201AE014F5FC7
:101040005F4FCAD8009771F008EE10E0F8012081D8
:10105000277F2083BC0189819A8178DCF801808117
:101060008B7780830F900F90DF91CF911F910F911D
:10107000089580911F019091200199270297E4F42F
:10108000E8EEF0E08081877F808380911F0180936C
:1010900018013FDD80911801882321F084E08093BE
:1010A0001C0109C08091E300882314F484E001C08E
:1010B00081E080931C0101C9089580E0EDE1F1E039
:1010C00005C09091F10090838F5F31968830C8F30E
:1010D000FDD88091E80083FF30C0EDE1F1E0908120
:1010E00081818530D1F030F4813089F050F0833047
:1010F00071F023C08830D1F08930E1F08630E9F416
:1011000010C0903811F09238C1F485DE16C09923D2
:1011100011F0923091F4AFDE10C091110EC0F7DEE5
:101120000CC09058923048F474DF07C0903829F40E
:1011300010DF03C0911101C09CDF8091E80083FFA4
:101140000AC0E8EEF0E08081877F8083EBEEF0E07C
:1011500080818062808308950895CF9380911C01DF
:10116000882399F0C091E900CF708091EC00982F0E
:10117000917080FD90E8C92B1092E9008091E80001
:1011800083FD9BDFCF70C093E900CF910895E5CF39
:101190000895FB01DC0104C08D910190801921F4B8
:1011A00041505040C8F7881B990B0895FB01DC01A2
:1011B00002C001900D9241505040D8F70895DC01D3
:1011C00001C06D9341505040E0F70895F894FFCF6F
:1011D000008108000001100108000000000000006C
:00000001FF
